{
  "contractName": "ERC19",
  "abi": [
    {
      "inputs": [
        {
          "internalType": "string",
          "name": "uri_",
          "type": "string"
        }
      ],
      "stateMutability": "nonpayable",
      "type": "constructor"
    },
    {
      "anonymous": false,
      "inputs": [
        {
          "indexed": true,
          "internalType": "address",
          "name": "account",
          "type": "address"
        },
        {
          "indexed": true,
          "internalType": "address",
          "name": "operator",
          "type": "address"
        },
        {
          "indexed": false,
          "internalType": "bool",
          "name": "approved",
          "type": "bool"
        }
      ],
      "name": "ApprovalForAll",
      "type": "event"
    },
    {
      "anonymous": false,
      "inputs": [
        {
          "indexed": true,
          "internalType": "address",
          "name": "operator",
          "type": "address"
        },
        {
          "indexed": true,
          "internalType": "address",
          "name": "from",
          "type": "address"
        },
        {
          "indexed": true,
          "internalType": "address",
          "name": "to",
          "type": "address"
        },
        {
          "indexed": false,
          "internalType": "uint256[]",
          "name": "ids",
          "type": "uint256[]"
        },
        {
          "indexed": false,
          "internalType": "uint256[]",
          "name": "values",
          "type": "uint256[]"
        }
      ],
      "name": "TransferBatch",
      "type": "event"
    },
    {
      "anonymous": false,
      "inputs": [
        {
          "indexed": true,
          "internalType": "address",
          "name": "operator",
          "type": "address"
        },
        {
          "indexed": true,
          "internalType": "address",
          "name": "from",
          "type": "address"
        },
        {
          "indexed": true,
          "internalType": "address",
          "name": "to",
          "type": "address"
        },
        {
          "indexed": false,
          "internalType": "uint256",
          "name": "id",
          "type": "uint256"
        },
        {
          "indexed": false,
          "internalType": "uint256",
          "name": "value",
          "type": "uint256"
        }
      ],
      "name": "TransferSingle",
      "type": "event"
    },
    {
      "anonymous": false,
      "inputs": [
        {
          "indexed": false,
          "internalType": "string",
          "name": "value",
          "type": "string"
        },
        {
          "indexed": true,
          "internalType": "uint256",
          "name": "id",
          "type": "uint256"
        }
      ],
      "name": "URI",
      "type": "event"
    },
    {
      "inputs": [
        {
          "internalType": "bytes4",
          "name": "interfaceId",
          "type": "bytes4"
        }
      ],
      "name": "supportsInterface",
      "outputs": [
        {
          "internalType": "bool",
          "name": "",
          "type": "bool"
        }
      ],
      "stateMutability": "view",
      "type": "function",
      "constant": true
    },
    {
      "inputs": [
        {
          "internalType": "uint256",
          "name": "",
          "type": "uint256"
        }
      ],
      "name": "uri",
      "outputs": [
        {
          "internalType": "string",
          "name": "",
          "type": "string"
        }
      ],
      "stateMutability": "view",
      "type": "function",
      "constant": true
    },
    {
      "inputs": [
        {
          "internalType": "address",
          "name": "account",
          "type": "address"
        },
        {
          "internalType": "uint256",
          "name": "id",
          "type": "uint256"
        }
      ],
      "name": "balanceOf",
      "outputs": [
        {
          "internalType": "uint256",
          "name": "",
          "type": "uint256"
        }
      ],
      "stateMutability": "view",
      "type": "function",
      "constant": true
    },
    {
      "inputs": [
        {
          "internalType": "address[]",
          "name": "accounts",
          "type": "address[]"
        },
        {
          "internalType": "uint256[]",
          "name": "ids",
          "type": "uint256[]"
        }
      ],
      "name": "balanceOfBatch",
      "outputs": [
        {
          "internalType": "uint256[]",
          "name": "",
          "type": "uint256[]"
        }
      ],
      "stateMutability": "view",
      "type": "function",
      "constant": true
    },
    {
      "inputs": [
        {
          "internalType": "address",
          "name": "operator",
          "type": "address"
        },
        {
          "internalType": "bool",
          "name": "approved",
          "type": "bool"
        }
      ],
      "name": "setApprovalForAll",
      "outputs": [],
      "stateMutability": "nonpayable",
      "type": "function"
    },
    {
      "inputs": [
        {
          "internalType": "address",
          "name": "account",
          "type": "address"
        },
        {
          "internalType": "address",
          "name": "operator",
          "type": "address"
        }
      ],
      "name": "isApprovedForAll",
      "outputs": [
        {
          "internalType": "bool",
          "name": "",
          "type": "bool"
        }
      ],
      "stateMutability": "view",
      "type": "function",
      "constant": true
    },
    {
      "inputs": [
        {
          "internalType": "address",
          "name": "from",
          "type": "address"
        },
        {
          "internalType": "address",
          "name": "to",
          "type": "address"
        },
        {
          "internalType": "uint256",
          "name": "id",
          "type": "uint256"
        },
        {
          "internalType": "uint256",
          "name": "amount",
          "type": "uint256"
        },
        {
          "internalType": "bytes",
          "name": "data",
          "type": "bytes"
        }
      ],
      "name": "safeTransferFrom",
      "outputs": [],
      "stateMutability": "nonpayable",
      "type": "function"
    },
    {
      "inputs": [
        {
          "internalType": "address",
          "name": "from",
          "type": "address"
        },
        {
          "internalType": "address",
          "name": "to",
          "type": "address"
        },
        {
          "internalType": "uint256[]",
          "name": "ids",
          "type": "uint256[]"
        },
        {
          "internalType": "uint256[]",
          "name": "amounts",
          "type": "uint256[]"
        },
        {
          "internalType": "bytes",
          "name": "data",
          "type": "bytes"
        }
      ],
      "name": "safeBatchTransferFrom",
      "outputs": [],
      "stateMutability": "nonpayable",
      "type": "function"
    },
    {
      "inputs": [
        {
          "internalType": "uint256",
          "name": "tokenId",
          "type": "uint256"
        }
      ],
      "name": "tokenURI",
      "outputs": [
        {
          "internalType": "string",
          "name": "",
          "type": "string"
        }
      ],
      "stateMutability": "view",
      "type": "function",
      "constant": true
    },
    {
      "inputs": [
        {
          "internalType": "uint256",
          "name": "id",
          "type": "uint256"
        }
      ],
      "name": "tokenOwner",
      "outputs": [
        {
          "internalType": "address",
          "name": "",
          "type": "address"
        }
      ],
      "stateMutability": "view",
      "type": "function",
      "constant": true
    }
  ],
  "bytecode": "0x60806040523480156200001157600080fd5b5060405162002aa038038062002aa08339818101604052810190620000379190620002b8565b62000048816200004f60201b60201c565b506200036e565b8060049080519060200190620000679291906200006b565b5050565b828054620000799062000338565b90600052602060002090601f0160209004810192826200009d5760008555620000e9565b82601f10620000b857805160ff1916838001178555620000e9565b82800160010185558215620000e9579182015b82811115620000e8578251825591602001919060010190620000cb565b5b509050620000f89190620000fc565b5090565b5b8082111562000117576000816000905550600101620000fd565b5090565b6000604051905090565b600080fd5b600080fd5b600080fd5b600080fd5b6000601f19601f8301169050919050565b7f4e487b7100000000000000000000000000000000000000000000000000000000600052604160045260246000fd5b620001848262000139565b810181811067ffffffffffffffff82111715620001a657620001a56200014a565b5b80604052505050565b6000620001bb6200011b565b9050620001c9828262000179565b919050565b600067ffffffffffffffff821115620001ec57620001eb6200014a565b5b620001f78262000139565b9050602081019050919050565b60005b838110156200022457808201518184015260208101905062000207565b8381111562000234576000848401525b50505050565b6000620002516200024b84620001ce565b620001af565b90508281526020810184848401111562000270576200026f62000134565b5b6200027d84828562000204565b509392505050565b600082601f8301126200029d576200029c6200012f565b5b8151620002af8482602086016200023a565b91505092915050565b600060208284031215620002d157620002d062000125565b5b600082015167ffffffffffffffff811115620002f257620002f16200012a565b5b620003008482850162000285565b91505092915050565b7f4e487b7100000000000000000000000000000000000000000000000000000000600052602260045260246000fd5b600060028204905060018216806200035157607f821691505b6020821081141562000368576200036762000309565b5b50919050565b612722806200037e6000396000f3fe608060405234801561001057600080fd5b506004361061009d5760003560e01c80634e1273f4116100665780634e1273f41461017e578063a22cb465146101ae578063c87b56dd146101ca578063e985e9c5146101fa578063f242432a1461022a5761009d565b8062fdd58e146100a257806301ffc9a7146100d25780630e89341c146101025780631caaa487146101325780632eb2c2d614610162575b600080fd5b6100bc60048036038101906100b791906114fb565b610246565b6040516100c9919061154a565b60405180910390f35b6100ec60048036038101906100e791906115bd565b61030f565b6040516100f99190611605565b60405180910390f35b61011c60048036038101906101179190611620565b6103f1565b60405161012991906116e6565b60405180910390f35b61014c60048036038101906101479190611620565b610485565b6040516101599190611717565b60405180910390f35b61017c6004803603810190610177919061192f565b6104c2565b005b61019860048036038101906101939190611ac1565b610563565b6040516101a59190611bf7565b60405180910390f35b6101c860048036038101906101c39190611c45565b61067c565b005b6101e460048036038101906101df9190611620565b610692565b6040516101f191906116e6565b60405180910390f35b610214600480360381019061020f9190611c85565b61077f565b6040516102219190611605565b60405180910390f35b610244600480360381019061023f9190611cc5565b610813565b005b60008073ffffffffffffffffffffffffffffffffffffffff168373ffffffffffffffffffffffffffffffffffffffff1614156102b7576040517f08c379a00000000000000000000000000000000000000000000000000000000081526004016102ae90611dce565b60405180910390fd5b60008083815260200190815260200160002060008473ffffffffffffffffffffffffffffffffffffffff1673ffffffffffffffffffffffffffffffffffffffff16815260200190815260200160002054905092915050565b60007fd9b67a26000000000000000000000000000000000000000000000000000000007bffffffffffffffffffffffffffffffffffffffffffffffffffffffff1916827bffffffffffffffffffffffffffffffffffffffffffffffffffffffff191614806103da57507f0e89341c000000000000000000000000000000000000000000000000000000007bffffffffffffffffffffffffffffffffffffffffffffffffffffffff1916827bffffffffffffffffffffffffffffffffffffffffffffffffffffffff1916145b806103ea57506103e982610827565b5b9050919050565b60606004805461040090611e1d565b80601f016020809104026020016040519081016040528092919081815260200182805461042c90611e1d565b80156104795780601f1061044e57610100808354040283529160200191610479565b820191906000526020600020905b81548152906001019060200180831161045c57829003601f168201915b50505050509050919050565b60006003600083815260200190815260200160002060009054906101000a900473ffffffffffffffffffffffffffffffffffffffff169050919050565b6104ca610891565b73ffffffffffffffffffffffffffffffffffffffff168573ffffffffffffffffffffffffffffffffffffffff161480610510575061050f8561050a610891565b61077f565b5b61054f576040517f08c379a000000000000000000000000000000000000000000000000000000000815260040161054690611ec1565b60405180910390fd5b61055c8585858585610899565b5050505050565b606081518351146105a9576040517f08c379a00000000000000000000000000000000000000000000000000000000081526004016105a090611f53565b60405180910390fd5b6000835167ffffffffffffffff8111156105c6576105c5611737565b5b6040519080825280602002602001820160405280156105f45781602001602082028036833780820191505090505b50905060005b84518110156106715761064185828151811061061957610618611f73565b5b602002602001015185838151811061063457610633611f73565b5b6020026020010151610246565b82828151811061065457610653611f73565b5b6020026020010181815250508061066a90611fd1565b90506105fa565b508091505092915050565b61068e610687610891565b8383610bad565b5050565b606061069d82610d1a565b6106dc576040517f08c379a00000000000000000000000000000000000000000000000000000000081526004016106d39061208c565b60405180910390fd5b6002600083815260200190815260200160002080546106fa90611e1d565b80601f016020809104026020016040519081016040528092919081815260200182805461072690611e1d565b80156107735780601f1061074857610100808354040283529160200191610773565b820191906000526020600020905b81548152906001019060200180831161075657829003601f168201915b50505050509050919050565b6000600160008473ffffffffffffffffffffffffffffffffffffffff1673ffffffffffffffffffffffffffffffffffffffff16815260200190815260200160002060008373ffffffffffffffffffffffffffffffffffffffff1673ffffffffffffffffffffffffffffffffffffffff16815260200190815260200160002060009054906101000a900460ff16905092915050565b6108208585858585610d8c565b5050505050565b60007f01ffc9a7000000000000000000000000000000000000000000000000000000007bffffffffffffffffffffffffffffffffffffffffffffffffffffffff1916827bffffffffffffffffffffffffffffffffffffffffffffffffffffffff1916149050919050565b600033905090565b81518351146108dd576040517f08c379a00000000000000000000000000000000000000000000000000000000081526004016108d49061211e565b60405180910390fd5b600073ffffffffffffffffffffffffffffffffffffffff168473ffffffffffffffffffffffffffffffffffffffff16141561094d576040517f08c379a0000000000000000000000000000000000000000000000000000000008152600401610944906121b0565b60405180910390fd5b6000610957610891565b905061096781878787878761100e565b60005b8451811015610b1857600085828151811061098857610987611f73565b5b6020026020010151905060008583815181106109a7576109a6611f73565b5b60200260200101519050600080600084815260200190815260200160002060008b73ffffffffffffffffffffffffffffffffffffffff1673ffffffffffffffffffffffffffffffffffffffff16815260200190815260200160002054905081811015610a48576040517f08c379a0000000000000000000000000000000000000000000000000000000008152600401610a3f90612242565b60405180910390fd5b81810360008085815260200190815260200160002060008c73ffffffffffffffffffffffffffffffffffffffff1673ffffffffffffffffffffffffffffffffffffffff168152602001908152602001600020819055508160008085815260200190815260200160002060008b73ffffffffffffffffffffffffffffffffffffffff1673ffffffffffffffffffffffffffffffffffffffff1681526020019081526020016000206000828254610afd9190612262565b9250508190555050505080610b1190611fd1565b905061096a565b508473ffffffffffffffffffffffffffffffffffffffff168673ffffffffffffffffffffffffffffffffffffffff168273ffffffffffffffffffffffffffffffffffffffff167f4a39dc06d4c0dbc64b70af90fd698a233a518aa5d07e595d983b8c0526c8f7fb8787604051610b8f9291906122b8565b60405180910390a4610ba5818787878787611016565b505050505050565b8173ffffffffffffffffffffffffffffffffffffffff168373ffffffffffffffffffffffffffffffffffffffff161415610c1c576040517f08c379a0000000000000000000000000000000000000000000000000000000008152600401610c1390612361565b60405180910390fd5b80600160008573ffffffffffffffffffffffffffffffffffffffff1673ffffffffffffffffffffffffffffffffffffffff16815260200190815260200160002060008473ffffffffffffffffffffffffffffffffffffffff1673ffffffffffffffffffffffffffffffffffffffff16815260200190815260200160002060006101000a81548160ff0219169083151502179055508173ffffffffffffffffffffffffffffffffffffffff168373ffffffffffffffffffffffffffffffffffffffff167f17307eab39ab6107e8899845ad3d59bd9653f200f220920489ca2b5937696c3183604051610d0d9190611605565b60405180910390a3505050565b6000806003600084815260200190815260200160002060009054906101000a900473ffffffffffffffffffffffffffffffffffffffff169050600073ffffffffffffffffffffffffffffffffffffffff168173ffffffffffffffffffffffffffffffffffffffff161415915050919050565b600073ffffffffffffffffffffffffffffffffffffffff168473ffffffffffffffffffffffffffffffffffffffff161415610dfc576040517f08c379a0000000000000000000000000000000000000000000000000000000008152600401610df3906121b0565b60405180910390fd5b6000610e06610891565b9050610e26818787610e17886111ee565b610e20886111ee565b8761100e565b600080600086815260200190815260200160002060008873ffffffffffffffffffffffffffffffffffffffff1673ffffffffffffffffffffffffffffffffffffffff16815260200190815260200160002054905083811015610ebd576040517f08c379a0000000000000000000000000000000000000000000000000000000008152600401610eb490612242565b60405180910390fd5b83810360008087815260200190815260200160002060008973ffffffffffffffffffffffffffffffffffffffff1673ffffffffffffffffffffffffffffffffffffffff168152602001908152602001600020819055508360008087815260200190815260200160002060008873ffffffffffffffffffffffffffffffffffffffff1673ffffffffffffffffffffffffffffffffffffffff1681526020019081526020016000206000828254610f729190612262565b925050819055508573ffffffffffffffffffffffffffffffffffffffff168773ffffffffffffffffffffffffffffffffffffffff168373ffffffffffffffffffffffffffffffffffffffff167fc3d58168c5ae7397731d063d5bbf3d657854427343f4c083240f7aacaa2d0f628888604051610fef929190612381565b60405180910390a4611005828888888888611268565b50505050505050565b505050505050565b6110358473ffffffffffffffffffffffffffffffffffffffff16611440565b156111e6578373ffffffffffffffffffffffffffffffffffffffff1663bc197c8187878686866040518663ffffffff1660e01b815260040161107b9594939291906123ff565b6020604051808303816000875af19250505080156110b757506040513d601f19601f820116820180604052508101906110b4919061247c565b60015b61115d576110c36124b6565b806308c379a0141561112057506110d86124d8565b806110e35750611122565b806040517f08c379a000000000000000000000000000000000000000000000000000000000815260040161111791906116e6565b60405180910390fd5b505b6040517f08c379a0000000000000000000000000000000000000000000000000000000008152600401611154906125e0565b60405180910390fd5b63bc197c8160e01b7bffffffffffffffffffffffffffffffffffffffffffffffffffffffff1916817bffffffffffffffffffffffffffffffffffffffffffffffffffffffff1916146111e4576040517f08c379a00000000000000000000000000000000000000000000000000000000081526004016111db90612672565b60405180910390fd5b505b505050505050565b60606000600167ffffffffffffffff81111561120d5761120c611737565b5b60405190808252806020026020018201604052801561123b5781602001602082028036833780820191505090505b509050828160008151811061125357611252611f73565b5b60200260200101818152505080915050919050565b6112878473ffffffffffffffffffffffffffffffffffffffff16611440565b15611438578373ffffffffffffffffffffffffffffffffffffffff1663f23a6e6187878686866040518663ffffffff1660e01b81526004016112cd959493929190612692565b6020604051808303816000875af192505050801561130957506040513d601f19601f82011682018060405250810190611306919061247c565b60015b6113af576113156124b6565b806308c379a01415611372575061132a6124d8565b806113355750611374565b806040517f08c379a000000000000000000000000000000000000000000000000000000000815260040161136991906116e6565b60405180910390fd5b505b6040517f08c379a00000000000000000000000000000000000000000000000000000000081526004016113a6906125e0565b60405180910390fd5b63f23a6e6160e01b7bffffffffffffffffffffffffffffffffffffffffffffffffffffffff1916817bffffffffffffffffffffffffffffffffffffffffffffffffffffffff191614611436576040517f08c379a000000000000000000000000000000000000000000000000000000000815260040161142d90612672565b60405180910390fd5b505b505050505050565b600080823b905060008111915050919050565b6000604051905090565b600080fd5b600080fd5b600073ffffffffffffffffffffffffffffffffffffffff82169050919050565b600061149282611467565b9050919050565b6114a281611487565b81146114ad57600080fd5b50565b6000813590506114bf81611499565b92915050565b6000819050919050565b6114d8816114c5565b81146114e357600080fd5b50565b6000813590506114f5816114cf565b92915050565b600080604083850312156115125761151161145d565b5b6000611520858286016114b0565b9250506020611531858286016114e6565b9150509250929050565b611544816114c5565b82525050565b600060208201905061155f600083018461153b565b92915050565b60007fffffffff0000000000000000000000000000000000000000000000000000000082169050919050565b61159a81611565565b81146115a557600080fd5b50565b6000813590506115b781611591565b92915050565b6000602082840312156115d3576115d261145d565b5b60006115e1848285016115a8565b91505092915050565b60008115159050919050565b6115ff816115ea565b82525050565b600060208201905061161a60008301846115f6565b92915050565b6000602082840312156116365761163561145d565b5b6000611644848285016114e6565b91505092915050565b600081519050919050565b600082825260208201905092915050565b60005b8381101561168757808201518184015260208101905061166c565b83811115611696576000848401525b50505050565b6000601f19601f8301169050919050565b60006116b88261164d565b6116c28185611658565b93506116d2818560208601611669565b6116db8161169c565b840191505092915050565b6000602082019050818103600083015261170081846116ad565b905092915050565b61171181611487565b82525050565b600060208201905061172c6000830184611708565b92915050565b600080fd5b7f4e487b7100000000000000000000000000000000000000000000000000000000600052604160045260246000fd5b61176f8261169c565b810181811067ffffffffffffffff8211171561178e5761178d611737565b5b80604052505050565b60006117a1611453565b90506117ad8282611766565b919050565b600067ffffffffffffffff8211156117cd576117cc611737565b5b602082029050602081019050919050565b600080fd5b60006117f66117f1846117b2565b611797565b90508083825260208201905060208402830185811115611819576118186117de565b5b835b81811015611842578061182e88826114e6565b84526020840193505060208101905061181b565b5050509392505050565b600082601f83011261186157611860611732565b5b81356118718482602086016117e3565b91505092915050565b600080fd5b600067ffffffffffffffff82111561189a57611899611737565b5b6118a38261169c565b9050602081019050919050565b82818337600083830152505050565b60006118d26118cd8461187f565b611797565b9050828152602081018484840111156118ee576118ed61187a565b5b6118f98482856118b0565b509392505050565b600082601f83011261191657611915611732565b5b81356119268482602086016118bf565b91505092915050565b600080600080600060a0868803121561194b5761194a61145d565b5b6000611959888289016114b0565b955050602061196a888289016114b0565b945050604086013567ffffffffffffffff81111561198b5761198a611462565b5b6119978882890161184c565b935050606086013567ffffffffffffffff8111156119b8576119b7611462565b5b6119c48882890161184c565b925050608086013567ffffffffffffffff8111156119e5576119e4611462565b5b6119f188828901611901565b9150509295509295909350565b600067ffffffffffffffff821115611a1957611a18611737565b5b602082029050602081019050919050565b6000611a3d611a38846119fe565b611797565b90508083825260208201905060208402830185811115611a6057611a5f6117de565b5b835b81811015611a895780611a7588826114b0565b845260208401935050602081019050611a62565b5050509392505050565b600082601f830112611aa857611aa7611732565b5b8135611ab8848260208601611a2a565b91505092915050565b60008060408385031215611ad857611ad761145d565b5b600083013567ffffffffffffffff811115611af657611af5611462565b5b611b0285828601611a93565b925050602083013567ffffffffffffffff811115611b2357611b22611462565b5b611b2f8582860161184c565b9150509250929050565b600081519050919050565b600082825260208201905092915050565b6000819050602082019050919050565b611b6e816114c5565b82525050565b6000611b808383611b65565b60208301905092915050565b6000602082019050919050565b6000611ba482611b39565b611bae8185611b44565b9350611bb983611b55565b8060005b83811015611bea578151611bd18882611b74565b9750611bdc83611b8c565b925050600181019050611bbd565b5085935050505092915050565b60006020820190508181036000830152611c118184611b99565b905092915050565b611c22816115ea565b8114611c2d57600080fd5b50565b600081359050611c3f81611c19565b92915050565b60008060408385031215611c5c57611c5b61145d565b5b6000611c6a858286016114b0565b9250506020611c7b85828601611c30565b9150509250929050565b60008060408385031215611c9c57611c9b61145d565b5b6000611caa858286016114b0565b9250506020611cbb858286016114b0565b9150509250929050565b600080600080600060a08688031215611ce157611ce061145d565b5b6000611cef888289016114b0565b9550506020611d00888289016114b0565b9450506040611d11888289016114e6565b9350506060611d22888289016114e6565b925050608086013567ffffffffffffffff811115611d4357611d42611462565b5b611d4f88828901611901565b9150509295509295909350565b7f455243313135353a2062616c616e636520717565727920666f7220746865207a60008201527f65726f2061646472657373000000000000000000000000000000000000000000602082015250565b6000611db8602b83611658565b9150611dc382611d5c565b604082019050919050565b60006020820190508181036000830152611de781611dab565b9050919050565b7f4e487b7100000000000000000000000000000000000000000000000000000000600052602260045260246000fd5b60006002820490506001821680611e3557607f821691505b60208210811415611e4957611e48611dee565b5b50919050565b7f455243313135353a207472616e736665722063616c6c6572206973206e6f742060008201527f6f776e6572206e6f7220617070726f7665640000000000000000000000000000602082015250565b6000611eab603283611658565b9150611eb682611e4f565b604082019050919050565b60006020820190508181036000830152611eda81611e9e565b9050919050565b7f455243313135353a206163636f756e747320616e6420696473206c656e67746860008201527f206d69736d617463680000000000000000000000000000000000000000000000602082015250565b6000611f3d602983611658565b9150611f4882611ee1565b604082019050919050565b60006020820190508181036000830152611f6c81611f30565b9050919050565b7f4e487b7100000000000000000000000000000000000000000000000000000000600052603260045260246000fd5b7f4e487b7100000000000000000000000000000000000000000000000000000000600052601160045260246000fd5b6000611fdc826114c5565b91507fffffffffffffffffffffffffffffffffffffffffffffffffffffffffffffffff82141561200f5761200e611fa2565b5b600182019050919050565b7f4552433732314d657461646174613a2055524920717565727920666f72206e6f60008201527f6e6578697374656e7420746f6b656e0000000000000000000000000000000000602082015250565b6000612076602f83611658565b91506120818261201a565b604082019050919050565b600060208201905081810360008301526120a581612069565b9050919050565b7f455243313135353a2069647320616e6420616d6f756e7473206c656e6774682060008201527f6d69736d61746368000000000000000000000000000000000000000000000000602082015250565b6000612108602883611658565b9150612113826120ac565b604082019050919050565b60006020820190508181036000830152612137816120fb565b9050919050565b7f455243313135353a207472616e7366657220746f20746865207a65726f20616460008201527f6472657373000000000000000000000000000000000000000000000000000000602082015250565b600061219a602583611658565b91506121a58261213e565b604082019050919050565b600060208201905081810360008301526121c98161218d565b9050919050565b7f455243313135353a20696e73756666696369656e742062616c616e636520666f60008201527f72207472616e7366657200000000000000000000000000000000000000000000602082015250565b600061222c602a83611658565b9150612237826121d0565b604082019050919050565b6000602082019050818103600083015261225b8161221f565b9050919050565b600061226d826114c5565b9150612278836114c5565b9250827fffffffffffffffffffffffffffffffffffffffffffffffffffffffffffffffff038211156122ad576122ac611fa2565b5b828201905092915050565b600060408201905081810360008301526122d28185611b99565b905081810360208301526122e68184611b99565b90509392505050565b7f455243313135353a2073657474696e6720617070726f76616c2073746174757360008201527f20666f722073656c660000000000000000000000000000000000000000000000602082015250565b600061234b602983611658565b9150612356826122ef565b604082019050919050565b6000602082019050818103600083015261237a8161233e565b9050919050565b6000604082019050612396600083018561153b565b6123a3602083018461153b565b9392505050565b600081519050919050565b600082825260208201905092915050565b60006123d1826123aa565b6123db81856123b5565b93506123eb818560208601611669565b6123f48161169c565b840191505092915050565b600060a0820190506124146000830188611708565b6124216020830187611708565b81810360408301526124338186611b99565b905081810360608301526124478185611b99565b9050818103608083015261245b81846123c6565b90509695505050505050565b60008151905061247681611591565b92915050565b6000602082840312156124925761249161145d565b5b60006124a084828501612467565b91505092915050565b60008160e01c9050919050565b600060033d11156124d55760046000803e6124d26000516124a9565b90505b90565b600060443d10156124e85761256b565b6124f0611453565b60043d036004823e80513d602482011167ffffffffffffffff8211171561251857505061256b565b808201805167ffffffffffffffff811115612536575050505061256b565b80602083010160043d03850181111561255357505050505061256b565b61256282602001850186611766565b82955050505050505b90565b7f455243313135353a207472616e7366657220746f206e6f6e204552433131353560008201527f526563656976657220696d706c656d656e746572000000000000000000000000602082015250565b60006125ca603483611658565b91506125d58261256e565b604082019050919050565b600060208201905081810360008301526125f9816125bd565b9050919050565b7f455243313135353a204552433131353552656365697665722072656a6563746560008201527f6420746f6b656e73000000000000000000000000000000000000000000000000602082015250565b600061265c602883611658565b915061266782612600565b604082019050919050565b6000602082019050818103600083015261268b8161264f565b9050919050565b600060a0820190506126a76000830188611708565b6126b46020830187611708565b6126c1604083018661153b565b6126ce606083018561153b565b81810360808301526126e081846123c6565b9050969550505050505056fea2646970667358221220734c429e424526b146594b4c2a44d22df5545cbd6da5c20e7a3a213590fc00d664736f6c634300080a0033",
  "immutableReferences": {},
  "source": "// SPDX-License-Identifier: MIT\r\npragma solidity ^0.8.0;\r\nimport \"../../node_modules/@openzeppelin/contracts/token/ERC1155/ERC1155.sol\";\r\nimport \"../../node_modules/@openzeppelin/contracts/token/ERC1155/IERC1155.sol\";\r\nimport \"../../node_modules/@openzeppelin/contracts/token/ERC1155/IERC1155Receiver.sol\";\r\nimport \"../../node_modules/@openzeppelin/contracts/token/ERC1155/extensions/IERC1155MetadataURI.sol\";\r\n\r\n/**\r\n * @dev Implementation of the basic standard multi-token.\r\n * See https://eips.ethereum.org/EIPS/eip-1155\r\n * Originally based on code by Enjin: https://github.com/enjin/erc-1155\r\n *\r\n * _Available since v3.1._\r\n */\r\ncontract ERC19 is Context, ERC165, IERC1155, IERC1155MetadataURI {\r\n    using Address for address;\r\n\r\n    // Mapping from token ID to account balances\r\n    mapping(uint256 => mapping(address => uint256)) private _balances;\r\n\r\n    // Mapping from account to operator approvals\r\n    mapping(address => mapping(address => bool)) private _operatorApprovals;\r\n\r\n    // Optional mapping for token URIs\r\n    mapping(uint256 => string) private _tokenURIs;\r\n\r\n    // Mapping from token ID to owner\r\n    mapping (uint256 => address) private _tokenOwner;\r\n\r\n    // Used as the URI for all token types by relying on ID substitution, e.g. https://token-cdn-domain/{id}.json\r\n    string private _uri;\r\n\r\n    /**\r\n     * @dev See {_setURI}.\r\n     */\r\n    constructor(string memory uri_) {\r\n        _setURI(uri_);\r\n    }\r\n\r\n    /**\r\n     * @dev See {IERC165-supportsInterface}.\r\n     */\r\n    function supportsInterface(bytes4 interfaceId) public view virtual override(ERC165, IERC165) returns (bool) {\r\n        return\r\n            interfaceId == type(IERC1155).interfaceId ||\r\n            interfaceId == type(IERC1155MetadataURI).interfaceId ||\r\n            super.supportsInterface(interfaceId);\r\n    }\r\n\r\n    /**\r\n     * @dev See {IERC1155MetadataURI-uri}.\r\n     *\r\n     * This implementation returns the same URI for *all* token types. It relies\r\n     * on the token type ID substitution mechanism\r\n     * https://eips.ethereum.org/EIPS/eip-1155#metadata[defined in the EIP].\r\n     *\r\n     * Clients calling this function must replace the `\\{id\\}` substring with the\r\n     * actual token type ID.\r\n     */\r\n    function uri(uint256) public view virtual override returns (string memory) {\r\n        return _uri;\r\n    }\r\n\r\n    /**\r\n     * @dev See {IERC1155-balanceOf}.\r\n     *\r\n     * Requirements:\r\n     *\r\n     * - `account` cannot be the zero address.\r\n     */\r\n    function balanceOf(address account, uint256 id) public view virtual override returns (uint256) {\r\n        require(account != address(0), \"ERC1155: balance query for the zero address\");\r\n        return _balances[id][account];\r\n    }\r\n\r\n    /**\r\n     * @dev See {IERC1155-balanceOfBatch}.\r\n     *\r\n     * Requirements:\r\n     *\r\n     * - `accounts` and `ids` must have the same length.\r\n     */\r\n    function balanceOfBatch(address[] memory accounts, uint256[] memory ids)\r\n        public\r\n        view\r\n        virtual\r\n        override\r\n        returns (uint256[] memory)\r\n    {\r\n        require(accounts.length == ids.length, \"ERC1155: accounts and ids length mismatch\");\r\n\r\n        uint256[] memory batchBalances = new uint256[](accounts.length);\r\n\r\n        for (uint256 i = 0; i < accounts.length; ++i) {\r\n            batchBalances[i] = balanceOf(accounts[i], ids[i]);\r\n        }\r\n\r\n        return batchBalances;\r\n    }\r\n\r\n    /**\r\n     * @dev See {IERC1155-setApprovalForAll}.\r\n     */\r\n    function setApprovalForAll(address operator, bool approved) public virtual override {\r\n        _setApprovalForAll(_msgSender(), operator, approved);\r\n    }\r\n\r\n    /**\r\n     * @dev See {IERC1155-isApprovedForAll}.\r\n     */\r\n    function isApprovedForAll(address account, address operator) public view virtual override returns (bool) {\r\n        return _operatorApprovals[account][operator];\r\n    }\r\n\r\n    /**\r\n     * @dev See {IERC1155-safeTransferFrom}.\r\n     */\r\n    function safeTransferFrom(\r\n        address from,\r\n        address to,\r\n        uint256 id,\r\n        uint256 amount,\r\n        bytes memory data\r\n    ) public virtual override {\r\n        /*require(\r\n            from == _msgSender() || isApprovedForAll(from, _msgSender()),\r\n            \"ERC19: caller is not owner nor approved\"\r\n        );*/\r\n        _safeTransferFrom(from, to, id, amount, data);\r\n    }\r\n\r\n    /**\r\n     * @dev See {IERC1155-safeBatchTransferFrom}.\r\n     */\r\n    function safeBatchTransferFrom(\r\n        address from,\r\n        address to,\r\n        uint256[] memory ids,\r\n        uint256[] memory amounts,\r\n        bytes memory data\r\n    ) public virtual override {\r\n        require(\r\n            from == _msgSender() || isApprovedForAll(from, _msgSender()),\r\n            \"ERC1155: transfer caller is not owner nor approved\"\r\n        );\r\n        _safeBatchTransferFrom(from, to, ids, amounts, data);\r\n    }\r\n\r\n    /**\r\n     * @dev Transfers `amount` tokens of token type `id` from `from` to `to`.\r\n     *\r\n     * Emits a {TransferSingle} event.\r\n     *\r\n     * Requirements:\r\n     *\r\n     * - `to` cannot be the zero address.\r\n     * - `from` must have a balance of tokens of type `id` of at least `amount`.\r\n     * - If `to` refers to a smart contract, it must implement {IERC1155Receiver-onERC1155Received} and return the\r\n     * acceptance magic value.\r\n     */\r\n    function _safeTransferFrom(\r\n        address from,\r\n        address to,\r\n        uint256 id,\r\n        uint256 amount,\r\n        bytes memory data\r\n    ) internal virtual {\r\n        require(to != address(0), \"ERC1155: transfer to the zero address\");\r\n\r\n        address operator = _msgSender();\r\n\r\n        _beforeTokenTransfer(operator, from, to, _asSingletonArray(id), _asSingletonArray(amount), data);\r\n\r\n        uint256 fromBalance = _balances[id][from];\r\n        require(fromBalance >= amount, \"ERC1155: insufficient balance for transfer\");\r\n        unchecked {\r\n            _balances[id][from] = fromBalance - amount;\r\n        }\r\n        _balances[id][to] += amount;\r\n\r\n        emit TransferSingle(operator, from, to, id, amount);\r\n\r\n        _doSafeTransferAcceptanceCheck(operator, from, to, id, amount, data);\r\n    }\r\n\r\n    /**\r\n     * @dev xref:ROOT:erc1155.adoc#batch-operations[Batched] version of {_safeTransferFrom}.\r\n     *\r\n     * Emits a {TransferBatch} event.\r\n     *\r\n     * Requirements:\r\n     *\r\n     * - If `to` refers to a smart contract, it must implement {IERC1155Receiver-onERC1155BatchReceived} and return the\r\n     * acceptance magic value.\r\n     */\r\n    function _safeBatchTransferFrom(\r\n        address from,\r\n        address to,\r\n        uint256[] memory ids,\r\n        uint256[] memory amounts,\r\n        bytes memory data\r\n    ) internal virtual {\r\n        require(ids.length == amounts.length, \"ERC1155: ids and amounts length mismatch\");\r\n        require(to != address(0), \"ERC1155: transfer to the zero address\");\r\n\r\n        address operator = _msgSender();\r\n\r\n        _beforeTokenTransfer(operator, from, to, ids, amounts, data);\r\n\r\n        for (uint256 i = 0; i < ids.length; ++i) {\r\n            uint256 id = ids[i];\r\n            uint256 amount = amounts[i];\r\n\r\n            uint256 fromBalance = _balances[id][from];\r\n            require(fromBalance >= amount, \"ERC1155: insufficient balance for transfer\");\r\n            unchecked {\r\n                _balances[id][from] = fromBalance - amount;\r\n            }\r\n            _balances[id][to] += amount;\r\n        }\r\n\r\n        emit TransferBatch(operator, from, to, ids, amounts);\r\n\r\n        _doSafeBatchTransferAcceptanceCheck(operator, from, to, ids, amounts, data);\r\n    }\r\n\r\n    /**\r\n     * @dev Sets a new URI for all token types, by relying on the token type ID\r\n     * substitution mechanism\r\n     * https://eips.ethereum.org/EIPS/eip-1155#metadata[defined in the EIP].\r\n     *\r\n     * By this mechanism, any occurrence of the `\\{id\\}` substring in either the\r\n     * URI or any of the amounts in the JSON file at said URI will be replaced by\r\n     * clients with the token type ID.\r\n     *\r\n     * For example, the `https://token-cdn-domain/\\{id\\}.json` URI would be\r\n     * interpreted by clients as\r\n     * `https://token-cdn-domain/000000000000000000000000000000000000000000000000000000000004cce0.json`\r\n     * for token type ID 0x4cce0.\r\n     *\r\n     * See {uri}.\r\n     *\r\n     * Because these URIs cannot be meaningfully represented by the {URI} event,\r\n     * this function emits no events.\r\n     */\r\n    function _setURI(string memory newuri) internal virtual {\r\n        _uri = newuri;\r\n    }\r\n\r\n    /**\r\n     * @dev Creates `amount` tokens of token type `id`, and assigns them to `to`.\r\n     *\r\n     * Emits a {TransferSingle} event.\r\n     *\r\n     * Requirements:\r\n     *\r\n     * - `to` cannot be the zero address.\r\n     * - If `to` refers to a smart contract, it must implement {IERC1155Receiver-onERC1155Received} and return the\r\n     * acceptance magic value.\r\n     */\r\n    function _mint(\r\n        address to,\r\n        uint256 id,\r\n        uint256 amount,\r\n        bytes memory data\r\n    ) internal virtual {\r\n        require(to != address(0), \"ERC1155: mint to the zero address\");\r\n\r\n        address operator = _msgSender();\r\n\r\n        _beforeTokenTransfer(operator, address(0), to, _asSingletonArray(id), _asSingletonArray(amount), data);\r\n\r\n        _balances[id][to] += amount;\r\n        _tokenOwner[id] = to;\r\n        emit TransferSingle(operator, address(0), to, id, amount);\r\n\r\n        _doSafeTransferAcceptanceCheck(operator, address(0), to, id, amount, data);\r\n    }\r\n\r\n    /**\r\n     * @dev xref:ROOT:erc1155.adoc#batch-operations[Batched] version of {_mint}.\r\n     *\r\n     * Requirements:\r\n     *\r\n     * - `ids` and `amounts` must have the same length.\r\n     * - If `to` refers to a smart contract, it must implement {IERC1155Receiver-onERC1155BatchReceived} and return the\r\n     * acceptance magic value.\r\n     */\r\n    function _mintBatch(\r\n        address to,\r\n        uint256[] memory ids,\r\n        uint256[] memory amounts,\r\n        bytes memory data\r\n    ) internal virtual {\r\n        require(to != address(0), \"ERC1155: mint to the zero address\");\r\n        require(ids.length == amounts.length, \"ERC1155: ids and amounts length mismatch\");\r\n\r\n        address operator = _msgSender();\r\n\r\n        _beforeTokenTransfer(operator, address(0), to, ids, amounts, data);\r\n\r\n        for (uint256 i = 0; i < ids.length; i++) {\r\n            _balances[ids[i]][to] += amounts[i];\r\n        }\r\n\r\n        emit TransferBatch(operator, address(0), to, ids, amounts);\r\n\r\n        _doSafeBatchTransferAcceptanceCheck(operator, address(0), to, ids, amounts, data);\r\n    }\r\n\r\n    /**\r\n     * @dev Destroys `amount` tokens of token type `id` from `from`\r\n     *\r\n     * Requirements:\r\n     *\r\n     * - `from` cannot be the zero address.\r\n     * - `from` must have at least `amount` tokens of token type `id`.\r\n     */\r\n    function _burn(\r\n        address from,\r\n        uint256 id,\r\n        uint256 amount\r\n    ) internal virtual {\r\n        require(from != address(0), \"ERC1155: burn from the zero address\");\r\n\r\n        address operator = _msgSender();\r\n\r\n        _beforeTokenTransfer(operator, from, address(0), _asSingletonArray(id), _asSingletonArray(amount), \"\");\r\n\r\n        uint256 fromBalance = _balances[id][from];\r\n        require(fromBalance >= amount, \"ERC1155: burn amount exceeds balance\");\r\n        unchecked {\r\n            _balances[id][from] = fromBalance - amount;\r\n        }\r\n\r\n        emit TransferSingle(operator, from, address(0), id, amount);\r\n    }\r\n\r\n    /**\r\n     * @dev xref:ROOT:erc1155.adoc#batch-operations[Batched] version of {_burn}.\r\n     *\r\n     * Requirements:\r\n     *\r\n     * - `ids` and `amounts` must have the same length.\r\n     */\r\n    function _burnBatch(\r\n        address from,\r\n        uint256[] memory ids,\r\n        uint256[] memory amounts\r\n    ) internal virtual {\r\n        require(from != address(0), \"ERC1155: burn from the zero address\");\r\n        require(ids.length == amounts.length, \"ERC1155: ids and amounts length mismatch\");\r\n\r\n        address operator = _msgSender();\r\n\r\n        _beforeTokenTransfer(operator, from, address(0), ids, amounts, \"\");\r\n\r\n        for (uint256 i = 0; i < ids.length; i++) {\r\n            uint256 id = ids[i];\r\n            uint256 amount = amounts[i];\r\n\r\n            uint256 fromBalance = _balances[id][from];\r\n            require(fromBalance >= amount, \"ERC1155: burn amount exceeds balance\");\r\n            unchecked {\r\n                _balances[id][from] = fromBalance - amount;\r\n            }\r\n        }\r\n\r\n        emit TransferBatch(operator, from, address(0), ids, amounts);\r\n    }\r\n\r\n    /**\r\n     * @dev Approve `operator` to operate on all of `owner` tokens\r\n     *\r\n     * Emits a {ApprovalForAll} event.\r\n     */\r\n    function _setApprovalForAll(\r\n        address owner,\r\n        address operator,\r\n        bool approved\r\n    ) internal virtual {\r\n        require(owner != operator, \"ERC1155: setting approval status for self\");\r\n        _operatorApprovals[owner][operator] = approved;\r\n        emit ApprovalForAll(owner, operator, approved);\r\n    }\r\n\r\n    /**\r\n     * @dev Hook that is called before any token transfer. This includes minting\r\n     * and burning, as well as batched variants.\r\n     *\r\n     * The same hook is called on both single and batched variants. For single\r\n     * transfers, the length of the `id` and `amount` arrays will be 1.\r\n     *\r\n     * Calling conditions (for each `id` and `amount` pair):\r\n     *\r\n     * - When `from` and `to` are both non-zero, `amount` of ``from``'s tokens\r\n     * of token type `id` will be  transferred to `to`.\r\n     * - When `from` is zero, `amount` tokens of token type `id` will be minted\r\n     * for `to`.\r\n     * - when `to` is zero, `amount` of ``from``'s tokens of token type `id`\r\n     * will be burned.\r\n     * - `from` and `to` are never both zero.\r\n     * - `ids` and `amounts` have the same, non-zero length.\r\n     *\r\n     * To learn more about hooks, head to xref:ROOT:extending-contracts.adoc#using-hooks[Using Hooks].\r\n     */\r\n    function _beforeTokenTransfer(\r\n        address operator,\r\n        address from,\r\n        address to,\r\n        uint256[] memory ids,\r\n        uint256[] memory amounts,\r\n        bytes memory data\r\n    ) internal virtual {}\r\n\r\n    function _doSafeTransferAcceptanceCheck(\r\n        address operator,\r\n        address from,\r\n        address to,\r\n        uint256 id,\r\n        uint256 amount,\r\n        bytes memory data\r\n    ) private {\r\n        if (to.isContract()) {\r\n            try IERC1155Receiver(to).onERC1155Received(operator, from, id, amount, data) returns (bytes4 response) {\r\n                if (response != IERC1155Receiver.onERC1155Received.selector) {\r\n                    revert(\"ERC1155: ERC1155Receiver rejected tokens\");\r\n                }\r\n            } catch Error(string memory reason) {\r\n                revert(reason);\r\n            } catch {\r\n                revert(\"ERC1155: transfer to non ERC1155Receiver implementer\");\r\n            }\r\n        }\r\n    }\r\n\r\n    function _doSafeBatchTransferAcceptanceCheck(\r\n        address operator,\r\n        address from,\r\n        address to,\r\n        uint256[] memory ids,\r\n        uint256[] memory amounts,\r\n        bytes memory data\r\n    ) private {\r\n        if (to.isContract()) {\r\n            try IERC1155Receiver(to).onERC1155BatchReceived(operator, from, ids, amounts, data) returns (\r\n                bytes4 response\r\n            ) {\r\n                if (response != IERC1155Receiver.onERC1155BatchReceived.selector) {\r\n                    revert(\"ERC1155: ERC1155Receiver rejected tokens\");\r\n                }\r\n            } catch Error(string memory reason) {\r\n                revert(reason);\r\n            } catch {\r\n                revert(\"ERC1155: transfer to non ERC1155Receiver implementer\");\r\n            }\r\n        }\r\n    }\r\n\r\n    function _asSingletonArray(uint256 element) private pure returns (uint256[] memory) {\r\n        uint256[] memory array = new uint256[](1);\r\n        array[0] = element;\r\n\r\n        return array;\r\n    }\r\n\r\n    //****** Functions added by me *******\r\n    function _exists(uint256 tokenId) internal view returns (bool) {\r\n        address owner = _tokenOwner[tokenId];\r\n        return owner != address(0);\r\n    }\r\n\r\n    function _setTokenURI(uint256 tokenId, string memory tokenUri) internal {\r\n        require(_exists(tokenId), \"ERC721Metadata: URI set of nonexistent token\");\r\n        _tokenURIs[tokenId] = tokenUri;\r\n    }\r\n\r\n    function tokenURI(uint256 tokenId) external view returns (string memory) {\r\n        require(_exists(tokenId), \"ERC721Metadata: URI query for nonexistent token\");\r\n        return _tokenURIs[tokenId];\r\n    }\r\n\r\n    function tokenOwner(uint id) external view returns(address){\r\n        return _tokenOwner[id];\r\n    }\r\n}\r\n",
  "sourcePath": "D:\\blockchain\\marketplace\\tfg_market\\src\\contracts\\ERC19.sol",
  "compiler": {
    "name": "solc",
    "version": "0.8.10+commit.fc410830.Emscripten.clang"
  },
  "schemaVersion": "3.4.3",
  "updatedAt": "2022-02-13T14:32:54.229Z",
  "networkType": "ethereum",
  "devdoc": {
    "details": "Implementation of the basic standard multi-token. See https://eips.ethereum.org/EIPS/eip-1155 Originally based on code by Enjin: https://github.com/enjin/erc-1155 _Available since v3.1._",
    "kind": "dev",
    "methods": {
      "balanceOf(address,uint256)": {
        "details": "See {IERC1155-balanceOf}. Requirements: - `account` cannot be the zero address."
      },
      "balanceOfBatch(address[],uint256[])": {
        "details": "See {IERC1155-balanceOfBatch}. Requirements: - `accounts` and `ids` must have the same length."
      },
      "constructor": {
        "details": "See {_setURI}."
      },
      "isApprovedForAll(address,address)": {
        "details": "See {IERC1155-isApprovedForAll}."
      },
      "safeBatchTransferFrom(address,address,uint256[],uint256[],bytes)": {
        "details": "See {IERC1155-safeBatchTransferFrom}."
      },
      "safeTransferFrom(address,address,uint256,uint256,bytes)": {
        "details": "See {IERC1155-safeTransferFrom}."
      },
      "setApprovalForAll(address,bool)": {
        "details": "See {IERC1155-setApprovalForAll}."
      },
      "supportsInterface(bytes4)": {
        "details": "See {IERC165-supportsInterface}."
      },
      "uri(uint256)": {
        "details": "See {IERC1155MetadataURI-uri}. This implementation returns the same URI for *all* token types. It relies on the token type ID substitution mechanism https://eips.ethereum.org/EIPS/eip-1155#metadata[defined in the EIP]. Clients calling this function must replace the `\\{id\\}` substring with the actual token type ID."
      }
    },
    "version": 1
  },
  "userdoc": {
    "kind": "user",
    "methods": {},
    "version": 1
  }
}