{
  "contractName": "My_NFT",
  "abi": [
    {
      "inputs": [],
      "stateMutability": "nonpayable",
      "type": "constructor"
    },
    {
      "anonymous": false,
      "inputs": [
        {
          "indexed": true,
          "internalType": "address",
          "name": "account",
          "type": "address"
        },
        {
          "indexed": true,
          "internalType": "address",
          "name": "operator",
          "type": "address"
        },
        {
          "indexed": false,
          "internalType": "bool",
          "name": "approved",
          "type": "bool"
        }
      ],
      "name": "ApprovalForAll",
      "type": "event"
    },
    {
      "anonymous": false,
      "inputs": [
        {
          "indexed": true,
          "internalType": "address",
          "name": "operator",
          "type": "address"
        },
        {
          "indexed": true,
          "internalType": "address",
          "name": "from",
          "type": "address"
        },
        {
          "indexed": true,
          "internalType": "address",
          "name": "to",
          "type": "address"
        },
        {
          "indexed": false,
          "internalType": "uint256[]",
          "name": "ids",
          "type": "uint256[]"
        },
        {
          "indexed": false,
          "internalType": "uint256[]",
          "name": "values",
          "type": "uint256[]"
        }
      ],
      "name": "TransferBatch",
      "type": "event"
    },
    {
      "anonymous": false,
      "inputs": [
        {
          "indexed": true,
          "internalType": "address",
          "name": "operator",
          "type": "address"
        },
        {
          "indexed": true,
          "internalType": "address",
          "name": "from",
          "type": "address"
        },
        {
          "indexed": true,
          "internalType": "address",
          "name": "to",
          "type": "address"
        },
        {
          "indexed": false,
          "internalType": "uint256",
          "name": "id",
          "type": "uint256"
        },
        {
          "indexed": false,
          "internalType": "uint256",
          "name": "value",
          "type": "uint256"
        }
      ],
      "name": "TransferSingle",
      "type": "event"
    },
    {
      "anonymous": false,
      "inputs": [
        {
          "indexed": false,
          "internalType": "string",
          "name": "value",
          "type": "string"
        },
        {
          "indexed": true,
          "internalType": "uint256",
          "name": "id",
          "type": "uint256"
        }
      ],
      "name": "URI",
      "type": "event"
    },
    {
      "inputs": [
        {
          "internalType": "address",
          "name": "account",
          "type": "address"
        },
        {
          "internalType": "uint256",
          "name": "id",
          "type": "uint256"
        }
      ],
      "name": "balanceOf",
      "outputs": [
        {
          "internalType": "uint256",
          "name": "",
          "type": "uint256"
        }
      ],
      "stateMutability": "view",
      "type": "function",
      "constant": true
    },
    {
      "inputs": [
        {
          "internalType": "address[]",
          "name": "accounts",
          "type": "address[]"
        },
        {
          "internalType": "uint256[]",
          "name": "ids",
          "type": "uint256[]"
        }
      ],
      "name": "balanceOfBatch",
      "outputs": [
        {
          "internalType": "uint256[]",
          "name": "",
          "type": "uint256[]"
        }
      ],
      "stateMutability": "view",
      "type": "function",
      "constant": true
    },
    {
      "inputs": [
        {
          "internalType": "address",
          "name": "account",
          "type": "address"
        },
        {
          "internalType": "address",
          "name": "operator",
          "type": "address"
        }
      ],
      "name": "isApprovedForAll",
      "outputs": [
        {
          "internalType": "bool",
          "name": "",
          "type": "bool"
        }
      ],
      "stateMutability": "view",
      "type": "function",
      "constant": true
    },
    {
      "inputs": [
        {
          "internalType": "address",
          "name": "from",
          "type": "address"
        },
        {
          "internalType": "address",
          "name": "to",
          "type": "address"
        },
        {
          "internalType": "uint256[]",
          "name": "ids",
          "type": "uint256[]"
        },
        {
          "internalType": "uint256[]",
          "name": "amounts",
          "type": "uint256[]"
        },
        {
          "internalType": "bytes",
          "name": "data",
          "type": "bytes"
        }
      ],
      "name": "safeBatchTransferFrom",
      "outputs": [],
      "stateMutability": "nonpayable",
      "type": "function"
    },
    {
      "inputs": [
        {
          "internalType": "address",
          "name": "from",
          "type": "address"
        },
        {
          "internalType": "address",
          "name": "to",
          "type": "address"
        },
        {
          "internalType": "uint256",
          "name": "id",
          "type": "uint256"
        },
        {
          "internalType": "uint256",
          "name": "amount",
          "type": "uint256"
        },
        {
          "internalType": "bytes",
          "name": "data",
          "type": "bytes"
        }
      ],
      "name": "safeTransferFrom",
      "outputs": [],
      "stateMutability": "nonpayable",
      "type": "function"
    },
    {
      "inputs": [
        {
          "internalType": "address",
          "name": "operator",
          "type": "address"
        },
        {
          "internalType": "bool",
          "name": "approved",
          "type": "bool"
        }
      ],
      "name": "setApprovalForAll",
      "outputs": [],
      "stateMutability": "nonpayable",
      "type": "function"
    },
    {
      "inputs": [
        {
          "internalType": "bytes4",
          "name": "interfaceId",
          "type": "bytes4"
        }
      ],
      "name": "supportsInterface",
      "outputs": [
        {
          "internalType": "bool",
          "name": "",
          "type": "bool"
        }
      ],
      "stateMutability": "view",
      "type": "function",
      "constant": true
    },
    {
      "inputs": [
        {
          "internalType": "uint256",
          "name": "id",
          "type": "uint256"
        }
      ],
      "name": "tokenOwner",
      "outputs": [
        {
          "internalType": "address",
          "name": "",
          "type": "address"
        }
      ],
      "stateMutability": "view",
      "type": "function",
      "constant": true
    },
    {
      "inputs": [
        {
          "internalType": "uint256",
          "name": "tokenId",
          "type": "uint256"
        }
      ],
      "name": "tokenURI",
      "outputs": [
        {
          "internalType": "string",
          "name": "",
          "type": "string"
        }
      ],
      "stateMutability": "view",
      "type": "function",
      "constant": true
    },
    {
      "inputs": [
        {
          "internalType": "uint256",
          "name": "",
          "type": "uint256"
        }
      ],
      "name": "uri",
      "outputs": [
        {
          "internalType": "string",
          "name": "",
          "type": "string"
        }
      ],
      "stateMutability": "view",
      "type": "function",
      "constant": true
    },
    {
      "inputs": [
        {
          "internalType": "string",
          "name": "tokenURI",
          "type": "string"
        },
        {
          "internalType": "uint256",
          "name": "tokenId",
          "type": "uint256"
        },
        {
          "internalType": "uint256",
          "name": "amount",
          "type": "uint256"
        },
        {
          "internalType": "string",
          "name": "property",
          "type": "string"
        },
        {
          "internalType": "uint256",
          "name": "price",
          "type": "uint256"
        }
      ],
      "name": "mint",
      "outputs": [
        {
          "internalType": "uint256",
          "name": "",
          "type": "uint256"
        }
      ],
      "stateMutability": "nonpayable",
      "type": "function"
    },
    {
      "inputs": [],
      "name": "getItemsOnSale",
      "outputs": [
        {
          "components": [
            {
              "internalType": "uint256",
              "name": "tokenId",
              "type": "uint256"
            },
            {
              "internalType": "address",
              "name": "nftContract",
              "type": "address"
            },
            {
              "internalType": "address payable",
              "name": "owner",
              "type": "address"
            },
            {
              "internalType": "address payable",
              "name": "creator",
              "type": "address"
            },
            {
              "internalType": "uint256",
              "name": "amount",
              "type": "uint256"
            },
            {
              "internalType": "string",
              "name": "property",
              "type": "string"
            },
            {
              "internalType": "uint256",
              "name": "price",
              "type": "uint256"
            },
            {
              "internalType": "bool",
              "name": "sold",
              "type": "bool"
            }
          ],
          "internalType": "struct My_NFT.Item[]",
          "name": "",
          "type": "tuple[]"
        }
      ],
      "stateMutability": "view",
      "type": "function",
      "constant": true
    },
    {
      "inputs": [],
      "name": "getMyItems",
      "outputs": [
        {
          "components": [
            {
              "internalType": "uint256",
              "name": "tokenId",
              "type": "uint256"
            },
            {
              "internalType": "address",
              "name": "nftContract",
              "type": "address"
            },
            {
              "internalType": "address payable",
              "name": "owner",
              "type": "address"
            },
            {
              "internalType": "address payable",
              "name": "creator",
              "type": "address"
            },
            {
              "internalType": "uint256",
              "name": "amount",
              "type": "uint256"
            },
            {
              "internalType": "string",
              "name": "property",
              "type": "string"
            },
            {
              "internalType": "uint256",
              "name": "price",
              "type": "uint256"
            },
            {
              "internalType": "bool",
              "name": "sold",
              "type": "bool"
            }
          ],
          "internalType": "struct My_NFT.Item[]",
          "name": "",
          "type": "tuple[]"
        }
      ],
      "stateMutability": "view",
      "type": "function",
      "constant": true
    },
    {
      "inputs": [
        {
          "internalType": "uint256",
          "name": "tokenId",
          "type": "uint256"
        }
      ],
      "name": "isOwner",
      "outputs": [
        {
          "internalType": "bool",
          "name": "",
          "type": "bool"
        }
      ],
      "stateMutability": "view",
      "type": "function",
      "constant": true
    },
    {
      "inputs": [
        {
          "internalType": "uint256",
          "name": "tokenId",
          "type": "uint256"
        }
      ],
      "name": "buyNft",
      "outputs": [],
      "stateMutability": "payable",
      "type": "function",
      "payable": true
    },
    {
      "inputs": [
        {
          "internalType": "uint256",
          "name": "tokenId",
          "type": "uint256"
        },
        {
          "internalType": "uint256",
          "name": "price",
          "type": "uint256"
        }
      ],
      "name": "addToMarket",
      "outputs": [],
      "stateMutability": "nonpayable",
      "type": "function"
    },
    {
      "inputs": [
        {
          "internalType": "uint256",
          "name": "tokenId",
          "type": "uint256"
        }
      ],
      "name": "removeFromMarket",
      "outputs": [],
      "stateMutability": "nonpayable",
      "type": "function"
    },
    {
      "inputs": [
        {
          "internalType": "uint256",
          "name": "tokenId",
          "type": "uint256"
        }
      ],
      "name": "burn",
      "outputs": [],
      "stateMutability": "nonpayable",
      "type": "function"
    }
  ],
  "bytecode": "0x60806040523480156200001157600080fd5b50604051806060016040528060218152602001620055f7602191396200003d816200008560201b60201c565b5033600760006101000a81548173ffffffffffffffffffffffffffffffffffffffff021916908373ffffffffffffffffffffffffffffffffffffffff160217905550620001b6565b80600490805190602001906200009d929190620000a1565b5050565b828054620000af9062000180565b90600052602060002090601f016020900481019282620000d357600085556200011f565b82601f10620000ee57805160ff19168380011785556200011f565b828001600101855582156200011f579182015b828111156200011e57825182559160200191906001019062000101565b5b5090506200012e919062000132565b5090565b5b808211156200014d57600081600090555060010162000133565b5090565b7f4e487b7100000000000000000000000000000000000000000000000000000000600052602260045260246000fd5b600060028204905060018216806200019957607f821691505b60208210811415620001b057620001af62000151565b5b50919050565b61543180620001c66000396000f3fe6080604052600436106101085760003560e01c80636457bd0411610095578063c37925e411610064578063c37925e41461038f578063c5fb207d146103cc578063c87b56dd146103f7578063e985e9c514610434578063f242432a1461047157610108565b80636457bd04146102e95780637fb5f7a614610312578063a22cb4651461033b578063bbcbc2e71461036457610108565b8063243adbdd116100dc578063243adbdd146102015780632eb2c2d61461021d57806339c7639c1461024657806342966c68146102835780634e1273f4146102ac57610108565b8062fdd58e1461010d57806301ffc9a71461014a5780630e89341c146101875780631caaa487146101c4575b600080fd5b34801561011957600080fd5b50610134600480360381019061012f9190613677565b61049a565b60405161014191906136c6565b60405180910390f35b34801561015657600080fd5b50610171600480360381019061016c9190613739565b610563565b60405161017e9190613781565b60405180910390f35b34801561019357600080fd5b506101ae60048036038101906101a9919061379c565b610645565b6040516101bb9190613862565b60405180910390f35b3480156101d057600080fd5b506101eb60048036038101906101e6919061379c565b6106d9565b6040516101f89190613893565b60405180910390f35b61021b6004803603810190610216919061379c565b610716565b005b34801561022957600080fd5b50610244600480360381019061023f9190613aab565b610cc7565b005b34801561025257600080fd5b5061026d6004803603810190610268919061379c565b610d68565b60405161027a9190613781565b60405180910390f35b34801561028f57600080fd5b506102aa60048036038101906102a5919061379c565b610dcf565b005b3480156102b857600080fd5b506102d360048036038101906102ce9190613c3d565b611119565b6040516102e09190613d73565b60405180910390f35b3480156102f557600080fd5b50610310600480360381019061030b919061379c565b611232565b005b34801561031e57600080fd5b5061033960048036038101906103349190613d95565b61138a565b005b34801561034757600080fd5b50610362600480360381019061035d9190613e01565b6114fe565b005b34801561037057600080fd5b50610379611514565b604051610386919061403c565b60405180910390f35b34801561039b57600080fd5b506103b660048036038101906103b191906140ff565b611823565b6040516103c391906136c6565b60405180910390f35b3480156103d857600080fd5b506103e1611cef565b6040516103ee919061403c565b60405180910390f35b34801561040357600080fd5b5061041e6004803603810190610419919061379c565b612079565b60405161042b9190613862565b60405180910390f35b34801561044057600080fd5b5061045b600480360381019061045691906141b2565b612166565b6040516104689190613781565b60405180910390f35b34801561047d57600080fd5b50610498600480360381019061049391906141f2565b6121fa565b005b60008073ffffffffffffffffffffffffffffffffffffffff168373ffffffffffffffffffffffffffffffffffffffff16141561050b576040517f08c379a0000000000000000000000000000000000000000000000000000000008152600401610502906142fb565b60405180910390fd5b60008083815260200190815260200160002060008473ffffffffffffffffffffffffffffffffffffffff1673ffffffffffffffffffffffffffffffffffffffff16815260200190815260200160002054905092915050565b60007fd9b67a26000000000000000000000000000000000000000000000000000000007bffffffffffffffffffffffffffffffffffffffffffffffffffffffff1916827bffffffffffffffffffffffffffffffffffffffffffffffffffffffff1916148061062e57507f0e89341c000000000000000000000000000000000000000000000000000000007bffffffffffffffffffffffffffffffffffffffffffffffffffffffff1916827bffffffffffffffffffffffffffffffffffffffffffffffffffffffff1916145b8061063e575061063d8261220e565b5b9050919050565b6060600480546106549061434a565b80601f01602080910402602001604051908101604052809291908181526020018280546106809061434a565b80156106cd5780601f106106a2576101008083540402835291602001916106cd565b820191906000526020600020905b8154815290600101906020018083116106b057829003601f168201915b50505050509050919050565b60006003600083815260200190815260200160002060009054906101000a900473ffffffffffffffffffffffffffffffffffffffff169050919050565b600115156008600083815260200190815260200160002060009054906101000a900460ff1615151461077d576040517f08c379a0000000000000000000000000000000000000000000000000000000008152600401610774906143c8565b60405180910390fd5b6000600c60008381526020019081526020016000206006015490506000600c600084815260200190815260200160002060020160009054906101000a900473ffffffffffffffffffffffffffffffffffffffff169050813414610815576040517f08c379a000000000000000000000000000000000000000000000000000000000815260040161080c9061445a565b60405180910390fd5b6000600c600085815260200190815260200160002060030160009054906101000a900473ffffffffffffffffffffffffffffffffffffffff1690508173ffffffffffffffffffffffffffffffffffffffff168173ffffffffffffffffffffffffffffffffffffffff16141561090657600c600085815260200190815260200160002060020160009054906101000a900473ffffffffffffffffffffffffffffffffffffffff1673ffffffffffffffffffffffffffffffffffffffff166108fc349081150290604051600060405180830381858888f19350505050158015610900573d6000803e3d6000fd5b50610a1c565b6000666a94d74f4300009050808461091e91906144a9565b9350600c600086815260200190815260200160002060030160009054906101000a900473ffffffffffffffffffffffffffffffffffffffff1673ffffffffffffffffffffffffffffffffffffffff166108fc829081150290604051600060405180830381858888f1935050505015801561099c573d6000803e3d6000fd5b50600c600086815260200190815260200160002060020160009054906101000a900473ffffffffffffffffffffffffffffffffffffffff1673ffffffffffffffffffffffffffffffffffffffff166108fc859081150290604051600060405180830381858888f19350505050158015610a19573d6000803e3d6000fd5b50505b610a398233866001604051806020016040528060008152506121fa565b33600c600086815260200190815260200160002060020160006101000a81548173ffffffffffffffffffffffffffffffffffffffff021916908373ffffffffffffffffffffffffffffffffffffffff1602179055506000600960008473ffffffffffffffffffffffffffffffffffffffff1673ffffffffffffffffffffffffffffffffffffffff168152602001908152602001600020600086815260200190815260200160002060006101000a81548160ff0219169083151502179055506001600960003373ffffffffffffffffffffffffffffffffffffffff1673ffffffffffffffffffffffffffffffffffffffff168152602001908152602001600020600086815260200190815260200160002060006101000a81548160ff021916908315150217905550600b60008373ffffffffffffffffffffffffffffffffffffffff1673ffffffffffffffffffffffffffffffffffffffff1681526020019081526020016000206000815480929190610bb0906144dd565b9190505550600b60003373ffffffffffffffffffffffffffffffffffffffff1673ffffffffffffffffffffffffffffffffffffffff1681526020019081526020016000206000815480929190610c0590614507565b9190505550610c148285612278565b600a60003373ffffffffffffffffffffffffffffffffffffffff1673ffffffffffffffffffffffffffffffffffffffff1681526020019081526020016000208490806001815401808255809150506001900390600052602060002001600090919091909150556001600c600086815260200190815260200160002060070160006101000a81548160ff02191690831515021790555060056000815480929190610cbc906144dd565b919050555050505050565b610ccf6123a6565b73ffffffffffffffffffffffffffffffffffffffff168573ffffffffffffffffffffffffffffffffffffffff161480610d155750610d1485610d0f6123a6565b612166565b5b610d54576040517f08c379a0000000000000000000000000000000000000000000000000000000008152600401610d4b906145c2565b60405180910390fd5b610d6185858585856123ae565b5050505050565b6000600960003373ffffffffffffffffffffffffffffffffffffffff1673ffffffffffffffffffffffffffffffffffffffff168152602001908152602001600020600083815260200190815260200160002060009054906101000a900460ff169050919050565b600115156008600083815260200190815260200160002060009054906101000a900460ff16151514610e36576040517f08c379a0000000000000000000000000000000000000000000000000000000008152600401610e2d9061462e565b60405180910390fd5b60011515600c600083815260200190815260200160002060070160009054906101000a900460ff16151514610ea0576040517f08c379a0000000000000000000000000000000000000000000000000000000008152600401610e979061469a565b60405180910390fd5b60011515600960003373ffffffffffffffffffffffffffffffffffffffff1673ffffffffffffffffffffffffffffffffffffffff168152602001908152602001600020600083815260200190815260200160002060009054906101000a900460ff16151514610f44576040517f08c379a0000000000000000000000000000000000000000000000000000000008152600401610f3b9061472c565b60405180910390fd5b610f50338260016126c2565b60006008600083815260200190815260200160002060006101000a81548160ff0219169083151502179055506000600960003373ffffffffffffffffffffffffffffffffffffffff1673ffffffffffffffffffffffffffffffffffffffff168152602001908152602001600020600083815260200190815260200160002060006101000a81548160ff021916908315150217905550610fef3382612278565b6001600b60003373ffffffffffffffffffffffffffffffffffffffff1673ffffffffffffffffffffffffffffffffffffffff168152602001908152602001600020600082825461103f91906144a9565b92505081905550600c60008281526020019081526020016000206000808201600090556001820160006101000a81549073ffffffffffffffffffffffffffffffffffffffff02191690556002820160006101000a81549073ffffffffffffffffffffffffffffffffffffffff02191690556003820160006101000a81549073ffffffffffffffffffffffffffffffffffffffff021916905560048201600090556005820160006110ef9190613463565b60068201600090556007820160006101000a81549060ff02191690555050611116816128df565b50565b6060815183511461115f576040517f08c379a0000000000000000000000000000000000000000000000000000000008152600401611156906147be565b60405180910390fd5b6000835167ffffffffffffffff81111561117c5761117b6138b3565b5b6040519080825280602002602001820160405280156111aa5781602001602082028036833780820191505090505b50905060005b8451811015611227576111f78582815181106111cf576111ce6147de565b5b60200260200101518583815181106111ea576111e96147de565b5b602002602001015161049a565b82828151811061120a576112096147de565b5b6020026020010181815250508061122090614507565b90506111b0565b508091505092915050565b60001515600c600083815260200190815260200160002060070160009054906101000a900460ff1615151461129c576040517f08c379a00000000000000000000000000000000000000000000000000000000081526004016112939061487f565b60405180910390fd5b60011515600960003373ffffffffffffffffffffffffffffffffffffffff1673ffffffffffffffffffffffffffffffffffffffff168152602001908152602001600020600083815260200190815260200160002060009054906101000a900460ff16151514611340576040517f08c379a0000000000000000000000000000000000000000000000000000000008152600401611337906148eb565b60405180910390fd5b6001600c600083815260200190815260200160002060070160006101000a81548160ff02191690831515021790555060056000815480929190611382906144dd565b919050555050565b60011515600c600084815260200190815260200160002060070160009054906101000a900460ff161515146113f4576040517f08c379a00000000000000000000000000000000000000000000000000000000081526004016113eb90614957565b60405180910390fd5b60011515600960003373ffffffffffffffffffffffffffffffffffffffff1673ffffffffffffffffffffffffffffffffffffffff168152602001908152602001600020600084815260200190815260200160002060009054906101000a900460ff16151514611498576040517f08c379a000000000000000000000000000000000000000000000000000000000815260040161148f906148eb565b60405180910390fd5b80600c6000848152602001908152602001600020600601819055506000600c600084815260200190815260200160002060070160006101000a81548160ff021916908315150217905550600560008154809291906114f590614507565b91905055505050565b6115106115096123a6565b8383612951565b5050565b6060600060055467ffffffffffffffff811115611534576115336138b3565b5b60405190808252806020026020018201604052801561156d57816020015b61155a6134a3565b8152602001906001900390816115525790505b5090506000600680549050905060008060005b83811015611818576006818154811061159c5761159b6147de565b5b906000526020600020015492506000600c600085815260200190815260200160002060070160009054906101000a900460ff169050801580156115e0575060008414155b15611804576000600c600086815260200190815260200160002060405180610100016040529081600082015481526020016001820160009054906101000a900473ffffffffffffffffffffffffffffffffffffffff1673ffffffffffffffffffffffffffffffffffffffff1673ffffffffffffffffffffffffffffffffffffffff1681526020016002820160009054906101000a900473ffffffffffffffffffffffffffffffffffffffff1673ffffffffffffffffffffffffffffffffffffffff1673ffffffffffffffffffffffffffffffffffffffff1681526020016003820160009054906101000a900473ffffffffffffffffffffffffffffffffffffffff1673ffffffffffffffffffffffffffffffffffffffff1673ffffffffffffffffffffffffffffffffffffffff1681526020016004820154815260200160058201805461172c9061434a565b80601f01602080910402602001604051908101604052809291908181526020018280546117589061434a565b80156117a55780601f1061177a576101008083540402835291602001916117a5565b820191906000526020600020905b81548152906001019060200180831161178857829003601f168201915b50505050508152602001600682015481526020016007820160009054906101000a900460ff1615151515815250509050808785815181106117e9576117e86147de565b5b602002602001018190525083806117ff90614507565b945050505b50808061181090614507565b915050611580565b508394505050505090565b600033600760009054906101000a900473ffffffffffffffffffffffffffffffffffffffff1673ffffffffffffffffffffffffffffffffffffffff168173ffffffffffffffffffffffffffffffffffffffff16146118b6576040517f08c379a00000000000000000000000000000000000000000000000000000000081526004016118ad906149c3565b60405180910390fd5b600015156008600088815260200190815260200160002060009054906101000a900460ff1615151461191d576040517f08c379a000000000000000000000000000000000000000000000000000000000815260040161191490614a2f565b60405180910390fd5b6000861415611961576040517f08c379a000000000000000000000000000000000000000000000000000000000815260040161195890614ac1565b60405180910390fd5b61197c33878760405180602001604052806000815250612abe565b6119868688612ca6565b60006040518061010001604052808881526020013073ffffffffffffffffffffffffffffffffffffffff1681526020013373ffffffffffffffffffffffffffffffffffffffff1681526020013373ffffffffffffffffffffffffffffffffffffffff16815260200187815260200186815260200185815260200160001515815250905080600c60008981526020019081526020016000206000820151816000015560208201518160010160006101000a81548173ffffffffffffffffffffffffffffffffffffffff021916908373ffffffffffffffffffffffffffffffffffffffff16021790555060408201518160020160006101000a81548173ffffffffffffffffffffffffffffffffffffffff021916908373ffffffffffffffffffffffffffffffffffffffff16021790555060608201518160030160006101000a81548173ffffffffffffffffffffffffffffffffffffffff021916908373ffffffffffffffffffffffffffffffffffffffff1602179055506080820151816004015560a0820151816005019080519060200190611b2292919061352c565b5060c0820151816006015560e08201518160070160006101000a81548160ff021916908315150217905550905050600687908060018154018082558091505060019003906000526020600020016000909190919091505560016008600089815260200190815260200160002060006101000a81548160ff0219169083151502179055506001600960003373ffffffffffffffffffffffffffffffffffffffff1673ffffffffffffffffffffffffffffffffffffffff168152602001908152602001600020600089815260200190815260200160002060006101000a81548160ff021916908315150217905550600a60003373ffffffffffffffffffffffffffffffffffffffff1673ffffffffffffffffffffffffffffffffffffffff168152602001908152602001600020879080600181540180825580915050600190039060005260206000200160009091909190915055600b60003373ffffffffffffffffffffffffffffffffffffffff1673ffffffffffffffffffffffffffffffffffffffff1681526020019081526020016000206000815480929190611cc490614507565b919050555060056000815480929190611cdc90614507565b9190505550869250505095945050505050565b60606000600b60003373ffffffffffffffffffffffffffffffffffffffff1673ffffffffffffffffffffffffffffffffffffffff16815260200190815260200160002054905060008167ffffffffffffffff811115611d5157611d506138b3565b5b604051908082528060200260200182016040528015611d8a57816020015b611d776134a3565b815260200190600190039081611d6f5790505b50905060006006805490509050600080611da26134a3565b6000805b8581101561206b5760068181548110611dc257611dc16147de565b5b90600052602060002001549450600c600086815260200190815260200160002060020160009054906101000a900473ffffffffffffffffffffffffffffffffffffffff1693503373ffffffffffffffffffffffffffffffffffffffff168473ffffffffffffffffffffffffffffffffffffffff16141561205857600c600086815260200190815260200160002060405180610100016040529081600082015481526020016001820160009054906101000a900473ffffffffffffffffffffffffffffffffffffffff1673ffffffffffffffffffffffffffffffffffffffff1673ffffffffffffffffffffffffffffffffffffffff1681526020016002820160009054906101000a900473ffffffffffffffffffffffffffffffffffffffff1673ffffffffffffffffffffffffffffffffffffffff1673ffffffffffffffffffffffffffffffffffffffff1681526020016003820160009054906101000a900473ffffffffffffffffffffffffffffffffffffffff1673ffffffffffffffffffffffffffffffffffffffff1673ffffffffffffffffffffffffffffffffffffffff16815260200160048201548152602001600582018054611f819061434a565b80601f0160208091040260200160405190810160405280929190818152602001828054611fad9061434a565b8015611ffa5780601f10611fcf57610100808354040283529160200191611ffa565b820191906000526020600020905b815481529060010190602001808311611fdd57829003601f168201915b50505050508152602001600682015481526020016007820160009054906101000a900460ff16151515158152505092508287838151811061203e5761203d6147de565b5b6020026020010181905250818061205490614507565b9250505b808061206390614507565b915050611da6565b508597505050505050505090565b606061208482612d1a565b6120c3576040517f08c379a00000000000000000000000000000000000000000000000000000000081526004016120ba90614b53565b60405180910390fd5b6002600083815260200190815260200160002080546120e19061434a565b80601f016020809104026020016040519081016040528092919081815260200182805461210d9061434a565b801561215a5780601f1061212f5761010080835404028352916020019161215a565b820191906000526020600020905b81548152906001019060200180831161213d57829003601f168201915b50505050509050919050565b6000600160008473ffffffffffffffffffffffffffffffffffffffff1673ffffffffffffffffffffffffffffffffffffffff16815260200190815260200160002060008373ffffffffffffffffffffffffffffffffffffffff1673ffffffffffffffffffffffffffffffffffffffff16815260200190815260200160002060009054906101000a900460ff16905092915050565b6122078585858585612d8c565b5050505050565b60007f01ffc9a7000000000000000000000000000000000000000000000000000000007bffffffffffffffffffffffffffffffffffffffffffffffffffffffff1916827bffffffffffffffffffffffffffffffffffffffffffffffffffffffff1916149050919050565b6000600a60008473ffffffffffffffffffffffffffffffffffffffff1673ffffffffffffffffffffffffffffffffffffffff16815260200190815260200160002080549050905060005b818110156123a05782600a60008673ffffffffffffffffffffffffffffffffffffffff1673ffffffffffffffffffffffffffffffffffffffff168152602001908152602001600020828154811061231c5761231b6147de565b5b9060005260206000200154141561238d57600a60008573ffffffffffffffffffffffffffffffffffffffff1673ffffffffffffffffffffffffffffffffffffffff168152602001908152602001600020818154811061237e5761237d6147de565b5b90600052602060002001600090555b808061239890614507565b9150506122c2565b50505050565b600033905090565b81518351146123f2576040517f08c379a00000000000000000000000000000000000000000000000000000000081526004016123e990614be5565b60405180910390fd5b600073ffffffffffffffffffffffffffffffffffffffff168473ffffffffffffffffffffffffffffffffffffffff161415612462576040517f08c379a000000000000000000000000000000000000000000000000000000000815260040161245990614c77565b60405180910390fd5b600061246c6123a6565b905061247c81878787878761300e565b60005b845181101561262d57600085828151811061249d5761249c6147de565b5b6020026020010151905060008583815181106124bc576124bb6147de565b5b60200260200101519050600080600084815260200190815260200160002060008b73ffffffffffffffffffffffffffffffffffffffff1673ffffffffffffffffffffffffffffffffffffffff1681526020019081526020016000205490508181101561255d576040517f08c379a000000000000000000000000000000000000000000000000000000000815260040161255490614d09565b60405180910390fd5b81810360008085815260200190815260200160002060008c73ffffffffffffffffffffffffffffffffffffffff1673ffffffffffffffffffffffffffffffffffffffff168152602001908152602001600020819055508160008085815260200190815260200160002060008b73ffffffffffffffffffffffffffffffffffffffff1673ffffffffffffffffffffffffffffffffffffffff16815260200190815260200160002060008282546126129190614d29565b925050819055505050508061262690614507565b905061247f565b508473ffffffffffffffffffffffffffffffffffffffff168673ffffffffffffffffffffffffffffffffffffffff168273ffffffffffffffffffffffffffffffffffffffff167f4a39dc06d4c0dbc64b70af90fd698a233a518aa5d07e595d983b8c0526c8f7fb87876040516126a4929190614d7f565b60405180910390a46126ba818787878787613016565b505050505050565b600073ffffffffffffffffffffffffffffffffffffffff168373ffffffffffffffffffffffffffffffffffffffff161415612732576040517f08c379a000000000000000000000000000000000000000000000000000000000815260040161272990614e28565b60405180910390fd5b600061273c6123a6565b905061276c8185600061274e876131ee565b612757876131ee565b6040518060200160405280600081525061300e565b600080600085815260200190815260200160002060008673ffffffffffffffffffffffffffffffffffffffff1673ffffffffffffffffffffffffffffffffffffffff16815260200190815260200160002054905082811015612803576040517f08c379a00000000000000000000000000000000000000000000000000000000081526004016127fa90614eba565b60405180910390fd5b82810360008086815260200190815260200160002060008773ffffffffffffffffffffffffffffffffffffffff1673ffffffffffffffffffffffffffffffffffffffff16815260200190815260200160002081905550600073ffffffffffffffffffffffffffffffffffffffff168573ffffffffffffffffffffffffffffffffffffffff168373ffffffffffffffffffffffffffffffffffffffff167fc3d58168c5ae7397731d063d5bbf3d657854427343f4c083240f7aacaa2d0f6287876040516128d0929190614eda565b60405180910390a45050505050565b60005b60068054905081101561294d578160068281548110612904576129036147de565b5b9060005260206000200154141561293a5760006006828154811061292b5761292a6147de565b5b90600052602060002001819055505b808061294590614507565b9150506128e2565b5050565b8173ffffffffffffffffffffffffffffffffffffffff168373ffffffffffffffffffffffffffffffffffffffff1614156129c0576040517f08c379a00000000000000000000000000000000000000000000000000000000081526004016129b790614f75565b60405180910390fd5b80600160008573ffffffffffffffffffffffffffffffffffffffff1673ffffffffffffffffffffffffffffffffffffffff16815260200190815260200160002060008473ffffffffffffffffffffffffffffffffffffffff1673ffffffffffffffffffffffffffffffffffffffff16815260200190815260200160002060006101000a81548160ff0219169083151502179055508173ffffffffffffffffffffffffffffffffffffffff168373ffffffffffffffffffffffffffffffffffffffff167f17307eab39ab6107e8899845ad3d59bd9653f200f220920489ca2b5937696c3183604051612ab19190613781565b60405180910390a3505050565b600073ffffffffffffffffffffffffffffffffffffffff168473ffffffffffffffffffffffffffffffffffffffff161415612b2e576040517f08c379a0000000000000000000000000000000000000000000000000000000008152600401612b2590615007565b60405180910390fd5b6000612b386123a6565b9050612b5981600087612b4a886131ee565b612b53886131ee565b8761300e565b8260008086815260200190815260200160002060008773ffffffffffffffffffffffffffffffffffffffff1673ffffffffffffffffffffffffffffffffffffffff1681526020019081526020016000206000828254612bb89190614d29565b92505081905550846003600086815260200190815260200160002060006101000a81548173ffffffffffffffffffffffffffffffffffffffff021916908373ffffffffffffffffffffffffffffffffffffffff1602179055508473ffffffffffffffffffffffffffffffffffffffff16600073ffffffffffffffffffffffffffffffffffffffff168273ffffffffffffffffffffffffffffffffffffffff167fc3d58168c5ae7397731d063d5bbf3d657854427343f4c083240f7aacaa2d0f628787604051612c88929190614eda565b60405180910390a4612c9f81600087878787613268565b5050505050565b612caf82612d1a565b612cee576040517f08c379a0000000000000000000000000000000000000000000000000000000008152600401612ce590615099565b60405180910390fd5b80600260008481526020019081526020016000209080519060200190612d1592919061352c565b505050565b6000806003600084815260200190815260200160002060009054906101000a900473ffffffffffffffffffffffffffffffffffffffff169050600073ffffffffffffffffffffffffffffffffffffffff168173ffffffffffffffffffffffffffffffffffffffff161415915050919050565b600073ffffffffffffffffffffffffffffffffffffffff168473ffffffffffffffffffffffffffffffffffffffff161415612dfc576040517f08c379a0000000000000000000000000000000000000000000000000000000008152600401612df390614c77565b60405180910390fd5b6000612e066123a6565b9050612e26818787612e17886131ee565b612e20886131ee565b8761300e565b600080600086815260200190815260200160002060008873ffffffffffffffffffffffffffffffffffffffff1673ffffffffffffffffffffffffffffffffffffffff16815260200190815260200160002054905083811015612ebd576040517f08c379a0000000000000000000000000000000000000000000000000000000008152600401612eb490614d09565b60405180910390fd5b83810360008087815260200190815260200160002060008973ffffffffffffffffffffffffffffffffffffffff1673ffffffffffffffffffffffffffffffffffffffff168152602001908152602001600020819055508360008087815260200190815260200160002060008873ffffffffffffffffffffffffffffffffffffffff1673ffffffffffffffffffffffffffffffffffffffff1681526020019081526020016000206000828254612f729190614d29565b925050819055508573ffffffffffffffffffffffffffffffffffffffff168773ffffffffffffffffffffffffffffffffffffffff168373ffffffffffffffffffffffffffffffffffffffff167fc3d58168c5ae7397731d063d5bbf3d657854427343f4c083240f7aacaa2d0f628888604051612fef929190614eda565b60405180910390a4613005828888888888613268565b50505050505050565b505050505050565b6130358473ffffffffffffffffffffffffffffffffffffffff16613440565b156131e6578373ffffffffffffffffffffffffffffffffffffffff1663bc197c8187878686866040518663ffffffff1660e01b815260040161307b95949392919061510e565b6020604051808303816000875af19250505080156130b757506040513d601f19601f820116820180604052508101906130b4919061518b565b60015b61315d576130c36151c5565b806308c379a0141561312057506130d86151e7565b806130e35750613122565b806040517f08c379a00000000000000000000000000000000000000000000000000000000081526004016131179190613862565b60405180910390fd5b505b6040517f08c379a0000000000000000000000000000000000000000000000000000000008152600401613154906152ef565b60405180910390fd5b63bc197c8160e01b7bffffffffffffffffffffffffffffffffffffffffffffffffffffffff1916817bffffffffffffffffffffffffffffffffffffffffffffffffffffffff1916146131e4576040517f08c379a00000000000000000000000000000000000000000000000000000000081526004016131db90615381565b60405180910390fd5b505b505050505050565b60606000600167ffffffffffffffff81111561320d5761320c6138b3565b5b60405190808252806020026020018201604052801561323b5781602001602082028036833780820191505090505b5090508281600081518110613253576132526147de565b5b60200260200101818152505080915050919050565b6132878473ffffffffffffffffffffffffffffffffffffffff16613440565b15613438578373ffffffffffffffffffffffffffffffffffffffff1663f23a6e6187878686866040518663ffffffff1660e01b81526004016132cd9594939291906153a1565b6020604051808303816000875af192505050801561330957506040513d601f19601f82011682018060405250810190613306919061518b565b60015b6133af576133156151c5565b806308c379a01415613372575061332a6151e7565b806133355750613374565b806040517f08c379a00000000000000000000000000000000000000000000000000000000081526004016133699190613862565b60405180910390fd5b505b6040517f08c379a00000000000000000000000000000000000000000000000000000000081526004016133a6906152ef565b60405180910390fd5b63f23a6e6160e01b7bffffffffffffffffffffffffffffffffffffffffffffffffffffffff1916817bffffffffffffffffffffffffffffffffffffffffffffffffffffffff191614613436576040517f08c379a000000000000000000000000000000000000000000000000000000000815260040161342d90615381565b60405180910390fd5b505b505050505050565b6000808273ffffffffffffffffffffffffffffffffffffffff163b119050919050565b50805461346f9061434a565b6000825580601f1061348157506134a0565b601f01602090049060005260206000209081019061349f91906135b2565b5b50565b60405180610100016040528060008152602001600073ffffffffffffffffffffffffffffffffffffffff168152602001600073ffffffffffffffffffffffffffffffffffffffff168152602001600073ffffffffffffffffffffffffffffffffffffffff1681526020016000815260200160608152602001600081526020016000151581525090565b8280546135389061434a565b90600052602060002090601f01602090048101928261355a57600085556135a1565b82601f1061357357805160ff19168380011785556135a1565b828001600101855582156135a1579182015b828111156135a0578251825591602001919060010190613585565b5b5090506135ae91906135b2565b5090565b5b808211156135cb5760008160009055506001016135b3565b5090565b6000604051905090565b600080fd5b600080fd5b600073ffffffffffffffffffffffffffffffffffffffff82169050919050565b600061360e826135e3565b9050919050565b61361e81613603565b811461362957600080fd5b50565b60008135905061363b81613615565b92915050565b6000819050919050565b61365481613641565b811461365f57600080fd5b50565b6000813590506136718161364b565b92915050565b6000806040838503121561368e5761368d6135d9565b5b600061369c8582860161362c565b92505060206136ad85828601613662565b9150509250929050565b6136c081613641565b82525050565b60006020820190506136db60008301846136b7565b92915050565b60007fffffffff0000000000000000000000000000000000000000000000000000000082169050919050565b613716816136e1565b811461372157600080fd5b50565b6000813590506137338161370d565b92915050565b60006020828403121561374f5761374e6135d9565b5b600061375d84828501613724565b91505092915050565b60008115159050919050565b61377b81613766565b82525050565b60006020820190506137966000830184613772565b92915050565b6000602082840312156137b2576137b16135d9565b5b60006137c084828501613662565b91505092915050565b600081519050919050565b600082825260208201905092915050565b60005b838110156138035780820151818401526020810190506137e8565b83811115613812576000848401525b50505050565b6000601f19601f8301169050919050565b6000613834826137c9565b61383e81856137d4565b935061384e8185602086016137e5565b61385781613818565b840191505092915050565b6000602082019050818103600083015261387c8184613829565b905092915050565b61388d81613603565b82525050565b60006020820190506138a86000830184613884565b92915050565b600080fd5b7f4e487b7100000000000000000000000000000000000000000000000000000000600052604160045260246000fd5b6138eb82613818565b810181811067ffffffffffffffff8211171561390a576139096138b3565b5b80604052505050565b600061391d6135cf565b905061392982826138e2565b919050565b600067ffffffffffffffff821115613949576139486138b3565b5b602082029050602081019050919050565b600080fd5b600061397261396d8461392e565b613913565b905080838252602082019050602084028301858111156139955761399461395a565b5b835b818110156139be57806139aa8882613662565b845260208401935050602081019050613997565b5050509392505050565b600082601f8301126139dd576139dc6138ae565b5b81356139ed84826020860161395f565b91505092915050565b600080fd5b600067ffffffffffffffff821115613a1657613a156138b3565b5b613a1f82613818565b9050602081019050919050565b82818337600083830152505050565b6000613a4e613a49846139fb565b613913565b905082815260208101848484011115613a6a57613a696139f6565b5b613a75848285613a2c565b509392505050565b600082601f830112613a9257613a916138ae565b5b8135613aa2848260208601613a3b565b91505092915050565b600080600080600060a08688031215613ac757613ac66135d9565b5b6000613ad58882890161362c565b9550506020613ae68882890161362c565b945050604086013567ffffffffffffffff811115613b0757613b066135de565b5b613b13888289016139c8565b935050606086013567ffffffffffffffff811115613b3457613b336135de565b5b613b40888289016139c8565b925050608086013567ffffffffffffffff811115613b6157613b606135de565b5b613b6d88828901613a7d565b9150509295509295909350565b600067ffffffffffffffff821115613b9557613b946138b3565b5b602082029050602081019050919050565b6000613bb9613bb484613b7a565b613913565b90508083825260208201905060208402830185811115613bdc57613bdb61395a565b5b835b81811015613c055780613bf1888261362c565b845260208401935050602081019050613bde565b5050509392505050565b600082601f830112613c2457613c236138ae565b5b8135613c34848260208601613ba6565b91505092915050565b60008060408385031215613c5457613c536135d9565b5b600083013567ffffffffffffffff811115613c7257613c716135de565b5b613c7e85828601613c0f565b925050602083013567ffffffffffffffff811115613c9f57613c9e6135de565b5b613cab858286016139c8565b9150509250929050565b600081519050919050565b600082825260208201905092915050565b6000819050602082019050919050565b613cea81613641565b82525050565b6000613cfc8383613ce1565b60208301905092915050565b6000602082019050919050565b6000613d2082613cb5565b613d2a8185613cc0565b9350613d3583613cd1565b8060005b83811015613d66578151613d4d8882613cf0565b9750613d5883613d08565b925050600181019050613d39565b5085935050505092915050565b60006020820190508181036000830152613d8d8184613d15565b905092915050565b60008060408385031215613dac57613dab6135d9565b5b6000613dba85828601613662565b9250506020613dcb85828601613662565b9150509250929050565b613dde81613766565b8114613de957600080fd5b50565b600081359050613dfb81613dd5565b92915050565b60008060408385031215613e1857613e176135d9565b5b6000613e268582860161362c565b9250506020613e3785828601613dec565b9150509250929050565b600081519050919050565b600082825260208201905092915050565b6000819050602082019050919050565b613e7681613603565b82525050565b6000613e87826135e3565b9050919050565b613e9781613e7c565b82525050565b600082825260208201905092915050565b6000613eb9826137c9565b613ec38185613e9d565b9350613ed38185602086016137e5565b613edc81613818565b840191505092915050565b613ef081613766565b82525050565b600061010083016000830151613f0f6000860182613ce1565b506020830151613f226020860182613e6d565b506040830151613f356040860182613e8e565b506060830151613f486060860182613e8e565b506080830151613f5b6080860182613ce1565b5060a083015184820360a0860152613f738282613eae565b91505060c0830151613f8860c0860182613ce1565b5060e0830151613f9b60e0860182613ee7565b508091505092915050565b6000613fb28383613ef6565b905092915050565b6000602082019050919050565b6000613fd282613e41565b613fdc8185613e4c565b935083602082028501613fee85613e5d565b8060005b8581101561402a578484038952815161400b8582613fa6565b945061401683613fba565b925060208a01995050600181019050613ff2565b50829750879550505050505092915050565b600060208201905081810360008301526140568184613fc7565b905092915050565b600067ffffffffffffffff821115614079576140786138b3565b5b61408282613818565b9050602081019050919050565b60006140a261409d8461405e565b613913565b9050828152602081018484840111156140be576140bd6139f6565b5b6140c9848285613a2c565b509392505050565b600082601f8301126140e6576140e56138ae565b5b81356140f684826020860161408f565b91505092915050565b600080600080600060a0868803121561411b5761411a6135d9565b5b600086013567ffffffffffffffff811115614139576141386135de565b5b614145888289016140d1565b955050602061415688828901613662565b945050604061416788828901613662565b935050606086013567ffffffffffffffff811115614188576141876135de565b5b614194888289016140d1565b92505060806141a588828901613662565b9150509295509295909350565b600080604083850312156141c9576141c86135d9565b5b60006141d78582860161362c565b92505060206141e88582860161362c565b9150509250929050565b600080600080600060a0868803121561420e5761420d6135d9565b5b600061421c8882890161362c565b955050602061422d8882890161362c565b945050604061423e88828901613662565b935050606061424f88828901613662565b925050608086013567ffffffffffffffff8111156142705761426f6135de565b5b61427c88828901613a7d565b9150509295509295909350565b7f455243313135353a2062616c616e636520717565727920666f7220746865207a60008201527f65726f2061646472657373000000000000000000000000000000000000000000602082015250565b60006142e5602b836137d4565b91506142f082614289565b604082019050919050565b60006020820190508181036000830152614314816142d8565b9050919050565b7f4e487b7100000000000000000000000000000000000000000000000000000000600052602260045260246000fd5b6000600282049050600182168061436257607f821691505b602082108114156143765761437561431b565b5b50919050565b7f54686973204e4654206e6f742065786973747300000000000000000000000000600082015250565b60006143b26013836137d4565b91506143bd8261437c565b602082019050919050565b600060208201905081810360008301526143e1816143a5565b9050919050565b7f506c656173652c20696e74726f64756365206120636f7272656374207072696360008201527f6500000000000000000000000000000000000000000000000000000000000000602082015250565b60006144446021836137d4565b915061444f826143e8565b604082019050919050565b6000602082019050818103600083015261447381614437565b9050919050565b7f4e487b7100000000000000000000000000000000000000000000000000000000600052601160045260246000fd5b60006144b482613641565b91506144bf83613641565b9250828210156144d2576144d161447a565b5b828203905092915050565b60006144e882613641565b915060008214156144fc576144fb61447a565b5b600182039050919050565b600061451282613641565b91507fffffffffffffffffffffffffffffffffffffffffffffffffffffffffffffffff8214156145455761454461447a565b5b600182019050919050565b7f455243313135353a207472616e736665722063616c6c6572206973206e6f742060008201527f6f776e6572206e6f7220617070726f7665640000000000000000000000000000602082015250565b60006145ac6032836137d4565b91506145b782614550565b604082019050919050565b600060208201905081810360008301526145db8161459f565b9050919050565b7f54686973204e4654206973206e6f742072656769737465726564000000000000600082015250565b6000614618601a836137d4565b9150614623826145e2565b602082019050919050565b600060208201905081810360008301526146478161460b565b9050919050565b7f54686973204e46542069732063757272656e746c79206f6e206d61726b657400600082015250565b6000614684601f836137d4565b915061468f8261464e565b602082019050919050565b600060208201905081810360008301526146b381614677565b9050919050565b7f596f7520617265206e6f7420746865206f776e6572206f662074686973204e4660008201527f5400000000000000000000000000000000000000000000000000000000000000602082015250565b60006147166021836137d4565b9150614721826146ba565b604082019050919050565b6000602082019050818103600083015261474581614709565b9050919050565b7f455243313135353a206163636f756e747320616e6420696473206c656e67746860008201527f206d69736d617463680000000000000000000000000000000000000000000000602082015250565b60006147a86029836137d4565b91506147b38261474c565b604082019050919050565b600060208201905081810360008301526147d78161479b565b9050919050565b7f4e487b7100000000000000000000000000000000000000000000000000000000600052603260045260246000fd5b7f54686973206974656d206973206e6f742063757272656e746c79206f6e20736160008201527f6c65000000000000000000000000000000000000000000000000000000000000602082015250565b60006148696022836137d4565b91506148748261480d565b604082019050919050565b600060208201905081810360008301526148988161485c565b9050919050565b7f596f7520617265206e6f742074686973204e4654206f776e6572000000000000600082015250565b60006148d5601a836137d4565b91506148e08261489f565b602082019050919050565b60006020820190508181036000830152614904816148c8565b9050919050565b7f54686973206974656d2069732063757272656e746c7920696e206d61726b6574600082015250565b60006149416020836137d4565b915061494c8261490b565b602082019050919050565b6000602082019050818103600083015261497081614934565b9050919050565b7f596f7520646f6e27742068617665207065726d6973696f6e7300000000000000600082015250565b60006149ad6019836137d4565b91506149b882614977565b602082019050919050565b600060208201905081810360008301526149dc816149a0565b9050919050565b7f54686973204e46542077617320616c7265616479206d696e7465640000000000600082015250565b6000614a19601b836137d4565b9150614a24826149e3565b602082019050919050565b60006020820190508181036000830152614a4881614a0c565b9050919050565b7f5a65726f206973206e6f7420616c6c6f7765642061732049442c20706c65617360008201527f20747279207769746820616e6f74686572206f6e650000000000000000000000602082015250565b6000614aab6035836137d4565b9150614ab682614a4f565b604082019050919050565b60006020820190508181036000830152614ada81614a9e565b9050919050565b7f45524331394d657461646174613a2055524920717565727920666f72206e6f6e60008201527f6578697374656e7420746f6b656e000000000000000000000000000000000000602082015250565b6000614b3d602e836137d4565b9150614b4882614ae1565b604082019050919050565b60006020820190508181036000830152614b6c81614b30565b9050919050565b7f455243313135353a2069647320616e6420616d6f756e7473206c656e6774682060008201527f6d69736d61746368000000000000000000000000000000000000000000000000602082015250565b6000614bcf6028836137d4565b9150614bda82614b73565b604082019050919050565b60006020820190508181036000830152614bfe81614bc2565b9050919050565b7f455243313135353a207472616e7366657220746f20746865207a65726f20616460008201527f6472657373000000000000000000000000000000000000000000000000000000602082015250565b6000614c616025836137d4565b9150614c6c82614c05565b604082019050919050565b60006020820190508181036000830152614c9081614c54565b9050919050565b7f455243313135353a20696e73756666696369656e742062616c616e636520666f60008201527f72207472616e7366657200000000000000000000000000000000000000000000602082015250565b6000614cf3602a836137d4565b9150614cfe82614c97565b604082019050919050565b60006020820190508181036000830152614d2281614ce6565b9050919050565b6000614d3482613641565b9150614d3f83613641565b9250827fffffffffffffffffffffffffffffffffffffffffffffffffffffffffffffffff03821115614d7457614d7361447a565b5b828201905092915050565b60006040820190508181036000830152614d998185613d15565b90508181036020830152614dad8184613d15565b90509392505050565b7f455243313135353a206275726e2066726f6d20746865207a65726f206164647260008201527f6573730000000000000000000000000000000000000000000000000000000000602082015250565b6000614e126023836137d4565b9150614e1d82614db6565b604082019050919050565b60006020820190508181036000830152614e4181614e05565b9050919050565b7f455243313135353a206275726e20616d6f756e7420657863656564732062616c60008201527f616e636500000000000000000000000000000000000000000000000000000000602082015250565b6000614ea46024836137d4565b9150614eaf82614e48565b604082019050919050565b60006020820190508181036000830152614ed381614e97565b9050919050565b6000604082019050614eef60008301856136b7565b614efc60208301846136b7565b9392505050565b7f455243313135353a2073657474696e6720617070726f76616c2073746174757360008201527f20666f722073656c660000000000000000000000000000000000000000000000602082015250565b6000614f5f6029836137d4565b9150614f6a82614f03565b604082019050919050565b60006020820190508181036000830152614f8e81614f52565b9050919050565b7f455243313135353a206d696e7420746f20746865207a65726f2061646472657360008201527f7300000000000000000000000000000000000000000000000000000000000000602082015250565b6000614ff16021836137d4565b9150614ffc82614f95565b604082019050919050565b6000602082019050818103600083015261502081614fe4565b9050919050565b7f45524331394d657461646174613a2055524920736574206f66206e6f6e65786960008201527f7374656e7420746f6b656e000000000000000000000000000000000000000000602082015250565b6000615083602b836137d4565b915061508e82615027565b604082019050919050565b600060208201905081810360008301526150b281615076565b9050919050565b600081519050919050565b600082825260208201905092915050565b60006150e0826150b9565b6150ea81856150c4565b93506150fa8185602086016137e5565b61510381613818565b840191505092915050565b600060a0820190506151236000830188613884565b6151306020830187613884565b81810360408301526151428186613d15565b905081810360608301526151568185613d15565b9050818103608083015261516a81846150d5565b90509695505050505050565b6000815190506151858161370d565b92915050565b6000602082840312156151a1576151a06135d9565b5b60006151af84828501615176565b91505092915050565b60008160e01c9050919050565b600060033d11156151e45760046000803e6151e16000516151b8565b90505b90565b600060443d10156151f75761527a565b6151ff6135cf565b60043d036004823e80513d602482011167ffffffffffffffff8211171561522757505061527a565b808201805167ffffffffffffffff811115615245575050505061527a565b80602083010160043d03850181111561526257505050505061527a565b615271826020018501866138e2565b82955050505050505b90565b7f455243313135353a207472616e7366657220746f206e6f6e204552433131353560008201527f526563656976657220696d706c656d656e746572000000000000000000000000602082015250565b60006152d96034836137d4565b91506152e48261527d565b604082019050919050565b60006020820190508181036000830152615308816152cc565b9050919050565b7f455243313135353a204552433131353552656365697665722072656a6563746560008201527f6420746f6b656e73000000000000000000000000000000000000000000000000602082015250565b600061536b6028836137d4565b91506153768261530f565b604082019050919050565b6000602082019050818103600083015261539a8161535e565b9050919050565b600060a0820190506153b66000830188613884565b6153c36020830187613884565b6153d060408301866136b7565b6153dd60608301856136b7565b81810360808301526153ef81846150d5565b9050969550505050505056fea26469706673582212204b3d4a5112250b7bab44a5ad900c995fbd8c8e13e86c00473138fccdf781e31564736f6c634300080a003368747470733a2f2f697066732e696e667572612e696f2f697066732f247b69647d",
  "immutableReferences": {},
  "source": "// SPDX-License-Identifier: MIT\r\npragma solidity ^0.8.0;\r\nimport \"./ERC19.sol\";\r\n\r\ncontract My_NFT is ERC19 {\r\n    //Global variables\r\n    uint private itemsOnSale;\r\n    uint[] private tokenKeys; //Array to save the different IDs of different NFT\r\n    address private contractOwner;\r\n\r\n    //Create new type\r\n    struct Item{\r\n        uint tokenId;\r\n        address nftContract;\r\n        address payable owner;\r\n        address payable creator;\r\n        uint amount;\r\n        string property;\r\n        uint price;\r\n        bool sold;\r\n    }\r\n\r\n    //Mappings\r\n    mapping (uint => bool) private isNFTRegistered; //Map to know if an ID is registered\r\n    mapping (address => mapping (uint => bool)) private _isOwner; //Map to know if one address posees an NFT\r\n    mapping (address => uint[]) private _owners; // Mapping the owner to NFT id\r\n    mapping (address => uint) private _numberOfItems; //Mapping to know the number of nfts of each acount \r\n    mapping (uint => Item) private tokenIdToItem; //Link the tokenID to the item\r\n\r\n    //Visibility modifier\r\n    modifier onlyOwner(address _address){\r\n        require(_address == contractOwner, \"You don't have permisions\");\r\n        _;\r\n    }\r\n\r\n    constructor() ERC19(\"https://ipfs.infura.io/ipfs/${id}\"){\r\n        contractOwner = msg.sender;\r\n    }\r\n\r\n    function mint(string memory tokenURI, uint256 tokenId, uint256 amount, string memory property, uint price) public onlyOwner(msg.sender) returns(uint){\r\n        require(isNFTRegistered[tokenId] == false, \"This NFT was already minted\" );\r\n        require(tokenId != 0, \"Zero is not allowed as ID, pleas try with another one\" );\r\n\r\n        _mint(msg.sender, tokenId, amount, \"\");\r\n        _setTokenURI(tokenId, tokenURI);\r\n\r\n        //Set the information in the arrays or mappings\r\n        Item memory item = Item(tokenId, address(this), payable(msg.sender), payable(msg.sender), amount, property, price, false);\r\n        tokenIdToItem[tokenId] = item;  //Insert an item in the mapping current position\r\n        tokenKeys.push(tokenId); //Push the tokenID in the tokenKeys array\r\n        isNFTRegistered[tokenId] = true; //Register the token id on the mapping\r\n        _isOwner[msg.sender][tokenId] = true; //The sender now posees this tokenId\r\n        _owners[msg.sender].push(tokenId); //Register the NFT owner in the mapping\r\n        _numberOfItems[msg.sender]++; //Increment the number of items for the sender\r\n        itemsOnSale++;\r\n\r\n        return tokenId;\r\n    }\r\n\r\n    function getItemsOnSale() public view returns(Item[] memory){\r\n        Item[] memory itemsToSale = new Item[](itemsOnSale); //Create an array to save the items to sale\r\n        \r\n        //Create the necessary variables\r\n        uint totalItems = tokenKeys.length; \r\n        uint currentId = 0;\r\n        uint pos = 0;\r\n\r\n        for(uint i = 0; i < totalItems; i++){ //Go through all the items\r\n            currentId = tokenKeys[i]; //Get the current id\r\n            bool isItemSold = tokenIdToItem[currentId].sold; //Check if the item is sold\r\n            \r\n            if(!isItemSold && currentId != 0){ //If the item is not sold or burned\r\n                Item memory currentItem = tokenIdToItem[currentId]; //Get this not sold item\r\n                itemsToSale[pos] = currentItem; //Save it into the array\r\n                pos++; //Increment the value of pos variable\r\n            } \r\n        }\r\n\r\n        return itemsToSale;\r\n    }\r\n\r\n    function getMyItems() public view returns(Item[] memory){\r\n        \r\n        uint quantityOfItems = _numberOfItems[msg.sender];\r\n        Item[] memory myItems = new Item[](quantityOfItems);\r\n        uint totalItems = tokenKeys.length;\r\n        uint currentId = 0;\r\n        address ownerOfCurrentItem;\r\n        Item memory currentItem;\r\n        uint pos = 0;\r\n\r\n        for(uint i = 0; i < totalItems; i++){\r\n            currentId = tokenKeys[i];\r\n            ownerOfCurrentItem = tokenIdToItem[currentId].owner;\r\n\r\n            if(ownerOfCurrentItem == msg.sender){\r\n                currentItem = tokenIdToItem[currentId];\r\n                myItems[pos] = currentItem;\r\n                pos++;\r\n            }\r\n        }\r\n        return myItems;\r\n    }\r\n\r\n    function isOwner(uint tokenId) public view returns(bool){\r\n        return _isOwner[msg.sender][tokenId];\r\n    }\r\n\r\n    function buyNft(uint tokenId) public payable{\r\n        require(isNFTRegistered[tokenId] == true, \"This NFT not exists\" );\r\n        uint price = tokenIdToItem[tokenId].price;\r\n        address currentOwner = tokenIdToItem[tokenId].owner;\r\n        require(msg.value == price, \"Please, introduce a correct price\");\r\n\r\n        //if the creator != current owner pay a % of total\r\n        address creator = tokenIdToItem[tokenId].creator;\r\n        \r\n        if(creator == currentOwner){\r\n            tokenIdToItem[tokenId].owner.transfer(msg.value);\r\n        } else {\r\n            uint royalty = 0.03 ether;\r\n            price -= royalty;\r\n\r\n            tokenIdToItem[tokenId].creator.transfer(royalty); //Pay to the creator the 3% of current price\r\n            tokenIdToItem[tokenId].owner.transfer(price);\r\n        }\r\n\r\n        safeTransferFrom(currentOwner, msg.sender, tokenId, 1, \"\");\r\n\r\n        //Modify owner\r\n        tokenIdToItem[tokenId].owner = payable(msg.sender); // review payable: Why if owner is payable intrinsically on the struct, I have to do it payable again)\r\n\r\n        //Modify required mappings\r\n        _isOwner[currentOwner][tokenId] = false;\r\n        _isOwner[msg.sender][tokenId] = true;\r\n\r\n        //Modify the number of items of each account\r\n        _numberOfItems[currentOwner]--;\r\n        _numberOfItems[msg.sender]++;\r\n\r\n        deleteItem(currentOwner, tokenId);\r\n        _owners[msg.sender].push(tokenId);\r\n        \r\n        //Mark this item as sold\r\n        tokenIdToItem[tokenId].sold = true;\r\n        itemsOnSale--;\r\n    } \r\n    \r\n\r\n    function deleteItem(address lastOwner, uint tokenId) private{\r\n        uint size = _owners[lastOwner].length;\r\n\r\n        for(uint i = 0; i < size; i++){\r\n            if(_owners[lastOwner][i] == tokenId)\r\n                delete _owners[lastOwner][i];\r\n        }\r\n    }\r\n\r\n    function addToMarket(uint tokenId, uint price) public {\r\n        require( tokenIdToItem[tokenId].sold == true, \"This item is currently in market\" );\r\n        require( _isOwner[msg.sender][tokenId] == true, \"You are not this NFT owner\" );\r\n        tokenIdToItem[tokenId].price = price;\r\n        tokenIdToItem[tokenId].sold = false;\r\n        itemsOnSale++;\r\n    }\r\n\r\n    function removeFromMarket(uint tokenId) public {\r\n        require( tokenIdToItem[tokenId].sold == false, \"This item is not currently on sale\" );\r\n        require( _isOwner[msg.sender][tokenId] == true, \"You are not this NFT owner\" );\r\n        tokenIdToItem[tokenId].sold = true;\r\n        itemsOnSale--;\r\n    }\r\n\r\n    function burn(uint tokenId) public {\r\n        require(isNFTRegistered[tokenId] == true, \"This NFT is not registered\");\r\n        require(tokenIdToItem[tokenId].sold == true, \"This NFT is currently on market\");\r\n        require(_isOwner[msg.sender][tokenId] == true, \"You are not the owner of this NFT\");\r\n\r\n        _burn(msg.sender, tokenId, 1);\r\n\r\n        //Update mappings\r\n        isNFTRegistered[tokenId] = false;\r\n        _isOwner[msg.sender][tokenId] = false;\r\n        deleteItem(msg.sender, tokenId);\r\n        _numberOfItems[msg.sender]-=1;\r\n        delete tokenIdToItem[tokenId];\r\n\r\n        //Update variables\r\n        deleteTokenKey(tokenId);\r\n    }\r\n\r\n    function deleteTokenKey(uint tokenId) private {\r\n        for(uint i = 0; i < tokenKeys.length; i++){\r\n            if(tokenKeys[i] == tokenId)\r\n                tokenKeys[i] = 0;\r\n        }\r\n    }\r\n}",
  "sourcePath": "D:\\blockchain\\marketplace\\tfg_market\\src\\contracts\\My_NFT.sol",
  "compiler": {
    "name": "solc",
    "version": "0.8.10+commit.fc410830.Emscripten.clang"
  },
  "schemaVersion": "3.4.3",
  "updatedAt": "2022-02-26T09:23:10.054Z",
  "networkType": "ethereum",
  "devdoc": {
    "kind": "dev",
    "methods": {
      "balanceOf(address,uint256)": {
        "details": "See {IERC1155-balanceOf}. Requirements: - `account` cannot be the zero address."
      },
      "balanceOfBatch(address[],uint256[])": {
        "details": "See {IERC1155-balanceOfBatch}. Requirements: - `accounts` and `ids` must have the same length."
      },
      "isApprovedForAll(address,address)": {
        "details": "See {IERC1155-isApprovedForAll}."
      },
      "safeBatchTransferFrom(address,address,uint256[],uint256[],bytes)": {
        "details": "See {IERC1155-safeBatchTransferFrom}."
      },
      "safeTransferFrom(address,address,uint256,uint256,bytes)": {
        "details": "See {IERC1155-safeTransferFrom}."
      },
      "setApprovalForAll(address,bool)": {
        "details": "See {IERC1155-setApprovalForAll}."
      },
      "supportsInterface(bytes4)": {
        "details": "See {IERC165-supportsInterface}."
      },
      "uri(uint256)": {
        "details": "See {IERC1155MetadataURI-uri}. This implementation returns the same URI for *all* token types. It relies on the token type ID substitution mechanism https://eips.ethereum.org/EIPS/eip-1155#metadata[defined in the EIP]. Clients calling this function must replace the `\\{id\\}` substring with the actual token type ID."
      }
    },
    "version": 1
  },
  "userdoc": {
    "kind": "user",
    "methods": {},
    "version": 1
  }
}