{
  "contractName": "My_NFT",
  "abi": [
    {
      "inputs": [],
      "stateMutability": "nonpayable",
      "type": "constructor"
    },
    {
      "anonymous": false,
      "inputs": [
        {
          "indexed": true,
          "internalType": "address",
          "name": "account",
          "type": "address"
        },
        {
          "indexed": true,
          "internalType": "address",
          "name": "operator",
          "type": "address"
        },
        {
          "indexed": false,
          "internalType": "bool",
          "name": "approved",
          "type": "bool"
        }
      ],
      "name": "ApprovalForAll",
      "type": "event"
    },
    {
      "anonymous": false,
      "inputs": [
        {
          "indexed": true,
          "internalType": "address",
          "name": "operator",
          "type": "address"
        },
        {
          "indexed": true,
          "internalType": "address",
          "name": "from",
          "type": "address"
        },
        {
          "indexed": true,
          "internalType": "address",
          "name": "to",
          "type": "address"
        },
        {
          "indexed": false,
          "internalType": "uint256[]",
          "name": "ids",
          "type": "uint256[]"
        },
        {
          "indexed": false,
          "internalType": "uint256[]",
          "name": "values",
          "type": "uint256[]"
        }
      ],
      "name": "TransferBatch",
      "type": "event"
    },
    {
      "anonymous": false,
      "inputs": [
        {
          "indexed": true,
          "internalType": "address",
          "name": "operator",
          "type": "address"
        },
        {
          "indexed": true,
          "internalType": "address",
          "name": "from",
          "type": "address"
        },
        {
          "indexed": true,
          "internalType": "address",
          "name": "to",
          "type": "address"
        },
        {
          "indexed": false,
          "internalType": "uint256",
          "name": "id",
          "type": "uint256"
        },
        {
          "indexed": false,
          "internalType": "uint256",
          "name": "value",
          "type": "uint256"
        }
      ],
      "name": "TransferSingle",
      "type": "event"
    },
    {
      "anonymous": false,
      "inputs": [
        {
          "indexed": false,
          "internalType": "string",
          "name": "value",
          "type": "string"
        },
        {
          "indexed": true,
          "internalType": "uint256",
          "name": "id",
          "type": "uint256"
        }
      ],
      "name": "URI",
      "type": "event"
    },
    {
      "anonymous": false,
      "inputs": [
        {
          "indexed": false,
          "internalType": "uint256",
          "name": "tokenId",
          "type": "uint256"
        },
        {
          "indexed": false,
          "internalType": "uint256",
          "name": "price",
          "type": "uint256"
        }
      ],
      "name": "itemAddedToMkt",
      "type": "event"
    },
    {
      "anonymous": false,
      "inputs": [
        {
          "indexed": false,
          "internalType": "address",
          "name": "buyer",
          "type": "address"
        },
        {
          "indexed": false,
          "internalType": "uint256",
          "name": "tokenId",
          "type": "uint256"
        }
      ],
      "name": "itemBought",
      "type": "event"
    },
    {
      "anonymous": false,
      "inputs": [
        {
          "indexed": false,
          "internalType": "uint256",
          "name": "tokenId",
          "type": "uint256"
        }
      ],
      "name": "itemRemovedFromMkt",
      "type": "event"
    },
    {
      "anonymous": false,
      "inputs": [
        {
          "indexed": false,
          "internalType": "address",
          "name": "holder",
          "type": "address"
        },
        {
          "indexed": false,
          "internalType": "uint256",
          "name": "tokenId",
          "type": "uint256"
        }
      ],
      "name": "minted",
      "type": "event"
    },
    {
      "inputs": [
        {
          "internalType": "address",
          "name": "account",
          "type": "address"
        },
        {
          "internalType": "uint256",
          "name": "id",
          "type": "uint256"
        }
      ],
      "name": "balanceOf",
      "outputs": [
        {
          "internalType": "uint256",
          "name": "",
          "type": "uint256"
        }
      ],
      "stateMutability": "view",
      "type": "function",
      "constant": true
    },
    {
      "inputs": [
        {
          "internalType": "address[]",
          "name": "accounts",
          "type": "address[]"
        },
        {
          "internalType": "uint256[]",
          "name": "ids",
          "type": "uint256[]"
        }
      ],
      "name": "balanceOfBatch",
      "outputs": [
        {
          "internalType": "uint256[]",
          "name": "",
          "type": "uint256[]"
        }
      ],
      "stateMutability": "view",
      "type": "function",
      "constant": true
    },
    {
      "inputs": [
        {
          "internalType": "address",
          "name": "account",
          "type": "address"
        },
        {
          "internalType": "address",
          "name": "operator",
          "type": "address"
        }
      ],
      "name": "isApprovedForAll",
      "outputs": [
        {
          "internalType": "bool",
          "name": "",
          "type": "bool"
        }
      ],
      "stateMutability": "view",
      "type": "function",
      "constant": true
    },
    {
      "inputs": [
        {
          "internalType": "address",
          "name": "from",
          "type": "address"
        },
        {
          "internalType": "address",
          "name": "to",
          "type": "address"
        },
        {
          "internalType": "uint256[]",
          "name": "ids",
          "type": "uint256[]"
        },
        {
          "internalType": "uint256[]",
          "name": "amounts",
          "type": "uint256[]"
        },
        {
          "internalType": "bytes",
          "name": "data",
          "type": "bytes"
        }
      ],
      "name": "safeBatchTransferFrom",
      "outputs": [],
      "stateMutability": "nonpayable",
      "type": "function"
    },
    {
      "inputs": [
        {
          "internalType": "address",
          "name": "from",
          "type": "address"
        },
        {
          "internalType": "address",
          "name": "to",
          "type": "address"
        },
        {
          "internalType": "uint256",
          "name": "id",
          "type": "uint256"
        },
        {
          "internalType": "uint256",
          "name": "amount",
          "type": "uint256"
        },
        {
          "internalType": "bytes",
          "name": "data",
          "type": "bytes"
        }
      ],
      "name": "safeTransferFrom",
      "outputs": [],
      "stateMutability": "nonpayable",
      "type": "function"
    },
    {
      "inputs": [
        {
          "internalType": "address",
          "name": "operator",
          "type": "address"
        },
        {
          "internalType": "bool",
          "name": "approved",
          "type": "bool"
        }
      ],
      "name": "setApprovalForAll",
      "outputs": [],
      "stateMutability": "nonpayable",
      "type": "function"
    },
    {
      "inputs": [
        {
          "internalType": "bytes4",
          "name": "interfaceId",
          "type": "bytes4"
        }
      ],
      "name": "supportsInterface",
      "outputs": [
        {
          "internalType": "bool",
          "name": "",
          "type": "bool"
        }
      ],
      "stateMutability": "view",
      "type": "function",
      "constant": true
    },
    {
      "inputs": [
        {
          "internalType": "uint256",
          "name": "tokenId",
          "type": "uint256"
        },
        {
          "internalType": "uint256",
          "name": "amount",
          "type": "uint256"
        },
        {
          "internalType": "uint256",
          "name": "price",
          "type": "uint256"
        }
      ],
      "name": "mint",
      "outputs": [
        {
          "internalType": "uint256",
          "name": "",
          "type": "uint256"
        }
      ],
      "stateMutability": "nonpayable",
      "type": "function"
    },
    {
      "inputs": [],
      "name": "getItemsOnSale",
      "outputs": [
        {
          "components": [
            {
              "internalType": "uint256",
              "name": "tokenId",
              "type": "uint256"
            },
            {
              "internalType": "address payable",
              "name": "owner",
              "type": "address"
            },
            {
              "internalType": "address payable",
              "name": "creator",
              "type": "address"
            },
            {
              "internalType": "uint256",
              "name": "amount",
              "type": "uint256"
            },
            {
              "internalType": "uint256",
              "name": "price",
              "type": "uint256"
            },
            {
              "internalType": "bool",
              "name": "sold",
              "type": "bool"
            }
          ],
          "internalType": "struct My_NFT.Item[]",
          "name": "",
          "type": "tuple[]"
        }
      ],
      "stateMutability": "view",
      "type": "function",
      "constant": true
    },
    {
      "inputs": [],
      "name": "getMyItems",
      "outputs": [
        {
          "components": [
            {
              "internalType": "uint256",
              "name": "tokenId",
              "type": "uint256"
            },
            {
              "internalType": "address payable",
              "name": "owner",
              "type": "address"
            },
            {
              "internalType": "address payable",
              "name": "creator",
              "type": "address"
            },
            {
              "internalType": "uint256",
              "name": "amount",
              "type": "uint256"
            },
            {
              "internalType": "uint256",
              "name": "price",
              "type": "uint256"
            },
            {
              "internalType": "bool",
              "name": "sold",
              "type": "bool"
            }
          ],
          "internalType": "struct My_NFT.Item[]",
          "name": "",
          "type": "tuple[]"
        }
      ],
      "stateMutability": "view",
      "type": "function",
      "constant": true
    },
    {
      "inputs": [
        {
          "internalType": "uint256",
          "name": "tokenId",
          "type": "uint256"
        }
      ],
      "name": "isOwner",
      "outputs": [
        {
          "internalType": "bool",
          "name": "",
          "type": "bool"
        }
      ],
      "stateMutability": "view",
      "type": "function",
      "constant": true
    },
    {
      "inputs": [
        {
          "internalType": "uint256",
          "name": "tokenId",
          "type": "uint256"
        }
      ],
      "name": "buyNft",
      "outputs": [],
      "stateMutability": "payable",
      "type": "function",
      "payable": true
    },
    {
      "inputs": [
        {
          "internalType": "uint256",
          "name": "tokenId",
          "type": "uint256"
        },
        {
          "internalType": "uint256",
          "name": "price",
          "type": "uint256"
        }
      ],
      "name": "addToMarket",
      "outputs": [],
      "stateMutability": "nonpayable",
      "type": "function"
    },
    {
      "inputs": [
        {
          "internalType": "uint256",
          "name": "tokenId",
          "type": "uint256"
        }
      ],
      "name": "removeFromMarket",
      "outputs": [],
      "stateMutability": "nonpayable",
      "type": "function"
    },
    {
      "inputs": [
        {
          "internalType": "uint256",
          "name": "tokenId",
          "type": "uint256"
        }
      ],
      "name": "uri",
      "outputs": [
        {
          "internalType": "string",
          "name": "",
          "type": "string"
        }
      ],
      "stateMutability": "view",
      "type": "function",
      "constant": true
    },
    {
      "inputs": [
        {
          "internalType": "string",
          "name": "newURI",
          "type": "string"
        }
      ],
      "name": "setURI",
      "outputs": [],
      "stateMutability": "nonpayable",
      "type": "function"
    }
  ],
  "bytecode": "0x608060405260405180608001604052806050815260200162004d256050913960069080519060200190620000359291906200014c565b503480156200004357600080fd5b506006805462000053906200022b565b80601f016020809104026020016040519081016040528092919081815260200182805462000081906200022b565b8015620000d25780601f10620000a657610100808354040283529160200191620000d2565b820191906000526020600020905b815481529060010190602001808311620000b457829003601f168201915b5050505050620000e8816200013060201b60201c565b5033600560006101000a81548173ffffffffffffffffffffffffffffffffffffffff021916908373ffffffffffffffffffffffffffffffffffffffff16021790555062000261565b8060029080519060200190620001489291906200014c565b5050565b8280546200015a906200022b565b90600052602060002090601f0160209004810192826200017e5760008555620001ca565b82601f106200019957805160ff1916838001178555620001ca565b82800160010185558215620001ca579182015b82811115620001c9578251825591602001919060010190620001ac565b5b509050620001d99190620001dd565b5090565b5b80821115620001f8576000816000905550600101620001de565b5090565b7f4e487b7100000000000000000000000000000000000000000000000000000000600052602260045260246000fd5b600060028204905060018216806200024457607f821691505b602082108114156200025b576200025a620001fc565b5b50919050565b614ab480620002716000396000f3fe6080604052600436106100f25760003560e01c80634e1273f41161008a578063bbcbc2e711610059578063bbcbc2e71461034e578063c5fb207d14610379578063e985e9c5146103a4578063f242432a146103e1576100f2565b80634e1273f4146102965780636457bd04146102d35780637fb5f7a6146102fc578063a22cb46514610325576100f2565b80630e89341c116100c65780630e89341c146101d7578063243adbdd146102145780632eb2c2d61461023057806339c7639c14610259576100f2565b8062fdd58e146100f757806301ffc9a71461013457806302acc94b1461017157806302fe5305146101ae575b600080fd5b34801561010357600080fd5b5061011e60048036038101906101199190612e11565b61040a565b60405161012b9190612e60565b60405180910390f35b34801561014057600080fd5b5061015b60048036038101906101569190612ed3565b6104d3565b6040516101689190612f1b565b60405180910390f35b34801561017d57600080fd5b5061019860048036038101906101939190612f36565b6105b5565b6040516101a59190612e60565b60405180910390f35b3480156101ba57600080fd5b506101d560048036038101906101d091906130cf565b610a26565b005b3480156101e357600080fd5b506101fe60048036038101906101f99190613118565b610ad2565b60405161020b91906131cd565b60405180910390f35b61022e60048036038101906102299190613118565b610b06565b005b34801561023c57600080fd5b5061025760048036038101906102529190613358565b611102565b005b34801561026557600080fd5b50610280600480360381019061027b9190613118565b6111a3565b60405161028d9190612f1b565b60405180910390f35b3480156102a257600080fd5b506102bd60048036038101906102b891906134ea565b61120a565b6040516102ca9190613620565b60405180910390f35b3480156102df57600080fd5b506102fa60048036038101906102f59190613118565b611323565b005b34801561030857600080fd5b50610323600480360381019061031e9190613642565b6114b2565b005b34801561033157600080fd5b5061034c600480360381019061034791906136ae565b61165f565b005b34801561035a57600080fd5b50610363611675565b6040516103709190613848565b60405180910390f35b34801561038557600080fd5b5061038e61188c565b60405161039b9190613848565b60405180910390f35b3480156103b057600080fd5b506103cb60048036038101906103c6919061386a565b611b2d565b6040516103d89190612f1b565b60405180910390f35b3480156103ed57600080fd5b50610408600480360381019061040391906138aa565b611bc1565b005b60008073ffffffffffffffffffffffffffffffffffffffff168373ffffffffffffffffffffffffffffffffffffffff16141561047b576040517f08c379a0000000000000000000000000000000000000000000000000000000008152600401610472906139b3565b60405180910390fd5b60008083815260200190815260200160002060008473ffffffffffffffffffffffffffffffffffffffff1673ffffffffffffffffffffffffffffffffffffffff16815260200190815260200160002054905092915050565b60007fd9b67a26000000000000000000000000000000000000000000000000000000007bffffffffffffffffffffffffffffffffffffffffffffffffffffffff1916827bffffffffffffffffffffffffffffffffffffffffffffffffffffffff1916148061059e57507f0e89341c000000000000000000000000000000000000000000000000000000007bffffffffffffffffffffffffffffffffffffffffffffffffffffffff1916827bffffffffffffffffffffffffffffffffffffffffffffffffffffffff1916145b806105ae57506105ad82611c62565b5b9050919050565b600033600560009054906101000a900473ffffffffffffffffffffffffffffffffffffffff1673ffffffffffffffffffffffffffffffffffffffff168173ffffffffffffffffffffffffffffffffffffffff1614610648576040517f08c379a000000000000000000000000000000000000000000000000000000000815260040161063f90613a45565b60405180910390fd5b600015156007600087815260200190815260200160002060009054906101000a900460ff161515146106af576040517f08c379a00000000000000000000000000000000000000000000000000000000081526004016106a690613ab1565b60405180910390fd5b600085116106f2576040517f08c379a00000000000000000000000000000000000000000000000000000000081526004016106e990613b43565b60405180910390fd5b61070d33868660405180602001604052806000815250611ccc565b60006040518060c001604052808781526020013373ffffffffffffffffffffffffffffffffffffffff1681526020013373ffffffffffffffffffffffffffffffffffffffff16815260200186815260200185815260200160001515815250905080600b60008881526020019081526020016000206000820151816000015560208201518160010160006101000a81548173ffffffffffffffffffffffffffffffffffffffff021916908373ffffffffffffffffffffffffffffffffffffffff16021790555060408201518160020160006101000a81548173ffffffffffffffffffffffffffffffffffffffff021916908373ffffffffffffffffffffffffffffffffffffffff160217905550606082015181600301556080820151816004015560a08201518160050160006101000a81548160ff021916908315150217905550905050600486908060018154018082558091505060019003906000526020600020016000909190919091505560016007600088815260200190815260200160002060006101000a81548160ff0219169083151502179055506001600860003373ffffffffffffffffffffffffffffffffffffffff1673ffffffffffffffffffffffffffffffffffffffff168152602001908152602001600020600088815260200190815260200160002060006101000a81548160ff021916908315150217905550600960003373ffffffffffffffffffffffffffffffffffffffff1673ffffffffffffffffffffffffffffffffffffffff168152602001908152602001600020869080600181540180825580915050600190039060005260206000200160009091909190915055600a60003373ffffffffffffffffffffffffffffffffffffffff1673ffffffffffffffffffffffffffffffffffffffff16815260200190815260200160002060008154809291906109c490613b92565b9190505550600360008154809291906109dc90613b92565b91905055507fb7656808f0e04b4af7a20f7ef1caa7669f0d781f1ca4cba31a3ba467880766c93387604051610a12929190613bea565b60405180910390a185925050509392505050565b33600560009054906101000a900473ffffffffffffffffffffffffffffffffffffffff1673ffffffffffffffffffffffffffffffffffffffff168173ffffffffffffffffffffffffffffffffffffffff1614610ab7576040517f08c379a0000000000000000000000000000000000000000000000000000000008152600401610aae90613a45565b60405180910390fd5b8160069080519060200190610acd929190612c62565b505050565b60606006610adf83611e62565b604051602001610af0929190613ddc565b6040516020818303038152906040529050919050565b600115156007600083815260200190815260200160002060009054906101000a900460ff16151514610b6d576040517f08c379a0000000000000000000000000000000000000000000000000000000008152600401610b6490613e62565b60405180910390fd5b6000600b60008381526020019081526020016000206004015490506000600b600084815260200190815260200160002060010160009054906101000a900473ffffffffffffffffffffffffffffffffffffffff169050813414610c05576040517f08c379a0000000000000000000000000000000000000000000000000000000008152600401610bfc90613ef4565b60405180910390fd5b6000600b600085815260200190815260200160002060020160009054906101000a900473ffffffffffffffffffffffffffffffffffffffff1690508173ffffffffffffffffffffffffffffffffffffffff168173ffffffffffffffffffffffffffffffffffffffff161415610cf657600b600085815260200190815260200160002060010160009054906101000a900473ffffffffffffffffffffffffffffffffffffffff1673ffffffffffffffffffffffffffffffffffffffff166108fc349081150290604051600060405180830381858888f19350505050158015610cf0573d6000803e3d6000fd5b50610e1d565b60006064600385610d079190613f14565b610d119190613f9d565b90508084610d1f9190613fce565b9350600b600086815260200190815260200160002060020160009054906101000a900473ffffffffffffffffffffffffffffffffffffffff1673ffffffffffffffffffffffffffffffffffffffff166108fc829081150290604051600060405180830381858888f19350505050158015610d9d573d6000803e3d6000fd5b50600b600086815260200190815260200160002060010160009054906101000a900473ffffffffffffffffffffffffffffffffffffffff1673ffffffffffffffffffffffffffffffffffffffff166108fc859081150290604051600060405180830381858888f19350505050158015610e1a573d6000803e3d6000fd5b50505b610e3a823386600160405180602001604052806000815250611fc3565b33600b600086815260200190815260200160002060010160006101000a81548173ffffffffffffffffffffffffffffffffffffffff021916908373ffffffffffffffffffffffffffffffffffffffff1602179055506000600860008473ffffffffffffffffffffffffffffffffffffffff1673ffffffffffffffffffffffffffffffffffffffff168152602001908152602001600020600086815260200190815260200160002060006101000a81548160ff0219169083151502179055506001600860003373ffffffffffffffffffffffffffffffffffffffff1673ffffffffffffffffffffffffffffffffffffffff168152602001908152602001600020600086815260200190815260200160002060006101000a81548160ff021916908315150217905550600a60008373ffffffffffffffffffffffffffffffffffffffff1673ffffffffffffffffffffffffffffffffffffffff1681526020019081526020016000206000815480929190610fb190614002565b9190505550600a60003373ffffffffffffffffffffffffffffffffffffffff1673ffffffffffffffffffffffffffffffffffffffff168152602001908152602001600020600081548092919061100690613b92565b91905055506110158285612245565b50600960003373ffffffffffffffffffffffffffffffffffffffff1673ffffffffffffffffffffffffffffffffffffffff1681526020019081526020016000208490806001815401808255809150506001900390600052602060002001600090919091909150556001600b600086815260200190815260200160002060050160006101000a81548160ff021916908315150217905550600360008154809291906110be90614002565b91905055507f5bf69c8a2049bed818e32afb8e046d53c15c9a68072e8e43ba70194bd7c7229c33856040516110f4929190613bea565b60405180910390a150505050565b61110a612384565b73ffffffffffffffffffffffffffffffffffffffff168573ffffffffffffffffffffffffffffffffffffffff161480611150575061114f8561114a612384565b611b2d565b5b61118f576040517f08c379a00000000000000000000000000000000000000000000000000000000081526004016111869061409e565b60405180910390fd5b61119c858585858561238c565b5050505050565b6000600860003373ffffffffffffffffffffffffffffffffffffffff1673ffffffffffffffffffffffffffffffffffffffff168152602001908152602001600020600083815260200190815260200160002060009054906101000a900460ff169050919050565b60608151835114611250576040517f08c379a000000000000000000000000000000000000000000000000000000000815260040161124790614130565b60405180910390fd5b6000835167ffffffffffffffff81111561126d5761126c612fa4565b5b60405190808252806020026020018201604052801561129b5781602001602082028036833780820191505090505b50905060005b8451811015611318576112e88582815181106112c0576112bf614150565b5b60200260200101518583815181106112db576112da614150565b5b602002602001015161040a565b8282815181106112fb576112fa614150565b5b6020026020010181815250508061131190613b92565b90506112a1565b508091505092915050565b60001515600b600083815260200190815260200160002060050160009054906101000a900460ff1615151461138d576040517f08c379a0000000000000000000000000000000000000000000000000000000008152600401611384906141f1565b60405180910390fd5b60011515600860003373ffffffffffffffffffffffffffffffffffffffff1673ffffffffffffffffffffffffffffffffffffffff168152602001908152602001600020600083815260200190815260200160002060009054906101000a900460ff16151514611431576040517f08c379a00000000000000000000000000000000000000000000000000000000081526004016114289061425d565b60405180910390fd5b6001600b600083815260200190815260200160002060050160006101000a81548160ff0219169083151502179055506003600081548092919061147390614002565b91905055507f485dbc9cc2620b737aa282f639b0487b4124a158913314e07cfcd124bd4f5795816040516114a79190612e60565b60405180910390a150565b60011515600b600084815260200190815260200160002060050160009054906101000a900460ff1615151461151c576040517f08c379a0000000000000000000000000000000000000000000000000000000008152600401611513906142c9565b60405180910390fd5b60011515600860003373ffffffffffffffffffffffffffffffffffffffff1673ffffffffffffffffffffffffffffffffffffffff168152602001908152602001600020600084815260200190815260200160002060009054906101000a900460ff161515146115c0576040517f08c379a00000000000000000000000000000000000000000000000000000000081526004016115b79061425d565b60405180910390fd5b80600b6000848152602001908152602001600020600401819055506000600b600084815260200190815260200160002060050160006101000a81548160ff0219169083151502179055506003600081548092919061161d90613b92565b91905055507f468c4f78ef712aeb1dfad4730e527322567acc13021dffdc24b7b1ec51f929dd82826040516116539291906142e9565b60405180910390a15050565b61167161166a612384565b83836126a0565b5050565b6060600060035467ffffffffffffffff81111561169557611694612fa4565b5b6040519080825280602002602001820160405280156116ce57816020015b6116bb612ce8565b8152602001906001900390816116b35790505b5090506000600480549050905060008060005b8381101561188157600481815481106116fd576116fc614150565b5b906000526020600020015492506000600b600085815260200190815260200160002060050160009054906101000a900460ff1690508061186d576000600b60008681526020019081526020016000206040518060c0016040529081600082015481526020016001820160009054906101000a900473ffffffffffffffffffffffffffffffffffffffff1673ffffffffffffffffffffffffffffffffffffffff1673ffffffffffffffffffffffffffffffffffffffff1681526020016002820160009054906101000a900473ffffffffffffffffffffffffffffffffffffffff1673ffffffffffffffffffffffffffffffffffffffff1673ffffffffffffffffffffffffffffffffffffffff16815260200160038201548152602001600482015481526020016005820160009054906101000a900460ff16151515158152505090508087858151811061185257611851614150565b5b6020026020010181905250838061186890613b92565b945050505b50808061187990613b92565b9150506116e1565b508394505050505090565b60606000600a60003373ffffffffffffffffffffffffffffffffffffffff1673ffffffffffffffffffffffffffffffffffffffff16815260200190815260200160002054905060008167ffffffffffffffff8111156118ee576118ed612fa4565b5b60405190808252806020026020018201604052801561192757816020015b611914612ce8565b81526020019060019003908161190c5790505b5090506000600480549050905060008061193f612ce8565b6000805b85811015611b1f576004818154811061195f5761195e614150565b5b90600052602060002001549450600b600086815260200190815260200160002060010160009054906101000a900473ffffffffffffffffffffffffffffffffffffffff1693503373ffffffffffffffffffffffffffffffffffffffff168473ffffffffffffffffffffffffffffffffffffffff161415611b0c57600b60008681526020019081526020016000206040518060c0016040529081600082015481526020016001820160009054906101000a900473ffffffffffffffffffffffffffffffffffffffff1673ffffffffffffffffffffffffffffffffffffffff1673ffffffffffffffffffffffffffffffffffffffff1681526020016002820160009054906101000a900473ffffffffffffffffffffffffffffffffffffffff1673ffffffffffffffffffffffffffffffffffffffff1673ffffffffffffffffffffffffffffffffffffffff16815260200160038201548152602001600482015481526020016005820160009054906101000a900460ff161515151581525050925082878381518110611af257611af1614150565b5b60200260200101819052508180611b0890613b92565b9250505b8080611b1790613b92565b915050611943565b508597505050505050505090565b6000600160008473ffffffffffffffffffffffffffffffffffffffff1673ffffffffffffffffffffffffffffffffffffffff16815260200190815260200160002060008373ffffffffffffffffffffffffffffffffffffffff1673ffffffffffffffffffffffffffffffffffffffff16815260200190815260200160002060009054906101000a900460ff16905092915050565b611bc9612384565b73ffffffffffffffffffffffffffffffffffffffff168573ffffffffffffffffffffffffffffffffffffffff161480611c0f5750611c0e85611c09612384565b611b2d565b5b611c4e576040517f08c379a0000000000000000000000000000000000000000000000000000000008152600401611c4590614384565b60405180910390fd5b611c5b8585858585611fc3565b5050505050565b60007f01ffc9a7000000000000000000000000000000000000000000000000000000007bffffffffffffffffffffffffffffffffffffffffffffffffffffffff1916827bffffffffffffffffffffffffffffffffffffffffffffffffffffffff1916149050919050565b600073ffffffffffffffffffffffffffffffffffffffff168473ffffffffffffffffffffffffffffffffffffffff161415611d3c576040517f08c379a0000000000000000000000000000000000000000000000000000000008152600401611d3390614416565b60405180910390fd5b6000611d46612384565b9050611d6781600087611d588861280d565b611d618861280d565b87612887565b8260008086815260200190815260200160002060008773ffffffffffffffffffffffffffffffffffffffff1673ffffffffffffffffffffffffffffffffffffffff1681526020019081526020016000206000828254611dc69190614436565b925050819055508473ffffffffffffffffffffffffffffffffffffffff16600073ffffffffffffffffffffffffffffffffffffffff168273ffffffffffffffffffffffffffffffffffffffff167fc3d58168c5ae7397731d063d5bbf3d657854427343f4c083240f7aacaa2d0f628787604051611e449291906142e9565b60405180910390a4611e5b8160008787878761288f565b5050505050565b60606000821415611eaa576040518060400160405280600181526020017f30000000000000000000000000000000000000000000000000000000000000008152509050611fbe565b600082905060005b60008214611edc578080611ec590613b92565b915050600a82611ed59190613f9d565b9150611eb2565b60008167ffffffffffffffff811115611ef857611ef7612fa4565b5b6040519080825280601f01601f191660200182016040528015611f2a5781602001600182028036833780820191505090505b5090505b60008514611fb757600182611f439190613fce565b9150600a85611f52919061448c565b6030611f5e9190614436565b60f81b818381518110611f7457611f73614150565b5b60200101907effffffffffffffffffffffffffffffffffffffffffffffffffffffffffffff1916908160001a905350600a85611fb09190613f9d565b9450611f2e565b8093505050505b919050565b600073ffffffffffffffffffffffffffffffffffffffff168473ffffffffffffffffffffffffffffffffffffffff161415612033576040517f08c379a000000000000000000000000000000000000000000000000000000000815260040161202a9061452f565b60405180910390fd5b600061203d612384565b905061205d81878761204e8861280d565b6120578861280d565b87612887565b600080600086815260200190815260200160002060008873ffffffffffffffffffffffffffffffffffffffff1673ffffffffffffffffffffffffffffffffffffffff168152602001908152602001600020549050838110156120f4576040517f08c379a00000000000000000000000000000000000000000000000000000000081526004016120eb906145c1565b60405180910390fd5b83810360008087815260200190815260200160002060008973ffffffffffffffffffffffffffffffffffffffff1673ffffffffffffffffffffffffffffffffffffffff168152602001908152602001600020819055508360008087815260200190815260200160002060008873ffffffffffffffffffffffffffffffffffffffff1673ffffffffffffffffffffffffffffffffffffffff16815260200190815260200160002060008282546121a99190614436565b925050819055508573ffffffffffffffffffffffffffffffffffffffff168773ffffffffffffffffffffffffffffffffffffffff168373ffffffffffffffffffffffffffffffffffffffff167fc3d58168c5ae7397731d063d5bbf3d657854427343f4c083240f7aacaa2d0f6288886040516122269291906142e9565b60405180910390a461223c82888888888861288f565b50505050505050565b600080600960008573ffffffffffffffffffffffffffffffffffffffff1673ffffffffffffffffffffffffffffffffffffffff16815260200190815260200160002080549050905060005b818110156123775783600960008773ffffffffffffffffffffffffffffffffffffffff1673ffffffffffffffffffffffffffffffffffffffff16815260200190815260200160002082815481106122ea576122e9614150565b5b9060005260206000200154141561236457600960008673ffffffffffffffffffffffffffffffffffffffff1673ffffffffffffffffffffffffffffffffffffffff168152602001908152602001600020818154811061234c5761234b614150565b5b9060005260206000200160009055839250505061237e565b808061236f90613b92565b915050612290565b5060009150505b92915050565b600033905090565b81518351146123d0576040517f08c379a00000000000000000000000000000000000000000000000000000000081526004016123c790614653565b60405180910390fd5b600073ffffffffffffffffffffffffffffffffffffffff168473ffffffffffffffffffffffffffffffffffffffff161415612440576040517f08c379a00000000000000000000000000000000000000000000000000000000081526004016124379061452f565b60405180910390fd5b600061244a612384565b905061245a818787878787612887565b60005b845181101561260b57600085828151811061247b5761247a614150565b5b60200260200101519050600085838151811061249a57612499614150565b5b60200260200101519050600080600084815260200190815260200160002060008b73ffffffffffffffffffffffffffffffffffffffff1673ffffffffffffffffffffffffffffffffffffffff1681526020019081526020016000205490508181101561253b576040517f08c379a0000000000000000000000000000000000000000000000000000000008152600401612532906145c1565b60405180910390fd5b81810360008085815260200190815260200160002060008c73ffffffffffffffffffffffffffffffffffffffff1673ffffffffffffffffffffffffffffffffffffffff168152602001908152602001600020819055508160008085815260200190815260200160002060008b73ffffffffffffffffffffffffffffffffffffffff1673ffffffffffffffffffffffffffffffffffffffff16815260200190815260200160002060008282546125f09190614436565b925050819055505050508061260490613b92565b905061245d565b508473ffffffffffffffffffffffffffffffffffffffff168673ffffffffffffffffffffffffffffffffffffffff168273ffffffffffffffffffffffffffffffffffffffff167f4a39dc06d4c0dbc64b70af90fd698a233a518aa5d07e595d983b8c0526c8f7fb8787604051612682929190614673565b60405180910390a4612698818787878787612a67565b505050505050565b8173ffffffffffffffffffffffffffffffffffffffff168373ffffffffffffffffffffffffffffffffffffffff16141561270f576040517f08c379a00000000000000000000000000000000000000000000000000000000081526004016127069061471c565b60405180910390fd5b80600160008573ffffffffffffffffffffffffffffffffffffffff1673ffffffffffffffffffffffffffffffffffffffff16815260200190815260200160002060008473ffffffffffffffffffffffffffffffffffffffff1673ffffffffffffffffffffffffffffffffffffffff16815260200190815260200160002060006101000a81548160ff0219169083151502179055508173ffffffffffffffffffffffffffffffffffffffff168373ffffffffffffffffffffffffffffffffffffffff167f17307eab39ab6107e8899845ad3d59bd9653f200f220920489ca2b5937696c31836040516128009190612f1b565b60405180910390a3505050565b60606000600167ffffffffffffffff81111561282c5761282b612fa4565b5b60405190808252806020026020018201604052801561285a5781602001602082028036833780820191505090505b509050828160008151811061287257612871614150565b5b60200260200101818152505080915050919050565b505050505050565b6128ae8473ffffffffffffffffffffffffffffffffffffffff16612c3f565b15612a5f578373ffffffffffffffffffffffffffffffffffffffff1663f23a6e6187878686866040518663ffffffff1660e01b81526004016128f4959493929190614791565b6020604051808303816000875af192505050801561293057506040513d601f19601f8201168201806040525081019061292d9190614800565b60015b6129d65761293c61483a565b806308c379a01415612999575061295161485c565b8061295c575061299b565b806040517f08c379a000000000000000000000000000000000000000000000000000000000815260040161299091906131cd565b60405180910390fd5b505b6040517f08c379a00000000000000000000000000000000000000000000000000000000081526004016129cd90614964565b60405180910390fd5b63f23a6e6160e01b7bffffffffffffffffffffffffffffffffffffffffffffffffffffffff1916817bffffffffffffffffffffffffffffffffffffffffffffffffffffffff191614612a5d576040517f08c379a0000000000000000000000000000000000000000000000000000000008152600401612a54906149f6565b60405180910390fd5b505b505050505050565b612a868473ffffffffffffffffffffffffffffffffffffffff16612c3f565b15612c37578373ffffffffffffffffffffffffffffffffffffffff1663bc197c8187878686866040518663ffffffff1660e01b8152600401612acc959493929190614a16565b6020604051808303816000875af1925050508015612b0857506040513d601f19601f82011682018060405250810190612b059190614800565b60015b612bae57612b1461483a565b806308c379a01415612b715750612b2961485c565b80612b345750612b73565b806040517f08c379a0000000000000000000000000000000000000000000000000000000008152600401612b6891906131cd565b60405180910390fd5b505b6040517f08c379a0000000000000000000000000000000000000000000000000000000008152600401612ba590614964565b60405180910390fd5b63bc197c8160e01b7bffffffffffffffffffffffffffffffffffffffffffffffffffffffff1916817bffffffffffffffffffffffffffffffffffffffffffffffffffffffff191614612c35576040517f08c379a0000000000000000000000000000000000000000000000000000000008152600401612c2c906149f6565b60405180910390fd5b505b505050505050565b6000808273ffffffffffffffffffffffffffffffffffffffff163b119050919050565b828054612c6e90613c42565b90600052602060002090601f016020900481019282612c905760008555612cd7565b82601f10612ca957805160ff1916838001178555612cd7565b82800160010185558215612cd7579182015b82811115612cd6578251825591602001919060010190612cbb565b5b509050612ce49190612d4c565b5090565b6040518060c0016040528060008152602001600073ffffffffffffffffffffffffffffffffffffffff168152602001600073ffffffffffffffffffffffffffffffffffffffff16815260200160008152602001600081526020016000151581525090565b5b80821115612d65576000816000905550600101612d4d565b5090565b6000604051905090565b600080fd5b600080fd5b600073ffffffffffffffffffffffffffffffffffffffff82169050919050565b6000612da882612d7d565b9050919050565b612db881612d9d565b8114612dc357600080fd5b50565b600081359050612dd581612daf565b92915050565b6000819050919050565b612dee81612ddb565b8114612df957600080fd5b50565b600081359050612e0b81612de5565b92915050565b60008060408385031215612e2857612e27612d73565b5b6000612e3685828601612dc6565b9250506020612e4785828601612dfc565b9150509250929050565b612e5a81612ddb565b82525050565b6000602082019050612e756000830184612e51565b92915050565b60007fffffffff0000000000000000000000000000000000000000000000000000000082169050919050565b612eb081612e7b565b8114612ebb57600080fd5b50565b600081359050612ecd81612ea7565b92915050565b600060208284031215612ee957612ee8612d73565b5b6000612ef784828501612ebe565b91505092915050565b60008115159050919050565b612f1581612f00565b82525050565b6000602082019050612f306000830184612f0c565b92915050565b600080600060608486031215612f4f57612f4e612d73565b5b6000612f5d86828701612dfc565b9350506020612f6e86828701612dfc565b9250506040612f7f86828701612dfc565b9150509250925092565b600080fd5b600080fd5b6000601f19601f8301169050919050565b7f4e487b7100000000000000000000000000000000000000000000000000000000600052604160045260246000fd5b612fdc82612f93565b810181811067ffffffffffffffff82111715612ffb57612ffa612fa4565b5b80604052505050565b600061300e612d69565b905061301a8282612fd3565b919050565b600067ffffffffffffffff82111561303a57613039612fa4565b5b61304382612f93565b9050602081019050919050565b82818337600083830152505050565b600061307261306d8461301f565b613004565b90508281526020810184848401111561308e5761308d612f8e565b5b613099848285613050565b509392505050565b600082601f8301126130b6576130b5612f89565b5b81356130c684826020860161305f565b91505092915050565b6000602082840312156130e5576130e4612d73565b5b600082013567ffffffffffffffff81111561310357613102612d78565b5b61310f848285016130a1565b91505092915050565b60006020828403121561312e5761312d612d73565b5b600061313c84828501612dfc565b91505092915050565b600081519050919050565b600082825260208201905092915050565b60005b8381101561317f578082015181840152602081019050613164565b8381111561318e576000848401525b50505050565b600061319f82613145565b6131a98185613150565b93506131b9818560208601613161565b6131c281612f93565b840191505092915050565b600060208201905081810360008301526131e78184613194565b905092915050565b600067ffffffffffffffff82111561320a57613209612fa4565b5b602082029050602081019050919050565b600080fd5b600061323361322e846131ef565b613004565b905080838252602082019050602084028301858111156132565761325561321b565b5b835b8181101561327f578061326b8882612dfc565b845260208401935050602081019050613258565b5050509392505050565b600082601f83011261329e5761329d612f89565b5b81356132ae848260208601613220565b91505092915050565b600067ffffffffffffffff8211156132d2576132d1612fa4565b5b6132db82612f93565b9050602081019050919050565b60006132fb6132f6846132b7565b613004565b90508281526020810184848401111561331757613316612f8e565b5b613322848285613050565b509392505050565b600082601f83011261333f5761333e612f89565b5b813561334f8482602086016132e8565b91505092915050565b600080600080600060a0868803121561337457613373612d73565b5b600061338288828901612dc6565b955050602061339388828901612dc6565b945050604086013567ffffffffffffffff8111156133b4576133b3612d78565b5b6133c088828901613289565b935050606086013567ffffffffffffffff8111156133e1576133e0612d78565b5b6133ed88828901613289565b925050608086013567ffffffffffffffff81111561340e5761340d612d78565b5b61341a8882890161332a565b9150509295509295909350565b600067ffffffffffffffff82111561344257613441612fa4565b5b602082029050602081019050919050565b600061346661346184613427565b613004565b905080838252602082019050602084028301858111156134895761348861321b565b5b835b818110156134b2578061349e8882612dc6565b84526020840193505060208101905061348b565b5050509392505050565b600082601f8301126134d1576134d0612f89565b5b81356134e1848260208601613453565b91505092915050565b6000806040838503121561350157613500612d73565b5b600083013567ffffffffffffffff81111561351f5761351e612d78565b5b61352b858286016134bc565b925050602083013567ffffffffffffffff81111561354c5761354b612d78565b5b61355885828601613289565b9150509250929050565b600081519050919050565b600082825260208201905092915050565b6000819050602082019050919050565b61359781612ddb565b82525050565b60006135a9838361358e565b60208301905092915050565b6000602082019050919050565b60006135cd82613562565b6135d7818561356d565b93506135e28361357e565b8060005b838110156136135781516135fa888261359d565b9750613605836135b5565b9250506001810190506135e6565b5085935050505092915050565b6000602082019050818103600083015261363a81846135c2565b905092915050565b6000806040838503121561365957613658612d73565b5b600061366785828601612dfc565b925050602061367885828601612dfc565b9150509250929050565b61368b81612f00565b811461369657600080fd5b50565b6000813590506136a881613682565b92915050565b600080604083850312156136c5576136c4612d73565b5b60006136d385828601612dc6565b92505060206136e485828601613699565b9150509250929050565b600081519050919050565b600082825260208201905092915050565b6000819050602082019050919050565b600061372582612d7d565b9050919050565b6137358161371a565b82525050565b61374481612f00565b82525050565b60c082016000820151613760600085018261358e565b506020820151613773602085018261372c565b506040820151613786604085018261372c565b506060820151613799606085018261358e565b5060808201516137ac608085018261358e565b5060a08201516137bf60a085018261373b565b50505050565b60006137d1838361374a565b60c08301905092915050565b6000602082019050919050565b60006137f5826136ee565b6137ff81856136f9565b935061380a8361370a565b8060005b8381101561383b57815161382288826137c5565b975061382d836137dd565b92505060018101905061380e565b5085935050505092915050565b6000602082019050818103600083015261386281846137ea565b905092915050565b6000806040838503121561388157613880612d73565b5b600061388f85828601612dc6565b92505060206138a085828601612dc6565b9150509250929050565b600080600080600060a086880312156138c6576138c5612d73565b5b60006138d488828901612dc6565b95505060206138e588828901612dc6565b94505060406138f688828901612dfc565b935050606061390788828901612dfc565b925050608086013567ffffffffffffffff81111561392857613927612d78565b5b6139348882890161332a565b9150509295509295909350565b7f455243313135353a2062616c616e636520717565727920666f7220746865207a60008201527f65726f2061646472657373000000000000000000000000000000000000000000602082015250565b600061399d602b83613150565b91506139a882613941565b604082019050919050565b600060208201905081810360008301526139cc81613990565b9050919050565b7f596f7520646f6e27742068617665207065726d6973696f6e7320746f2065786560008201527f6375746520746869732066756e6374696f6e0000000000000000000000000000602082015250565b6000613a2f603283613150565b9150613a3a826139d3565b604082019050919050565b60006020820190508181036000830152613a5e81613a22565b9050919050565b7f54686973204e46542077617320616c7265616479206d696e7465640000000000600082015250565b6000613a9b601b83613150565b9150613aa682613a65565b602082019050919050565b60006020820190508181036000830152613aca81613a8e565b9050919050565b7f5a65726f206973206e6f7420616c6c6f7765642061732049442c20706c65617360008201527f20747279207769746820616e6f74686572206f6e650000000000000000000000602082015250565b6000613b2d603583613150565b9150613b3882613ad1565b604082019050919050565b60006020820190508181036000830152613b5c81613b20565b9050919050565b7f4e487b7100000000000000000000000000000000000000000000000000000000600052601160045260246000fd5b6000613b9d82612ddb565b91507fffffffffffffffffffffffffffffffffffffffffffffffffffffffffffffffff821415613bd057613bcf613b63565b5b600182019050919050565b613be481612d9d565b82525050565b6000604082019050613bff6000830185613bdb565b613c0c6020830184612e51565b9392505050565b7f4e487b7100000000000000000000000000000000000000000000000000000000600052602260045260246000fd5b60006002820490506001821680613c5a57607f821691505b60208210811415613c6e57613c6d613c13565b5b50919050565b600081905092915050565b60008190508160005260206000209050919050565b60008154613ca181613c42565b613cab8186613c74565b94506001821660008114613cc65760018114613cd757613d0a565b60ff19831686528186019350613d0a565b613ce085613c7f565b60005b83811015613d0257815481890152600182019150602081019050613ce3565b838801955050505b50505092915050565b7f2f00000000000000000000000000000000000000000000000000000000000000600082015250565b6000613d49600183613c74565b9150613d5482613d13565b600182019050919050565b6000613d6a82613145565b613d748185613c74565b9350613d84818560208601613161565b80840191505092915050565b7f2e6a736f6e000000000000000000000000000000000000000000000000000000600082015250565b6000613dc6600583613c74565b9150613dd182613d90565b600582019050919050565b6000613de88285613c94565b9150613df382613d3c565b9150613dff8284613d5f565b9150613e0a82613db9565b91508190509392505050565b7f54686973204e4654206e6f742065786973747300000000000000000000000000600082015250565b6000613e4c601383613150565b9150613e5782613e16565b602082019050919050565b60006020820190508181036000830152613e7b81613e3f565b9050919050565b7f506c656173652c20696e74726f64756365206120636f7272656374207072696360008201527f6500000000000000000000000000000000000000000000000000000000000000602082015250565b6000613ede602183613150565b9150613ee982613e82565b604082019050919050565b60006020820190508181036000830152613f0d81613ed1565b9050919050565b6000613f1f82612ddb565b9150613f2a83612ddb565b9250817fffffffffffffffffffffffffffffffffffffffffffffffffffffffffffffffff0483118215151615613f6357613f62613b63565b5b828202905092915050565b7f4e487b7100000000000000000000000000000000000000000000000000000000600052601260045260246000fd5b6000613fa882612ddb565b9150613fb383612ddb565b925082613fc357613fc2613f6e565b5b828204905092915050565b6000613fd982612ddb565b9150613fe483612ddb565b925082821015613ff757613ff6613b63565b5b828203905092915050565b600061400d82612ddb565b9150600082141561402157614020613b63565b5b600182039050919050565b7f455243313135353a207472616e736665722063616c6c6572206973206e6f742060008201527f6f776e6572206e6f7220617070726f7665640000000000000000000000000000602082015250565b6000614088603283613150565b91506140938261402c565b604082019050919050565b600060208201905081810360008301526140b78161407b565b9050919050565b7f455243313135353a206163636f756e747320616e6420696473206c656e67746860008201527f206d69736d617463680000000000000000000000000000000000000000000000602082015250565b600061411a602983613150565b9150614125826140be565b604082019050919050565b600060208201905081810360008301526141498161410d565b9050919050565b7f4e487b7100000000000000000000000000000000000000000000000000000000600052603260045260246000fd5b7f54686973206974656d206973206e6f742063757272656e746c79206f6e20736160008201527f6c65000000000000000000000000000000000000000000000000000000000000602082015250565b60006141db602283613150565b91506141e68261417f565b604082019050919050565b6000602082019050818103600083015261420a816141ce565b9050919050565b7f596f7520617265206e6f742074686973204e4654206f776e6572000000000000600082015250565b6000614247601a83613150565b915061425282614211565b602082019050919050565b600060208201905081810360008301526142768161423a565b9050919050565b7f54686973206974656d2069732063757272656e746c7920696e206d61726b6574600082015250565b60006142b3602083613150565b91506142be8261427d565b602082019050919050565b600060208201905081810360008301526142e2816142a6565b9050919050565b60006040820190506142fe6000830185612e51565b61430b6020830184612e51565b9392505050565b7f455243313135353a2063616c6c6572206973206e6f74206f776e6572206e6f7260008201527f20617070726f7665640000000000000000000000000000000000000000000000602082015250565b600061436e602983613150565b915061437982614312565b604082019050919050565b6000602082019050818103600083015261439d81614361565b9050919050565b7f455243313135353a206d696e7420746f20746865207a65726f2061646472657360008201527f7300000000000000000000000000000000000000000000000000000000000000602082015250565b6000614400602183613150565b915061440b826143a4565b604082019050919050565b6000602082019050818103600083015261442f816143f3565b9050919050565b600061444182612ddb565b915061444c83612ddb565b9250827fffffffffffffffffffffffffffffffffffffffffffffffffffffffffffffffff0382111561448157614480613b63565b5b828201905092915050565b600061449782612ddb565b91506144a283612ddb565b9250826144b2576144b1613f6e565b5b828206905092915050565b7f455243313135353a207472616e7366657220746f20746865207a65726f20616460008201527f6472657373000000000000000000000000000000000000000000000000000000602082015250565b6000614519602583613150565b9150614524826144bd565b604082019050919050565b600060208201905081810360008301526145488161450c565b9050919050565b7f455243313135353a20696e73756666696369656e742062616c616e636520666f60008201527f72207472616e7366657200000000000000000000000000000000000000000000602082015250565b60006145ab602a83613150565b91506145b68261454f565b604082019050919050565b600060208201905081810360008301526145da8161459e565b9050919050565b7f455243313135353a2069647320616e6420616d6f756e7473206c656e6774682060008201527f6d69736d61746368000000000000000000000000000000000000000000000000602082015250565b600061463d602883613150565b9150614648826145e1565b604082019050919050565b6000602082019050818103600083015261466c81614630565b9050919050565b6000604082019050818103600083015261468d81856135c2565b905081810360208301526146a181846135c2565b90509392505050565b7f455243313135353a2073657474696e6720617070726f76616c2073746174757360008201527f20666f722073656c660000000000000000000000000000000000000000000000602082015250565b6000614706602983613150565b9150614711826146aa565b604082019050919050565b60006020820190508181036000830152614735816146f9565b9050919050565b600081519050919050565b600082825260208201905092915050565b60006147638261473c565b61476d8185614747565b935061477d818560208601613161565b61478681612f93565b840191505092915050565b600060a0820190506147a66000830188613bdb565b6147b36020830187613bdb565b6147c06040830186612e51565b6147cd6060830185612e51565b81810360808301526147df8184614758565b90509695505050505050565b6000815190506147fa81612ea7565b92915050565b60006020828403121561481657614815612d73565b5b6000614824848285016147eb565b91505092915050565b60008160e01c9050919050565b600060033d11156148595760046000803e61485660005161482d565b90505b90565b600060443d101561486c576148ef565b614874612d69565b60043d036004823e80513d602482011167ffffffffffffffff8211171561489c5750506148ef565b808201805167ffffffffffffffff8111156148ba57505050506148ef565b80602083010160043d0385018111156148d75750505050506148ef565b6148e682602001850186612fd3565b82955050505050505b90565b7f455243313135353a207472616e7366657220746f206e6f6e204552433131353560008201527f526563656976657220696d706c656d656e746572000000000000000000000000602082015250565b600061494e603483613150565b9150614959826148f2565b604082019050919050565b6000602082019050818103600083015261497d81614941565b9050919050565b7f455243313135353a204552433131353552656365697665722072656a6563746560008201527f6420746f6b656e73000000000000000000000000000000000000000000000000602082015250565b60006149e0602883613150565b91506149eb82614984565b604082019050919050565b60006020820190508181036000830152614a0f816149d3565b9050919050565b600060a082019050614a2b6000830188613bdb565b614a386020830187613bdb565b8181036040830152614a4a81866135c2565b90508181036060830152614a5e81856135c2565b90508181036080830152614a728184614758565b9050969550505050505056fea2646970667358221220ce51da9632fd96d49589e80c7f7890a21d78595789d397aadc6046c8e287451164736f6c634300080a003368747470733a2f2f676174657761792e70696e6174612e636c6f75642f697066732f516d505a3275595465717353477447434464767031543957413967567a4b355176677347766a656d65695464316d",
  "immutableReferences": {},
  "source": "// SPDX-License-Identifier: MIT\r\npragma solidity ^0.8.0;\r\n\r\nimport \"../../node_modules/@openzeppelin/contracts/token/ERC1155/ERC1155.sol\";\r\nimport \"../../node_modules/@openzeppelin/contracts/utils/Strings.sol\";\r\n\r\ncontract My_NFT is ERC1155 {\r\n    \r\n    //State variables\r\n    uint private itemsOnSale; //Variable to count number of items on sale\r\n    uint[] private tokenKeys; //Array to save the different IDs of different NFT\r\n    address private contractOwner;//Variable to store the contract owner\r\n    string private _uri = \"https://gateway.pinata.cloud/ipfs/QmPZ2uYTeqsSGtGCDdvp1T9WA9gVzK5QvgsGvjemeiTd1m\"; //NFT metadata URL.\r\n\r\n    //Struct to create a new type called Item.\r\n    struct Item{\r\n        uint tokenId; // NFT identification number\r\n        address payable owner; //Who currently possess the NFT\r\n        address payable creator; //Who mint the NFT \r\n        uint amount; // Number of identical NFTs\r\n        uint price; //Current NFT price\r\n        bool sold; //Variable to control if NFT is sold or not\r\n    }\r\n\r\n    //Mappings\r\n    mapping (uint => bool) private isNFTRegistered; //Mapiing to know if an ID is registered\r\n    mapping (address => mapping (uint => bool)) private _isOwner; //Mapiing to know if one address posees an NFT\r\n    mapping (address => uint[]) private _owners; // Mapping the owner to NFT id\r\n    mapping (address => uint) private _numberOfItems; //Mapping to know the number of nfts of each acount \r\n    mapping (uint => Item) private tokenIdToItem; //Link the tokenID to the item\r\n\r\n    //Events\r\n    event minted(address holder, uint tokenId); //Event to inform that an item have been minted.\r\n    event itemBought(address buyer, uint tokenId); //Event to inform that an item have been bought.\r\n    event itemAddedToMkt(uint tokenId, uint price); //Event to inform that an item have been aded to market\r\n    event itemRemovedFromMkt(uint tokenId); //Event to inform that an item have been removed from market\r\n\r\n    //Function modifier\r\n    modifier onlyOwner(address _address){\r\n        require(_address == contractOwner, \"You don't have permisions to execute this function\");\r\n        _;\r\n    }\r\n\r\n    constructor() ERC1155(_uri){\r\n        contractOwner = msg.sender; //The contract owner is who executes the constructor\r\n    }\r\n\r\n    function mint(uint tokenId, uint amount, uint price) public onlyOwner(msg.sender) returns(uint){\r\n        \r\n        require(isNFTRegistered[tokenId] == false, \"This NFT was already minted\" );\r\n        require(tokenId > 0, \"Zero is not allowed as ID, pleas try with another one\" );\r\n\r\n        _mint(msg.sender, tokenId, amount, \"\"); //Call to ERC1155 mint function\r\n\r\n        //Set the information in the arrays or mappings\r\n        Item memory item = Item(tokenId, payable(msg.sender), payable(msg.sender), amount, price, false); //Create a new item\r\n        tokenIdToItem[tokenId] = item;  //Link an item with its ID.\r\n        tokenKeys.push(tokenId); //Push the tokenID in the tokenKeys array\r\n        isNFTRegistered[tokenId] = true; //Register the token id on the mapping\r\n        _isOwner[msg.sender][tokenId] = true; //The sender now posees this tokenId\r\n        _owners[msg.sender].push(tokenId); //Register the NFT owner in the mapping\r\n        _numberOfItems[msg.sender]++; //Increment the number of items for the sender\r\n        itemsOnSale++; //Incremente the number of items on sale\r\n\r\n        emit minted(msg.sender, tokenId); //Emit the event to inform the network\r\n        \r\n        return tokenId; //Return the token id mited\r\n    }\r\n\r\n    function getItemsOnSale() public view returns(Item[] memory){\r\n        Item[] memory itemsToSale = new Item[](itemsOnSale); //Create an static array to save the items to sale\r\n        \r\n        //Create and initialize the necessary variables\r\n        uint totalItems = tokenKeys.length; \r\n        uint currentId = 0;\r\n        uint pos = 0;\r\n\r\n        for(uint i = 0; i < totalItems; i++){ //Go through all the items\r\n            currentId = tokenKeys[i]; //Get the current id\r\n            bool isItemSold = tokenIdToItem[currentId].sold; //Check if the item is sold\r\n            \r\n            if(!isItemSold){ //If the item is not sold\r\n                Item memory currentItem = tokenIdToItem[currentId]; //Get this not sold item\r\n                itemsToSale[pos] = currentItem; //Store the current item into the array\r\n                pos++; //Increment the value of pos variable\r\n            } \r\n        }\r\n\r\n        return itemsToSale; //Return the array with items on sale.\r\n    }\r\n\r\n    function getMyItems() public view returns(Item[] memory){\r\n        \r\n        uint quantityOfItems = _numberOfItems[msg.sender]; //Get the number of items acquired by the current user\r\n        Item[] memory myItems = new Item[](quantityOfItems); //Create an static array to store the items\r\n        uint totalItems = tokenKeys.length; //Get the total number of items\r\n        uint currentId = 0; //Define currentId variable\r\n        address ownerOfCurrentItem; //Variable to store the owner of the current item\r\n        Item memory currentItem; //Variable to control the current item\r\n        uint pos = 0; //Variable to control the position in my_items array\r\n\r\n        for(uint i = 0; i < totalItems; i++){ //Iterate through all elements\r\n            currentId = tokenKeys[i]; //Get the ID on position i\r\n            ownerOfCurrentItem = tokenIdToItem[currentId].owner; //Get the owner of the current item\r\n\r\n            if(ownerOfCurrentItem == msg.sender){ //If the item owner is who executes the function\r\n                currentItem = tokenIdToItem[currentId]; //Get the current item\r\n                myItems[pos] = currentItem; //Add the current item to myItems array\r\n                pos++; //Increment the position variable\r\n            }\r\n        }\r\n        return myItems; //Return myItems array.\r\n    }\r\n\r\n    function isOwner(uint tokenId) public view returns(bool){\r\n        return _isOwner[msg.sender][tokenId];\r\n    }\r\n\r\n    function buyNft(uint tokenId) public payable{\r\n        require(isNFTRegistered[tokenId] == true, \"This NFT not exists\" ); \r\n        uint price = tokenIdToItem[tokenId].price; //Get the price of the item to buy\r\n        address currentOwner = tokenIdToItem[tokenId].owner; //Get the NFT current owner\r\n        require(msg.value == price, \"Please, introduce a correct price\"); \r\n\r\n        address creator = tokenIdToItem[tokenId].creator; //Get the NFT creator\r\n        \r\n        if(creator == currentOwner){ //If who creates the item is the current owner\r\n            tokenIdToItem[tokenId].owner.transfer(msg.value); //Pay the entire price to the owner\r\n        } else { //If who possess the NFT is not who creates it \r\n            uint royalty = (price * 3) / 100; //Set a royaltie of 3%\r\n            price -= royalty; //The price is the current price less the royaltie\r\n            \r\n            tokenIdToItem[tokenId].creator.transfer(royalty); //Pay to the creator \r\n            tokenIdToItem[tokenId].owner.transfer(price); //Pay to the current owner\r\n        }\r\n\r\n        _safeTransferFrom(currentOwner, msg.sender, tokenId, 1, \"\"); //Call to safeTransferFrom function in ERC-1155 contract\r\n\r\n        tokenIdToItem[tokenId].owner = payable(msg.sender); //Change the owner of the item\r\n        _isOwner[currentOwner][tokenId] = false; //The current owner is not the item owner\r\n        _isOwner[msg.sender][tokenId] = true; //Who buy the NFT is the current owner\r\n        _numberOfItems[currentOwner]--; //Subtract an item from the item counter to the current owner\r\n        _numberOfItems[msg.sender]++; //Add one item to the buyer counter\r\n        deleteItem(currentOwner, tokenId); //Cal the function delete item\r\n        _owners[msg.sender].push(tokenId); //Add the tokenId to the items acquired by the buyer\r\n        tokenIdToItem[tokenId].sold = true; //Item marked as sold\r\n        itemsOnSale--; //Subtract the items on sale\r\n\r\n        emit itemBought(msg.sender, tokenId); //Trigger the event\r\n    } \r\n    \r\n\r\n    function deleteItem(address lastOwner, uint tokenId) private returns(uint) {\r\n        uint size = _owners[lastOwner].length; // Get the number of items of lastOwner\r\n\r\n        for(uint i = 0; i < size; i++){ //Go through all these items\r\n            if(_owners[lastOwner][i] == tokenId){ //If the item to delete is reached\r\n                delete _owners[lastOwner][i]; //Delete the item\r\n                return tokenId; //Return the item removed to avoid more than necessary iterations\r\n            } \r\n        }\r\n        return 0; //If item is not removed return 0\r\n    }\r\n\r\n    function addToMarket(uint tokenId, uint price) public {\r\n        require( tokenIdToItem[tokenId].sold == true, \"This item is currently in market\" );\r\n        require( _isOwner[msg.sender][tokenId] == true, \"You are not this NFT owner\" );\r\n        tokenIdToItem[tokenId].price = price; //Adjust the price of the item\r\n        tokenIdToItem[tokenId].sold = false; //Item is not currently sold\r\n        itemsOnSale++; //Increment the number of items on sale\r\n        emit itemAddedToMkt(tokenId, price); ////Emit the event\r\n    }\r\n\r\n    function removeFromMarket(uint tokenId) public {\r\n        require( tokenIdToItem[tokenId].sold == false, \"This item is not currently on sale\" );\r\n        require( _isOwner[msg.sender][tokenId] == true, \"You are not this NFT owner\" );\r\n        tokenIdToItem[tokenId].sold = true; //Item marked as sold\r\n        itemsOnSale--; //Subtract the number of items on sale\r\n        emit itemRemovedFromMkt(tokenId); //Emit the event\r\n    }\r\n\r\n    function uri(uint256 tokenId) public view virtual override returns (string memory) {\r\n        return(string(abi.encodePacked(_uri,\"/\", Strings.toString(tokenId),\".json\")));\r\n    }\r\n\r\n    function setURI(string memory newURI) public onlyOwner(msg.sender) {\r\n        _uri = newURI;\r\n    }\r\n}",
  "sourcePath": "D:\\blockchain\\marketplace\\tfg_market\\src\\contracts\\My_NFT.sol",
  "compiler": {
    "name": "solc",
    "version": "0.8.10+commit.fc410830.Emscripten.clang"
  },
  "schemaVersion": "3.4.3",
  "updatedAt": "2022-03-19T06:15:42.364Z",
  "networkType": "ethereum",
  "devdoc": {
    "kind": "dev",
    "methods": {
      "balanceOf(address,uint256)": {
        "details": "See {IERC1155-balanceOf}. Requirements: - `account` cannot be the zero address."
      },
      "balanceOfBatch(address[],uint256[])": {
        "details": "See {IERC1155-balanceOfBatch}. Requirements: - `accounts` and `ids` must have the same length."
      },
      "isApprovedForAll(address,address)": {
        "details": "See {IERC1155-isApprovedForAll}."
      },
      "safeBatchTransferFrom(address,address,uint256[],uint256[],bytes)": {
        "details": "See {IERC1155-safeBatchTransferFrom}."
      },
      "safeTransferFrom(address,address,uint256,uint256,bytes)": {
        "details": "See {IERC1155-safeTransferFrom}."
      },
      "setApprovalForAll(address,bool)": {
        "details": "See {IERC1155-setApprovalForAll}."
      },
      "supportsInterface(bytes4)": {
        "details": "See {IERC165-supportsInterface}."
      }
    },
    "version": 1
  },
  "userdoc": {
    "kind": "user",
    "methods": {},
    "version": 1
  }
}