{
  "contractName": "My_NFT",
  "abi": [
    {
      "inputs": [],
      "stateMutability": "nonpayable",
      "type": "constructor"
    },
    {
      "anonymous": false,
      "inputs": [
        {
          "indexed": true,
          "internalType": "address",
          "name": "account",
          "type": "address"
        },
        {
          "indexed": true,
          "internalType": "address",
          "name": "operator",
          "type": "address"
        },
        {
          "indexed": false,
          "internalType": "bool",
          "name": "approved",
          "type": "bool"
        }
      ],
      "name": "ApprovalForAll",
      "type": "event"
    },
    {
      "anonymous": false,
      "inputs": [
        {
          "indexed": true,
          "internalType": "address",
          "name": "operator",
          "type": "address"
        },
        {
          "indexed": true,
          "internalType": "address",
          "name": "from",
          "type": "address"
        },
        {
          "indexed": true,
          "internalType": "address",
          "name": "to",
          "type": "address"
        },
        {
          "indexed": false,
          "internalType": "uint256[]",
          "name": "ids",
          "type": "uint256[]"
        },
        {
          "indexed": false,
          "internalType": "uint256[]",
          "name": "values",
          "type": "uint256[]"
        }
      ],
      "name": "TransferBatch",
      "type": "event"
    },
    {
      "anonymous": false,
      "inputs": [
        {
          "indexed": true,
          "internalType": "address",
          "name": "operator",
          "type": "address"
        },
        {
          "indexed": true,
          "internalType": "address",
          "name": "from",
          "type": "address"
        },
        {
          "indexed": true,
          "internalType": "address",
          "name": "to",
          "type": "address"
        },
        {
          "indexed": false,
          "internalType": "uint256",
          "name": "id",
          "type": "uint256"
        },
        {
          "indexed": false,
          "internalType": "uint256",
          "name": "value",
          "type": "uint256"
        }
      ],
      "name": "TransferSingle",
      "type": "event"
    },
    {
      "anonymous": false,
      "inputs": [
        {
          "indexed": false,
          "internalType": "string",
          "name": "value",
          "type": "string"
        },
        {
          "indexed": true,
          "internalType": "uint256",
          "name": "id",
          "type": "uint256"
        }
      ],
      "name": "URI",
      "type": "event"
    },
    {
      "inputs": [
        {
          "internalType": "address",
          "name": "account",
          "type": "address"
        },
        {
          "internalType": "uint256",
          "name": "id",
          "type": "uint256"
        }
      ],
      "name": "balanceOf",
      "outputs": [
        {
          "internalType": "uint256",
          "name": "",
          "type": "uint256"
        }
      ],
      "stateMutability": "view",
      "type": "function",
      "constant": true
    },
    {
      "inputs": [
        {
          "internalType": "address[]",
          "name": "accounts",
          "type": "address[]"
        },
        {
          "internalType": "uint256[]",
          "name": "ids",
          "type": "uint256[]"
        }
      ],
      "name": "balanceOfBatch",
      "outputs": [
        {
          "internalType": "uint256[]",
          "name": "",
          "type": "uint256[]"
        }
      ],
      "stateMutability": "view",
      "type": "function",
      "constant": true
    },
    {
      "inputs": [
        {
          "internalType": "address",
          "name": "account",
          "type": "address"
        },
        {
          "internalType": "address",
          "name": "operator",
          "type": "address"
        }
      ],
      "name": "isApprovedForAll",
      "outputs": [
        {
          "internalType": "bool",
          "name": "",
          "type": "bool"
        }
      ],
      "stateMutability": "view",
      "type": "function",
      "constant": true
    },
    {
      "inputs": [
        {
          "internalType": "address",
          "name": "from",
          "type": "address"
        },
        {
          "internalType": "address",
          "name": "to",
          "type": "address"
        },
        {
          "internalType": "uint256[]",
          "name": "ids",
          "type": "uint256[]"
        },
        {
          "internalType": "uint256[]",
          "name": "amounts",
          "type": "uint256[]"
        },
        {
          "internalType": "bytes",
          "name": "data",
          "type": "bytes"
        }
      ],
      "name": "safeBatchTransferFrom",
      "outputs": [],
      "stateMutability": "nonpayable",
      "type": "function"
    },
    {
      "inputs": [
        {
          "internalType": "address",
          "name": "from",
          "type": "address"
        },
        {
          "internalType": "address",
          "name": "to",
          "type": "address"
        },
        {
          "internalType": "uint256",
          "name": "id",
          "type": "uint256"
        },
        {
          "internalType": "uint256",
          "name": "amount",
          "type": "uint256"
        },
        {
          "internalType": "bytes",
          "name": "data",
          "type": "bytes"
        }
      ],
      "name": "safeTransferFrom",
      "outputs": [],
      "stateMutability": "nonpayable",
      "type": "function"
    },
    {
      "inputs": [
        {
          "internalType": "address",
          "name": "operator",
          "type": "address"
        },
        {
          "internalType": "bool",
          "name": "approved",
          "type": "bool"
        }
      ],
      "name": "setApprovalForAll",
      "outputs": [],
      "stateMutability": "nonpayable",
      "type": "function"
    },
    {
      "inputs": [
        {
          "internalType": "bytes4",
          "name": "interfaceId",
          "type": "bytes4"
        }
      ],
      "name": "supportsInterface",
      "outputs": [
        {
          "internalType": "bool",
          "name": "",
          "type": "bool"
        }
      ],
      "stateMutability": "view",
      "type": "function",
      "constant": true
    },
    {
      "inputs": [
        {
          "internalType": "uint256",
          "name": "id",
          "type": "uint256"
        }
      ],
      "name": "tokenOwner",
      "outputs": [
        {
          "internalType": "address",
          "name": "",
          "type": "address"
        }
      ],
      "stateMutability": "view",
      "type": "function",
      "constant": true
    },
    {
      "inputs": [
        {
          "internalType": "uint256",
          "name": "tokenId",
          "type": "uint256"
        }
      ],
      "name": "tokenURI",
      "outputs": [
        {
          "internalType": "string",
          "name": "",
          "type": "string"
        }
      ],
      "stateMutability": "view",
      "type": "function",
      "constant": true
    },
    {
      "inputs": [
        {
          "internalType": "uint256",
          "name": "",
          "type": "uint256"
        }
      ],
      "name": "uri",
      "outputs": [
        {
          "internalType": "string",
          "name": "",
          "type": "string"
        }
      ],
      "stateMutability": "view",
      "type": "function",
      "constant": true
    },
    {
      "inputs": [
        {
          "internalType": "string",
          "name": "tokenURI",
          "type": "string"
        },
        {
          "internalType": "uint256",
          "name": "tokenId",
          "type": "uint256"
        },
        {
          "internalType": "uint256",
          "name": "amount",
          "type": "uint256"
        },
        {
          "internalType": "string",
          "name": "property",
          "type": "string"
        },
        {
          "internalType": "uint256",
          "name": "price",
          "type": "uint256"
        }
      ],
      "name": "mint",
      "outputs": [
        {
          "internalType": "uint256",
          "name": "",
          "type": "uint256"
        }
      ],
      "stateMutability": "nonpayable",
      "type": "function"
    },
    {
      "inputs": [],
      "name": "getItemsOnSale",
      "outputs": [
        {
          "components": [
            {
              "internalType": "uint256",
              "name": "tokenId",
              "type": "uint256"
            },
            {
              "internalType": "address",
              "name": "nftContract",
              "type": "address"
            },
            {
              "internalType": "address payable",
              "name": "owner",
              "type": "address"
            },
            {
              "internalType": "address payable",
              "name": "creator",
              "type": "address"
            },
            {
              "internalType": "uint256",
              "name": "amount",
              "type": "uint256"
            },
            {
              "internalType": "string",
              "name": "property",
              "type": "string"
            },
            {
              "internalType": "uint256",
              "name": "price",
              "type": "uint256"
            },
            {
              "internalType": "bool",
              "name": "sold",
              "type": "bool"
            }
          ],
          "internalType": "struct My_NFT.Item[]",
          "name": "",
          "type": "tuple[]"
        }
      ],
      "stateMutability": "view",
      "type": "function",
      "constant": true
    },
    {
      "inputs": [],
      "name": "getMyItems",
      "outputs": [
        {
          "components": [
            {
              "internalType": "uint256",
              "name": "tokenId",
              "type": "uint256"
            },
            {
              "internalType": "address",
              "name": "nftContract",
              "type": "address"
            },
            {
              "internalType": "address payable",
              "name": "owner",
              "type": "address"
            },
            {
              "internalType": "address payable",
              "name": "creator",
              "type": "address"
            },
            {
              "internalType": "uint256",
              "name": "amount",
              "type": "uint256"
            },
            {
              "internalType": "string",
              "name": "property",
              "type": "string"
            },
            {
              "internalType": "uint256",
              "name": "price",
              "type": "uint256"
            },
            {
              "internalType": "bool",
              "name": "sold",
              "type": "bool"
            }
          ],
          "internalType": "struct My_NFT.Item[]",
          "name": "",
          "type": "tuple[]"
        }
      ],
      "stateMutability": "view",
      "type": "function",
      "constant": true
    },
    {
      "inputs": [
        {
          "internalType": "uint256",
          "name": "tokenId",
          "type": "uint256"
        }
      ],
      "name": "isOwner",
      "outputs": [
        {
          "internalType": "bool",
          "name": "",
          "type": "bool"
        }
      ],
      "stateMutability": "view",
      "type": "function",
      "constant": true
    },
    {
      "inputs": [
        {
          "internalType": "uint256",
          "name": "tokenId",
          "type": "uint256"
        }
      ],
      "name": "buyNft",
      "outputs": [],
      "stateMutability": "payable",
      "type": "function",
      "payable": true
    },
    {
      "inputs": [
        {
          "internalType": "uint256",
          "name": "tokenId",
          "type": "uint256"
        },
        {
          "internalType": "uint256",
          "name": "price",
          "type": "uint256"
        }
      ],
      "name": "addToMarket",
      "outputs": [],
      "stateMutability": "nonpayable",
      "type": "function"
    },
    {
      "inputs": [
        {
          "internalType": "uint256",
          "name": "tokenId",
          "type": "uint256"
        }
      ],
      "name": "removeFromMarket",
      "outputs": [],
      "stateMutability": "nonpayable",
      "type": "function"
    },
    {
      "inputs": [
        {
          "internalType": "uint256",
          "name": "tokenId",
          "type": "uint256"
        }
      ],
      "name": "burn",
      "outputs": [],
      "stateMutability": "nonpayable",
      "type": "function"
    }
  ],
  "bytecode": "0x60806040523480156200001157600080fd5b50604051806060016040528060218152602001620055e7602191396200003d816200008560201b60201c565b5033600760006101000a81548173ffffffffffffffffffffffffffffffffffffffff021916908373ffffffffffffffffffffffffffffffffffffffff160217905550620001b6565b80600490805190602001906200009d929190620000a1565b5050565b828054620000af9062000180565b90600052602060002090601f016020900481019282620000d357600085556200011f565b82601f10620000ee57805160ff19168380011785556200011f565b828001600101855582156200011f579182015b828111156200011e57825182559160200191906001019062000101565b5b5090506200012e919062000132565b5090565b5b808211156200014d57600081600090555060010162000133565b5090565b7f4e487b7100000000000000000000000000000000000000000000000000000000600052602260045260246000fd5b600060028204905060018216806200019957607f821691505b60208210811415620001b057620001af62000151565b5b50919050565b61542180620001c66000396000f3fe6080604052600436106101085760003560e01c80636457bd0411610095578063c37925e411610064578063c37925e41461038f578063c5fb207d146103cc578063c87b56dd146103f7578063e985e9c514610434578063f242432a1461047157610108565b80636457bd04146102e95780637fb5f7a614610312578063a22cb4651461033b578063bbcbc2e71461036457610108565b8063243adbdd116100dc578063243adbdd146102015780632eb2c2d61461021d57806339c7639c1461024657806342966c68146102835780634e1273f4146102ac57610108565b8062fdd58e1461010d57806301ffc9a71461014a5780630e89341c146101875780631caaa487146101c4575b600080fd5b34801561011957600080fd5b50610134600480360381019061012f9190613667565b61049a565b60405161014191906136b6565b60405180910390f35b34801561015657600080fd5b50610171600480360381019061016c9190613729565b610563565b60405161017e9190613771565b60405180910390f35b34801561019357600080fd5b506101ae60048036038101906101a9919061378c565b610645565b6040516101bb9190613852565b60405180910390f35b3480156101d057600080fd5b506101eb60048036038101906101e6919061378c565b6106d9565b6040516101f89190613883565b60405180910390f35b61021b6004803603810190610216919061378c565b610716565b005b34801561022957600080fd5b50610244600480360381019061023f9190613a9b565b610cc7565b005b34801561025257600080fd5b5061026d6004803603810190610268919061378c565b610d68565b60405161027a9190613771565b60405180910390f35b34801561028f57600080fd5b506102aa60048036038101906102a5919061378c565b610dcf565b005b3480156102b857600080fd5b506102d360048036038101906102ce9190613c2d565b611119565b6040516102e09190613d63565b60405180910390f35b3480156102f557600080fd5b50610310600480360381019061030b919061378c565b611232565b005b34801561031e57600080fd5b5061033960048036038101906103349190613d85565b61138a565b005b34801561034757600080fd5b50610362600480360381019061035d9190613df1565b6114fe565b005b34801561037057600080fd5b50610379611514565b604051610386919061402c565b60405180910390f35b34801561039b57600080fd5b506103b660048036038101906103b191906140ef565b611823565b6040516103c391906136b6565b60405180910390f35b3480156103d857600080fd5b506103e1611cef565b6040516103ee919061402c565b60405180910390f35b34801561040357600080fd5b5061041e6004803603810190610419919061378c565b612079565b60405161042b9190613852565b60405180910390f35b34801561044057600080fd5b5061045b600480360381019061045691906141a2565b612166565b6040516104689190613771565b60405180910390f35b34801561047d57600080fd5b50610498600480360381019061049391906141e2565b6121fa565b005b60008073ffffffffffffffffffffffffffffffffffffffff168373ffffffffffffffffffffffffffffffffffffffff16141561050b576040517f08c379a0000000000000000000000000000000000000000000000000000000008152600401610502906142eb565b60405180910390fd5b60008083815260200190815260200160002060008473ffffffffffffffffffffffffffffffffffffffff1673ffffffffffffffffffffffffffffffffffffffff16815260200190815260200160002054905092915050565b60007fd9b67a26000000000000000000000000000000000000000000000000000000007bffffffffffffffffffffffffffffffffffffffffffffffffffffffff1916827bffffffffffffffffffffffffffffffffffffffffffffffffffffffff1916148061062e57507f0e89341c000000000000000000000000000000000000000000000000000000007bffffffffffffffffffffffffffffffffffffffffffffffffffffffff1916827bffffffffffffffffffffffffffffffffffffffffffffffffffffffff1916145b8061063e575061063d8261220e565b5b9050919050565b6060600480546106549061433a565b80601f01602080910402602001604051908101604052809291908181526020018280546106809061433a565b80156106cd5780601f106106a2576101008083540402835291602001916106cd565b820191906000526020600020905b8154815290600101906020018083116106b057829003601f168201915b50505050509050919050565b60006003600083815260200190815260200160002060009054906101000a900473ffffffffffffffffffffffffffffffffffffffff169050919050565b600115156008600083815260200190815260200160002060009054906101000a900460ff1615151461077d576040517f08c379a0000000000000000000000000000000000000000000000000000000008152600401610774906143b8565b60405180910390fd5b6000600c60008381526020019081526020016000206006015490506000600c600084815260200190815260200160002060020160009054906101000a900473ffffffffffffffffffffffffffffffffffffffff169050813414610815576040517f08c379a000000000000000000000000000000000000000000000000000000000815260040161080c9061444a565b60405180910390fd5b6000600c600085815260200190815260200160002060030160009054906101000a900473ffffffffffffffffffffffffffffffffffffffff1690508173ffffffffffffffffffffffffffffffffffffffff168173ffffffffffffffffffffffffffffffffffffffff16141561090657600c600085815260200190815260200160002060020160009054906101000a900473ffffffffffffffffffffffffffffffffffffffff1673ffffffffffffffffffffffffffffffffffffffff166108fc349081150290604051600060405180830381858888f19350505050158015610900573d6000803e3d6000fd5b50610a1c565b6000666a94d74f4300009050808461091e9190614499565b9350600c600086815260200190815260200160002060030160009054906101000a900473ffffffffffffffffffffffffffffffffffffffff1673ffffffffffffffffffffffffffffffffffffffff166108fc829081150290604051600060405180830381858888f1935050505015801561099c573d6000803e3d6000fd5b50600c600086815260200190815260200160002060020160009054906101000a900473ffffffffffffffffffffffffffffffffffffffff1673ffffffffffffffffffffffffffffffffffffffff166108fc859081150290604051600060405180830381858888f19350505050158015610a19573d6000803e3d6000fd5b50505b610a398233866001604051806020016040528060008152506121fa565b33600c600086815260200190815260200160002060020160006101000a81548173ffffffffffffffffffffffffffffffffffffffff021916908373ffffffffffffffffffffffffffffffffffffffff1602179055506000600960008473ffffffffffffffffffffffffffffffffffffffff1673ffffffffffffffffffffffffffffffffffffffff168152602001908152602001600020600086815260200190815260200160002060006101000a81548160ff0219169083151502179055506001600960003373ffffffffffffffffffffffffffffffffffffffff1673ffffffffffffffffffffffffffffffffffffffff168152602001908152602001600020600086815260200190815260200160002060006101000a81548160ff021916908315150217905550600b60008373ffffffffffffffffffffffffffffffffffffffff1673ffffffffffffffffffffffffffffffffffffffff1681526020019081526020016000206000815480929190610bb0906144cd565b9190505550600b60003373ffffffffffffffffffffffffffffffffffffffff1673ffffffffffffffffffffffffffffffffffffffff1681526020019081526020016000206000815480929190610c05906144f7565b9190505550610c148285612278565b600a60003373ffffffffffffffffffffffffffffffffffffffff1673ffffffffffffffffffffffffffffffffffffffff1681526020019081526020016000208490806001815401808255809150506001900390600052602060002001600090919091909150556001600c600086815260200190815260200160002060070160006101000a81548160ff02191690831515021790555060056000815480929190610cbc906144cd565b919050555050505050565b610ccf6123a6565b73ffffffffffffffffffffffffffffffffffffffff168573ffffffffffffffffffffffffffffffffffffffff161480610d155750610d1485610d0f6123a6565b612166565b5b610d54576040517f08c379a0000000000000000000000000000000000000000000000000000000008152600401610d4b906145b2565b60405180910390fd5b610d6185858585856123ae565b5050505050565b6000600960003373ffffffffffffffffffffffffffffffffffffffff1673ffffffffffffffffffffffffffffffffffffffff168152602001908152602001600020600083815260200190815260200160002060009054906101000a900460ff169050919050565b600115156008600083815260200190815260200160002060009054906101000a900460ff16151514610e36576040517f08c379a0000000000000000000000000000000000000000000000000000000008152600401610e2d9061461e565b60405180910390fd5b60011515600c600083815260200190815260200160002060070160009054906101000a900460ff16151514610ea0576040517f08c379a0000000000000000000000000000000000000000000000000000000008152600401610e979061468a565b60405180910390fd5b60011515600960003373ffffffffffffffffffffffffffffffffffffffff1673ffffffffffffffffffffffffffffffffffffffff168152602001908152602001600020600083815260200190815260200160002060009054906101000a900460ff16151514610f44576040517f08c379a0000000000000000000000000000000000000000000000000000000008152600401610f3b9061471c565b60405180910390fd5b610f50338260016126c2565b60006008600083815260200190815260200160002060006101000a81548160ff0219169083151502179055506000600960003373ffffffffffffffffffffffffffffffffffffffff1673ffffffffffffffffffffffffffffffffffffffff168152602001908152602001600020600083815260200190815260200160002060006101000a81548160ff021916908315150217905550610fef3382612278565b6001600b60003373ffffffffffffffffffffffffffffffffffffffff1673ffffffffffffffffffffffffffffffffffffffff168152602001908152602001600020600082825461103f9190614499565b92505081905550600c60008281526020019081526020016000206000808201600090556001820160006101000a81549073ffffffffffffffffffffffffffffffffffffffff02191690556002820160006101000a81549073ffffffffffffffffffffffffffffffffffffffff02191690556003820160006101000a81549073ffffffffffffffffffffffffffffffffffffffff021916905560048201600090556005820160006110ef9190613453565b60068201600090556007820160006101000a81549060ff02191690555050611116816128df565b50565b6060815183511461115f576040517f08c379a0000000000000000000000000000000000000000000000000000000008152600401611156906147ae565b60405180910390fd5b6000835167ffffffffffffffff81111561117c5761117b6138a3565b5b6040519080825280602002602001820160405280156111aa5781602001602082028036833780820191505090505b50905060005b8451811015611227576111f78582815181106111cf576111ce6147ce565b5b60200260200101518583815181106111ea576111e96147ce565b5b602002602001015161049a565b82828151811061120a576112096147ce565b5b60200260200101818152505080611220906144f7565b90506111b0565b508091505092915050565b60001515600c600083815260200190815260200160002060070160009054906101000a900460ff1615151461129c576040517f08c379a00000000000000000000000000000000000000000000000000000000081526004016112939061486f565b60405180910390fd5b60011515600960003373ffffffffffffffffffffffffffffffffffffffff1673ffffffffffffffffffffffffffffffffffffffff168152602001908152602001600020600083815260200190815260200160002060009054906101000a900460ff16151514611340576040517f08c379a0000000000000000000000000000000000000000000000000000000008152600401611337906148db565b60405180910390fd5b6001600c600083815260200190815260200160002060070160006101000a81548160ff02191690831515021790555060056000815480929190611382906144cd565b919050555050565b60011515600c600084815260200190815260200160002060070160009054906101000a900460ff161515146113f4576040517f08c379a00000000000000000000000000000000000000000000000000000000081526004016113eb90614947565b60405180910390fd5b60011515600960003373ffffffffffffffffffffffffffffffffffffffff1673ffffffffffffffffffffffffffffffffffffffff168152602001908152602001600020600084815260200190815260200160002060009054906101000a900460ff16151514611498576040517f08c379a000000000000000000000000000000000000000000000000000000000815260040161148f906148db565b60405180910390fd5b80600c6000848152602001908152602001600020600601819055506000600c600084815260200190815260200160002060070160006101000a81548160ff021916908315150217905550600560008154809291906114f5906144f7565b91905055505050565b6115106115096123a6565b8383612951565b5050565b6060600060055467ffffffffffffffff811115611534576115336138a3565b5b60405190808252806020026020018201604052801561156d57816020015b61155a613493565b8152602001906001900390816115525790505b5090506000600680549050905060008060005b83811015611818576006818154811061159c5761159b6147ce565b5b906000526020600020015492506000600c600085815260200190815260200160002060070160009054906101000a900460ff169050801580156115e0575060008414155b15611804576000600c600086815260200190815260200160002060405180610100016040529081600082015481526020016001820160009054906101000a900473ffffffffffffffffffffffffffffffffffffffff1673ffffffffffffffffffffffffffffffffffffffff1673ffffffffffffffffffffffffffffffffffffffff1681526020016002820160009054906101000a900473ffffffffffffffffffffffffffffffffffffffff1673ffffffffffffffffffffffffffffffffffffffff1673ffffffffffffffffffffffffffffffffffffffff1681526020016003820160009054906101000a900473ffffffffffffffffffffffffffffffffffffffff1673ffffffffffffffffffffffffffffffffffffffff1673ffffffffffffffffffffffffffffffffffffffff1681526020016004820154815260200160058201805461172c9061433a565b80601f01602080910402602001604051908101604052809291908181526020018280546117589061433a565b80156117a55780601f1061177a576101008083540402835291602001916117a5565b820191906000526020600020905b81548152906001019060200180831161178857829003601f168201915b50505050508152602001600682015481526020016007820160009054906101000a900460ff1615151515815250509050808785815181106117e9576117e86147ce565b5b602002602001018190525083806117ff906144f7565b945050505b508080611810906144f7565b915050611580565b508394505050505090565b600033600760009054906101000a900473ffffffffffffffffffffffffffffffffffffffff1673ffffffffffffffffffffffffffffffffffffffff168173ffffffffffffffffffffffffffffffffffffffff16146118b6576040517f08c379a00000000000000000000000000000000000000000000000000000000081526004016118ad906149b3565b60405180910390fd5b600015156008600088815260200190815260200160002060009054906101000a900460ff1615151461191d576040517f08c379a000000000000000000000000000000000000000000000000000000000815260040161191490614a1f565b60405180910390fd5b6000861415611961576040517f08c379a000000000000000000000000000000000000000000000000000000000815260040161195890614ab1565b60405180910390fd5b61197c33878760405180602001604052806000815250612abe565b6119868688612ca6565b60006040518061010001604052808881526020013073ffffffffffffffffffffffffffffffffffffffff1681526020013373ffffffffffffffffffffffffffffffffffffffff1681526020013373ffffffffffffffffffffffffffffffffffffffff16815260200187815260200186815260200185815260200160001515815250905080600c60008981526020019081526020016000206000820151816000015560208201518160010160006101000a81548173ffffffffffffffffffffffffffffffffffffffff021916908373ffffffffffffffffffffffffffffffffffffffff16021790555060408201518160020160006101000a81548173ffffffffffffffffffffffffffffffffffffffff021916908373ffffffffffffffffffffffffffffffffffffffff16021790555060608201518160030160006101000a81548173ffffffffffffffffffffffffffffffffffffffff021916908373ffffffffffffffffffffffffffffffffffffffff1602179055506080820151816004015560a0820151816005019080519060200190611b2292919061351c565b5060c0820151816006015560e08201518160070160006101000a81548160ff021916908315150217905550905050600687908060018154018082558091505060019003906000526020600020016000909190919091505560016008600089815260200190815260200160002060006101000a81548160ff0219169083151502179055506001600960003373ffffffffffffffffffffffffffffffffffffffff1673ffffffffffffffffffffffffffffffffffffffff168152602001908152602001600020600089815260200190815260200160002060006101000a81548160ff021916908315150217905550600a60003373ffffffffffffffffffffffffffffffffffffffff1673ffffffffffffffffffffffffffffffffffffffff168152602001908152602001600020879080600181540180825580915050600190039060005260206000200160009091909190915055600b60003373ffffffffffffffffffffffffffffffffffffffff1673ffffffffffffffffffffffffffffffffffffffff1681526020019081526020016000206000815480929190611cc4906144f7565b919050555060056000815480929190611cdc906144f7565b9190505550869250505095945050505050565b60606000600b60003373ffffffffffffffffffffffffffffffffffffffff1673ffffffffffffffffffffffffffffffffffffffff16815260200190815260200160002054905060008167ffffffffffffffff811115611d5157611d506138a3565b5b604051908082528060200260200182016040528015611d8a57816020015b611d77613493565b815260200190600190039081611d6f5790505b50905060006006805490509050600080611da2613493565b6000805b8581101561206b5760068181548110611dc257611dc16147ce565b5b90600052602060002001549450600c600086815260200190815260200160002060020160009054906101000a900473ffffffffffffffffffffffffffffffffffffffff1693503373ffffffffffffffffffffffffffffffffffffffff168473ffffffffffffffffffffffffffffffffffffffff16141561205857600c600086815260200190815260200160002060405180610100016040529081600082015481526020016001820160009054906101000a900473ffffffffffffffffffffffffffffffffffffffff1673ffffffffffffffffffffffffffffffffffffffff1673ffffffffffffffffffffffffffffffffffffffff1681526020016002820160009054906101000a900473ffffffffffffffffffffffffffffffffffffffff1673ffffffffffffffffffffffffffffffffffffffff1673ffffffffffffffffffffffffffffffffffffffff1681526020016003820160009054906101000a900473ffffffffffffffffffffffffffffffffffffffff1673ffffffffffffffffffffffffffffffffffffffff1673ffffffffffffffffffffffffffffffffffffffff16815260200160048201548152602001600582018054611f819061433a565b80601f0160208091040260200160405190810160405280929190818152602001828054611fad9061433a565b8015611ffa5780601f10611fcf57610100808354040283529160200191611ffa565b820191906000526020600020905b815481529060010190602001808311611fdd57829003601f168201915b50505050508152602001600682015481526020016007820160009054906101000a900460ff16151515158152505092508287838151811061203e5761203d6147ce565b5b60200260200101819052508180612054906144f7565b9250505b8080612063906144f7565b915050611da6565b508597505050505050505090565b606061208482612d1a565b6120c3576040517f08c379a00000000000000000000000000000000000000000000000000000000081526004016120ba90614b43565b60405180910390fd5b6002600083815260200190815260200160002080546120e19061433a565b80601f016020809104026020016040519081016040528092919081815260200182805461210d9061433a565b801561215a5780601f1061212f5761010080835404028352916020019161215a565b820191906000526020600020905b81548152906001019060200180831161213d57829003601f168201915b50505050509050919050565b6000600160008473ffffffffffffffffffffffffffffffffffffffff1673ffffffffffffffffffffffffffffffffffffffff16815260200190815260200160002060008373ffffffffffffffffffffffffffffffffffffffff1673ffffffffffffffffffffffffffffffffffffffff16815260200190815260200160002060009054906101000a900460ff16905092915050565b6122078585858585612d8c565b5050505050565b60007f01ffc9a7000000000000000000000000000000000000000000000000000000007bffffffffffffffffffffffffffffffffffffffffffffffffffffffff1916827bffffffffffffffffffffffffffffffffffffffffffffffffffffffff1916149050919050565b6000600a60008473ffffffffffffffffffffffffffffffffffffffff1673ffffffffffffffffffffffffffffffffffffffff16815260200190815260200160002080549050905060005b818110156123a05782600a60008673ffffffffffffffffffffffffffffffffffffffff1673ffffffffffffffffffffffffffffffffffffffff168152602001908152602001600020828154811061231c5761231b6147ce565b5b9060005260206000200154141561238d57600a60008573ffffffffffffffffffffffffffffffffffffffff1673ffffffffffffffffffffffffffffffffffffffff168152602001908152602001600020818154811061237e5761237d6147ce565b5b90600052602060002001600090555b8080612398906144f7565b9150506122c2565b50505050565b600033905090565b81518351146123f2576040517f08c379a00000000000000000000000000000000000000000000000000000000081526004016123e990614bd5565b60405180910390fd5b600073ffffffffffffffffffffffffffffffffffffffff168473ffffffffffffffffffffffffffffffffffffffff161415612462576040517f08c379a000000000000000000000000000000000000000000000000000000000815260040161245990614c67565b60405180910390fd5b600061246c6123a6565b905061247c81878787878761300e565b60005b845181101561262d57600085828151811061249d5761249c6147ce565b5b6020026020010151905060008583815181106124bc576124bb6147ce565b5b60200260200101519050600080600084815260200190815260200160002060008b73ffffffffffffffffffffffffffffffffffffffff1673ffffffffffffffffffffffffffffffffffffffff1681526020019081526020016000205490508181101561255d576040517f08c379a000000000000000000000000000000000000000000000000000000000815260040161255490614cf9565b60405180910390fd5b81810360008085815260200190815260200160002060008c73ffffffffffffffffffffffffffffffffffffffff1673ffffffffffffffffffffffffffffffffffffffff168152602001908152602001600020819055508160008085815260200190815260200160002060008b73ffffffffffffffffffffffffffffffffffffffff1673ffffffffffffffffffffffffffffffffffffffff16815260200190815260200160002060008282546126129190614d19565b9250508190555050505080612626906144f7565b905061247f565b508473ffffffffffffffffffffffffffffffffffffffff168673ffffffffffffffffffffffffffffffffffffffff168273ffffffffffffffffffffffffffffffffffffffff167f4a39dc06d4c0dbc64b70af90fd698a233a518aa5d07e595d983b8c0526c8f7fb87876040516126a4929190614d6f565b60405180910390a46126ba818787878787613016565b505050505050565b600073ffffffffffffffffffffffffffffffffffffffff168373ffffffffffffffffffffffffffffffffffffffff161415612732576040517f08c379a000000000000000000000000000000000000000000000000000000000815260040161272990614e18565b60405180910390fd5b600061273c6123a6565b905061276c8185600061274e876131ee565b612757876131ee565b6040518060200160405280600081525061300e565b600080600085815260200190815260200160002060008673ffffffffffffffffffffffffffffffffffffffff1673ffffffffffffffffffffffffffffffffffffffff16815260200190815260200160002054905082811015612803576040517f08c379a00000000000000000000000000000000000000000000000000000000081526004016127fa90614eaa565b60405180910390fd5b82810360008086815260200190815260200160002060008773ffffffffffffffffffffffffffffffffffffffff1673ffffffffffffffffffffffffffffffffffffffff16815260200190815260200160002081905550600073ffffffffffffffffffffffffffffffffffffffff168573ffffffffffffffffffffffffffffffffffffffff168373ffffffffffffffffffffffffffffffffffffffff167fc3d58168c5ae7397731d063d5bbf3d657854427343f4c083240f7aacaa2d0f6287876040516128d0929190614eca565b60405180910390a45050505050565b60005b60068054905081101561294d578160068281548110612904576129036147ce565b5b9060005260206000200154141561293a5760006006828154811061292b5761292a6147ce565b5b90600052602060002001819055505b8080612945906144f7565b9150506128e2565b5050565b8173ffffffffffffffffffffffffffffffffffffffff168373ffffffffffffffffffffffffffffffffffffffff1614156129c0576040517f08c379a00000000000000000000000000000000000000000000000000000000081526004016129b790614f65565b60405180910390fd5b80600160008573ffffffffffffffffffffffffffffffffffffffff1673ffffffffffffffffffffffffffffffffffffffff16815260200190815260200160002060008473ffffffffffffffffffffffffffffffffffffffff1673ffffffffffffffffffffffffffffffffffffffff16815260200190815260200160002060006101000a81548160ff0219169083151502179055508173ffffffffffffffffffffffffffffffffffffffff168373ffffffffffffffffffffffffffffffffffffffff167f17307eab39ab6107e8899845ad3d59bd9653f200f220920489ca2b5937696c3183604051612ab19190613771565b60405180910390a3505050565b600073ffffffffffffffffffffffffffffffffffffffff168473ffffffffffffffffffffffffffffffffffffffff161415612b2e576040517f08c379a0000000000000000000000000000000000000000000000000000000008152600401612b2590614ff7565b60405180910390fd5b6000612b386123a6565b9050612b5981600087612b4a886131ee565b612b53886131ee565b8761300e565b8260008086815260200190815260200160002060008773ffffffffffffffffffffffffffffffffffffffff1673ffffffffffffffffffffffffffffffffffffffff1681526020019081526020016000206000828254612bb89190614d19565b92505081905550846003600086815260200190815260200160002060006101000a81548173ffffffffffffffffffffffffffffffffffffffff021916908373ffffffffffffffffffffffffffffffffffffffff1602179055508473ffffffffffffffffffffffffffffffffffffffff16600073ffffffffffffffffffffffffffffffffffffffff168273ffffffffffffffffffffffffffffffffffffffff167fc3d58168c5ae7397731d063d5bbf3d657854427343f4c083240f7aacaa2d0f628787604051612c88929190614eca565b60405180910390a4612c9f81600087878787613268565b5050505050565b612caf82612d1a565b612cee576040517f08c379a0000000000000000000000000000000000000000000000000000000008152600401612ce590615089565b60405180910390fd5b80600260008481526020019081526020016000209080519060200190612d1592919061351c565b505050565b6000806003600084815260200190815260200160002060009054906101000a900473ffffffffffffffffffffffffffffffffffffffff169050600073ffffffffffffffffffffffffffffffffffffffff168173ffffffffffffffffffffffffffffffffffffffff161415915050919050565b600073ffffffffffffffffffffffffffffffffffffffff168473ffffffffffffffffffffffffffffffffffffffff161415612dfc576040517f08c379a0000000000000000000000000000000000000000000000000000000008152600401612df390614c67565b60405180910390fd5b6000612e066123a6565b9050612e26818787612e17886131ee565b612e20886131ee565b8761300e565b600080600086815260200190815260200160002060008873ffffffffffffffffffffffffffffffffffffffff1673ffffffffffffffffffffffffffffffffffffffff16815260200190815260200160002054905083811015612ebd576040517f08c379a0000000000000000000000000000000000000000000000000000000008152600401612eb490614cf9565b60405180910390fd5b83810360008087815260200190815260200160002060008973ffffffffffffffffffffffffffffffffffffffff1673ffffffffffffffffffffffffffffffffffffffff168152602001908152602001600020819055508360008087815260200190815260200160002060008873ffffffffffffffffffffffffffffffffffffffff1673ffffffffffffffffffffffffffffffffffffffff1681526020019081526020016000206000828254612f729190614d19565b925050819055508573ffffffffffffffffffffffffffffffffffffffff168773ffffffffffffffffffffffffffffffffffffffff168373ffffffffffffffffffffffffffffffffffffffff167fc3d58168c5ae7397731d063d5bbf3d657854427343f4c083240f7aacaa2d0f628888604051612fef929190614eca565b60405180910390a4613005828888888888613268565b50505050505050565b505050505050565b6130358473ffffffffffffffffffffffffffffffffffffffff16613440565b156131e6578373ffffffffffffffffffffffffffffffffffffffff1663bc197c8187878686866040518663ffffffff1660e01b815260040161307b9594939291906150fe565b6020604051808303816000875af19250505080156130b757506040513d601f19601f820116820180604052508101906130b4919061517b565b60015b61315d576130c36151b5565b806308c379a0141561312057506130d86151d7565b806130e35750613122565b806040517f08c379a00000000000000000000000000000000000000000000000000000000081526004016131179190613852565b60405180910390fd5b505b6040517f08c379a0000000000000000000000000000000000000000000000000000000008152600401613154906152df565b60405180910390fd5b63bc197c8160e01b7bffffffffffffffffffffffffffffffffffffffffffffffffffffffff1916817bffffffffffffffffffffffffffffffffffffffffffffffffffffffff1916146131e4576040517f08c379a00000000000000000000000000000000000000000000000000000000081526004016131db90615371565b60405180910390fd5b505b505050505050565b60606000600167ffffffffffffffff81111561320d5761320c6138a3565b5b60405190808252806020026020018201604052801561323b5781602001602082028036833780820191505090505b5090508281600081518110613253576132526147ce565b5b60200260200101818152505080915050919050565b6132878473ffffffffffffffffffffffffffffffffffffffff16613440565b15613438578373ffffffffffffffffffffffffffffffffffffffff1663f23a6e6187878686866040518663ffffffff1660e01b81526004016132cd959493929190615391565b6020604051808303816000875af192505050801561330957506040513d601f19601f82011682018060405250810190613306919061517b565b60015b6133af576133156151b5565b806308c379a01415613372575061332a6151d7565b806133355750613374565b806040517f08c379a00000000000000000000000000000000000000000000000000000000081526004016133699190613852565b60405180910390fd5b505b6040517f08c379a00000000000000000000000000000000000000000000000000000000081526004016133a6906152df565b60405180910390fd5b63f23a6e6160e01b7bffffffffffffffffffffffffffffffffffffffffffffffffffffffff1916817bffffffffffffffffffffffffffffffffffffffffffffffffffffffff191614613436576040517f08c379a000000000000000000000000000000000000000000000000000000000815260040161342d90615371565b60405180910390fd5b505b505050505050565b600080823b905060008111915050919050565b50805461345f9061433a565b6000825580601f106134715750613490565b601f01602090049060005260206000209081019061348f91906135a2565b5b50565b60405180610100016040528060008152602001600073ffffffffffffffffffffffffffffffffffffffff168152602001600073ffffffffffffffffffffffffffffffffffffffff168152602001600073ffffffffffffffffffffffffffffffffffffffff1681526020016000815260200160608152602001600081526020016000151581525090565b8280546135289061433a565b90600052602060002090601f01602090048101928261354a5760008555613591565b82601f1061356357805160ff1916838001178555613591565b82800160010185558215613591579182015b82811115613590578251825591602001919060010190613575565b5b50905061359e91906135a2565b5090565b5b808211156135bb5760008160009055506001016135a3565b5090565b6000604051905090565b600080fd5b600080fd5b600073ffffffffffffffffffffffffffffffffffffffff82169050919050565b60006135fe826135d3565b9050919050565b61360e816135f3565b811461361957600080fd5b50565b60008135905061362b81613605565b92915050565b6000819050919050565b61364481613631565b811461364f57600080fd5b50565b6000813590506136618161363b565b92915050565b6000806040838503121561367e5761367d6135c9565b5b600061368c8582860161361c565b925050602061369d85828601613652565b9150509250929050565b6136b081613631565b82525050565b60006020820190506136cb60008301846136a7565b92915050565b60007fffffffff0000000000000000000000000000000000000000000000000000000082169050919050565b613706816136d1565b811461371157600080fd5b50565b600081359050613723816136fd565b92915050565b60006020828403121561373f5761373e6135c9565b5b600061374d84828501613714565b91505092915050565b60008115159050919050565b61376b81613756565b82525050565b60006020820190506137866000830184613762565b92915050565b6000602082840312156137a2576137a16135c9565b5b60006137b084828501613652565b91505092915050565b600081519050919050565b600082825260208201905092915050565b60005b838110156137f35780820151818401526020810190506137d8565b83811115613802576000848401525b50505050565b6000601f19601f8301169050919050565b6000613824826137b9565b61382e81856137c4565b935061383e8185602086016137d5565b61384781613808565b840191505092915050565b6000602082019050818103600083015261386c8184613819565b905092915050565b61387d816135f3565b82525050565b60006020820190506138986000830184613874565b92915050565b600080fd5b7f4e487b7100000000000000000000000000000000000000000000000000000000600052604160045260246000fd5b6138db82613808565b810181811067ffffffffffffffff821117156138fa576138f96138a3565b5b80604052505050565b600061390d6135bf565b905061391982826138d2565b919050565b600067ffffffffffffffff821115613939576139386138a3565b5b602082029050602081019050919050565b600080fd5b600061396261395d8461391e565b613903565b905080838252602082019050602084028301858111156139855761398461394a565b5b835b818110156139ae578061399a8882613652565b845260208401935050602081019050613987565b5050509392505050565b600082601f8301126139cd576139cc61389e565b5b81356139dd84826020860161394f565b91505092915050565b600080fd5b600067ffffffffffffffff821115613a0657613a056138a3565b5b613a0f82613808565b9050602081019050919050565b82818337600083830152505050565b6000613a3e613a39846139eb565b613903565b905082815260208101848484011115613a5a57613a596139e6565b5b613a65848285613a1c565b509392505050565b600082601f830112613a8257613a8161389e565b5b8135613a92848260208601613a2b565b91505092915050565b600080600080600060a08688031215613ab757613ab66135c9565b5b6000613ac58882890161361c565b9550506020613ad68882890161361c565b945050604086013567ffffffffffffffff811115613af757613af66135ce565b5b613b03888289016139b8565b935050606086013567ffffffffffffffff811115613b2457613b236135ce565b5b613b30888289016139b8565b925050608086013567ffffffffffffffff811115613b5157613b506135ce565b5b613b5d88828901613a6d565b9150509295509295909350565b600067ffffffffffffffff821115613b8557613b846138a3565b5b602082029050602081019050919050565b6000613ba9613ba484613b6a565b613903565b90508083825260208201905060208402830185811115613bcc57613bcb61394a565b5b835b81811015613bf55780613be1888261361c565b845260208401935050602081019050613bce565b5050509392505050565b600082601f830112613c1457613c1361389e565b5b8135613c24848260208601613b96565b91505092915050565b60008060408385031215613c4457613c436135c9565b5b600083013567ffffffffffffffff811115613c6257613c616135ce565b5b613c6e85828601613bff565b925050602083013567ffffffffffffffff811115613c8f57613c8e6135ce565b5b613c9b858286016139b8565b9150509250929050565b600081519050919050565b600082825260208201905092915050565b6000819050602082019050919050565b613cda81613631565b82525050565b6000613cec8383613cd1565b60208301905092915050565b6000602082019050919050565b6000613d1082613ca5565b613d1a8185613cb0565b9350613d2583613cc1565b8060005b83811015613d56578151613d3d8882613ce0565b9750613d4883613cf8565b925050600181019050613d29565b5085935050505092915050565b60006020820190508181036000830152613d7d8184613d05565b905092915050565b60008060408385031215613d9c57613d9b6135c9565b5b6000613daa85828601613652565b9250506020613dbb85828601613652565b9150509250929050565b613dce81613756565b8114613dd957600080fd5b50565b600081359050613deb81613dc5565b92915050565b60008060408385031215613e0857613e076135c9565b5b6000613e168582860161361c565b9250506020613e2785828601613ddc565b9150509250929050565b600081519050919050565b600082825260208201905092915050565b6000819050602082019050919050565b613e66816135f3565b82525050565b6000613e77826135d3565b9050919050565b613e8781613e6c565b82525050565b600082825260208201905092915050565b6000613ea9826137b9565b613eb38185613e8d565b9350613ec38185602086016137d5565b613ecc81613808565b840191505092915050565b613ee081613756565b82525050565b600061010083016000830151613eff6000860182613cd1565b506020830151613f126020860182613e5d565b506040830151613f256040860182613e7e565b506060830151613f386060860182613e7e565b506080830151613f4b6080860182613cd1565b5060a083015184820360a0860152613f638282613e9e565b91505060c0830151613f7860c0860182613cd1565b5060e0830151613f8b60e0860182613ed7565b508091505092915050565b6000613fa28383613ee6565b905092915050565b6000602082019050919050565b6000613fc282613e31565b613fcc8185613e3c565b935083602082028501613fde85613e4d565b8060005b8581101561401a5784840389528151613ffb8582613f96565b945061400683613faa565b925060208a01995050600181019050613fe2565b50829750879550505050505092915050565b600060208201905081810360008301526140468184613fb7565b905092915050565b600067ffffffffffffffff821115614069576140686138a3565b5b61407282613808565b9050602081019050919050565b600061409261408d8461404e565b613903565b9050828152602081018484840111156140ae576140ad6139e6565b5b6140b9848285613a1c565b509392505050565b600082601f8301126140d6576140d561389e565b5b81356140e684826020860161407f565b91505092915050565b600080600080600060a0868803121561410b5761410a6135c9565b5b600086013567ffffffffffffffff811115614129576141286135ce565b5b614135888289016140c1565b955050602061414688828901613652565b945050604061415788828901613652565b935050606086013567ffffffffffffffff811115614178576141776135ce565b5b614184888289016140c1565b925050608061419588828901613652565b9150509295509295909350565b600080604083850312156141b9576141b86135c9565b5b60006141c78582860161361c565b92505060206141d88582860161361c565b9150509250929050565b600080600080600060a086880312156141fe576141fd6135c9565b5b600061420c8882890161361c565b955050602061421d8882890161361c565b945050604061422e88828901613652565b935050606061423f88828901613652565b925050608086013567ffffffffffffffff8111156142605761425f6135ce565b5b61426c88828901613a6d565b9150509295509295909350565b7f455243313135353a2062616c616e636520717565727920666f7220746865207a60008201527f65726f2061646472657373000000000000000000000000000000000000000000602082015250565b60006142d5602b836137c4565b91506142e082614279565b604082019050919050565b60006020820190508181036000830152614304816142c8565b9050919050565b7f4e487b7100000000000000000000000000000000000000000000000000000000600052602260045260246000fd5b6000600282049050600182168061435257607f821691505b602082108114156143665761436561430b565b5b50919050565b7f54686973204e4654206e6f742065786973747300000000000000000000000000600082015250565b60006143a26013836137c4565b91506143ad8261436c565b602082019050919050565b600060208201905081810360008301526143d181614395565b9050919050565b7f506c656173652c20696e74726f64756365206120636f7272656374207072696360008201527f6500000000000000000000000000000000000000000000000000000000000000602082015250565b60006144346021836137c4565b915061443f826143d8565b604082019050919050565b6000602082019050818103600083015261446381614427565b9050919050565b7f4e487b7100000000000000000000000000000000000000000000000000000000600052601160045260246000fd5b60006144a482613631565b91506144af83613631565b9250828210156144c2576144c161446a565b5b828203905092915050565b60006144d882613631565b915060008214156144ec576144eb61446a565b5b600182039050919050565b600061450282613631565b91507fffffffffffffffffffffffffffffffffffffffffffffffffffffffffffffffff8214156145355761453461446a565b5b600182019050919050565b7f455243313135353a207472616e736665722063616c6c6572206973206e6f742060008201527f6f776e6572206e6f7220617070726f7665640000000000000000000000000000602082015250565b600061459c6032836137c4565b91506145a782614540565b604082019050919050565b600060208201905081810360008301526145cb8161458f565b9050919050565b7f54686973204e4654206973206e6f742072656769737465726564000000000000600082015250565b6000614608601a836137c4565b9150614613826145d2565b602082019050919050565b60006020820190508181036000830152614637816145fb565b9050919050565b7f54686973204e46542069732063757272656e746c79206f6e206d61726b657400600082015250565b6000614674601f836137c4565b915061467f8261463e565b602082019050919050565b600060208201905081810360008301526146a381614667565b9050919050565b7f596f7520617265206e6f7420746865206f776e6572206f662074686973204e4660008201527f5400000000000000000000000000000000000000000000000000000000000000602082015250565b60006147066021836137c4565b9150614711826146aa565b604082019050919050565b60006020820190508181036000830152614735816146f9565b9050919050565b7f455243313135353a206163636f756e747320616e6420696473206c656e67746860008201527f206d69736d617463680000000000000000000000000000000000000000000000602082015250565b60006147986029836137c4565b91506147a38261473c565b604082019050919050565b600060208201905081810360008301526147c78161478b565b9050919050565b7f4e487b7100000000000000000000000000000000000000000000000000000000600052603260045260246000fd5b7f54686973206974656d206973206e6f742063757272656e746c79206f6e20736160008201527f6c65000000000000000000000000000000000000000000000000000000000000602082015250565b60006148596022836137c4565b9150614864826147fd565b604082019050919050565b600060208201905081810360008301526148888161484c565b9050919050565b7f596f7520617265206e6f742074686973204e4654206f776e6572000000000000600082015250565b60006148c5601a836137c4565b91506148d08261488f565b602082019050919050565b600060208201905081810360008301526148f4816148b8565b9050919050565b7f54686973206974656d2069732063757272656e746c7920696e206d61726b6574600082015250565b60006149316020836137c4565b915061493c826148fb565b602082019050919050565b6000602082019050818103600083015261496081614924565b9050919050565b7f596f7520646f6e27742068617665207065726d6973696f6e7300000000000000600082015250565b600061499d6019836137c4565b91506149a882614967565b602082019050919050565b600060208201905081810360008301526149cc81614990565b9050919050565b7f54686973204e46542077617320616c7265616479206d696e7465640000000000600082015250565b6000614a09601b836137c4565b9150614a14826149d3565b602082019050919050565b60006020820190508181036000830152614a38816149fc565b9050919050565b7f5a65726f206973206e6f7420616c6c6f7765642061732049442c20706c65617360008201527f20747279207769746820616e6f74686572206f6e650000000000000000000000602082015250565b6000614a9b6035836137c4565b9150614aa682614a3f565b604082019050919050565b60006020820190508181036000830152614aca81614a8e565b9050919050565b7f4552433732314d657461646174613a2055524920717565727920666f72206e6f60008201527f6e6578697374656e7420746f6b656e0000000000000000000000000000000000602082015250565b6000614b2d602f836137c4565b9150614b3882614ad1565b604082019050919050565b60006020820190508181036000830152614b5c81614b20565b9050919050565b7f455243313135353a2069647320616e6420616d6f756e7473206c656e6774682060008201527f6d69736d61746368000000000000000000000000000000000000000000000000602082015250565b6000614bbf6028836137c4565b9150614bca82614b63565b604082019050919050565b60006020820190508181036000830152614bee81614bb2565b9050919050565b7f455243313135353a207472616e7366657220746f20746865207a65726f20616460008201527f6472657373000000000000000000000000000000000000000000000000000000602082015250565b6000614c516025836137c4565b9150614c5c82614bf5565b604082019050919050565b60006020820190508181036000830152614c8081614c44565b9050919050565b7f455243313135353a20696e73756666696369656e742062616c616e636520666f60008201527f72207472616e7366657200000000000000000000000000000000000000000000602082015250565b6000614ce3602a836137c4565b9150614cee82614c87565b604082019050919050565b60006020820190508181036000830152614d1281614cd6565b9050919050565b6000614d2482613631565b9150614d2f83613631565b9250827fffffffffffffffffffffffffffffffffffffffffffffffffffffffffffffffff03821115614d6457614d6361446a565b5b828201905092915050565b60006040820190508181036000830152614d898185613d05565b90508181036020830152614d9d8184613d05565b90509392505050565b7f455243313135353a206275726e2066726f6d20746865207a65726f206164647260008201527f6573730000000000000000000000000000000000000000000000000000000000602082015250565b6000614e026023836137c4565b9150614e0d82614da6565b604082019050919050565b60006020820190508181036000830152614e3181614df5565b9050919050565b7f455243313135353a206275726e20616d6f756e7420657863656564732062616c60008201527f616e636500000000000000000000000000000000000000000000000000000000602082015250565b6000614e946024836137c4565b9150614e9f82614e38565b604082019050919050565b60006020820190508181036000830152614ec381614e87565b9050919050565b6000604082019050614edf60008301856136a7565b614eec60208301846136a7565b9392505050565b7f455243313135353a2073657474696e6720617070726f76616c2073746174757360008201527f20666f722073656c660000000000000000000000000000000000000000000000602082015250565b6000614f4f6029836137c4565b9150614f5a82614ef3565b604082019050919050565b60006020820190508181036000830152614f7e81614f42565b9050919050565b7f455243313135353a206d696e7420746f20746865207a65726f2061646472657360008201527f7300000000000000000000000000000000000000000000000000000000000000602082015250565b6000614fe16021836137c4565b9150614fec82614f85565b604082019050919050565b6000602082019050818103600083015261501081614fd4565b9050919050565b7f4552433732314d657461646174613a2055524920736574206f66206e6f6e657860008201527f697374656e7420746f6b656e0000000000000000000000000000000000000000602082015250565b6000615073602c836137c4565b915061507e82615017565b604082019050919050565b600060208201905081810360008301526150a281615066565b9050919050565b600081519050919050565b600082825260208201905092915050565b60006150d0826150a9565b6150da81856150b4565b93506150ea8185602086016137d5565b6150f381613808565b840191505092915050565b600060a0820190506151136000830188613874565b6151206020830187613874565b81810360408301526151328186613d05565b905081810360608301526151468185613d05565b9050818103608083015261515a81846150c5565b90509695505050505050565b600081519050615175816136fd565b92915050565b600060208284031215615191576151906135c9565b5b600061519f84828501615166565b91505092915050565b60008160e01c9050919050565b600060033d11156151d45760046000803e6151d16000516151a8565b90505b90565b600060443d10156151e75761526a565b6151ef6135bf565b60043d036004823e80513d602482011167ffffffffffffffff8211171561521757505061526a565b808201805167ffffffffffffffff811115615235575050505061526a565b80602083010160043d03850181111561525257505050505061526a565b615261826020018501866138d2565b82955050505050505b90565b7f455243313135353a207472616e7366657220746f206e6f6e204552433131353560008201527f526563656976657220696d706c656d656e746572000000000000000000000000602082015250565b60006152c96034836137c4565b91506152d48261526d565b604082019050919050565b600060208201905081810360008301526152f8816152bc565b9050919050565b7f455243313135353a204552433131353552656365697665722072656a6563746560008201527f6420746f6b656e73000000000000000000000000000000000000000000000000602082015250565b600061535b6028836137c4565b9150615366826152ff565b604082019050919050565b6000602082019050818103600083015261538a8161534e565b9050919050565b600060a0820190506153a66000830188613874565b6153b36020830187613874565b6153c060408301866136a7565b6153cd60608301856136a7565b81810360808301526153df81846150c5565b9050969550505050505056fea26469706673582212209d53a11039327f227c10a8cebadaf2c59e216d2f83ec0bce7bce3449f0844aa964736f6c634300080a003368747470733a2f2f697066732e696e667572612e696f2f697066732f247b69647d",
  "immutableReferences": {},
  "source": "// SPDX-License-Identifier: MIT\r\npragma solidity ^0.8.0;\r\nimport \"./ERC19.sol\";\r\n\r\ncontract My_NFT is ERC19 {\r\n    //Global variables\r\n    uint private itemsOnSale;\r\n    uint[] private tokenKeys; //Array to save the different IDs of different NFT\r\n    address private contractOwner;\r\n\r\n    //Create new type\r\n    struct Item{\r\n        uint tokenId;\r\n        address nftContract;\r\n        address payable owner;\r\n        address payable creator;\r\n        uint amount;\r\n        string property;\r\n        uint price;\r\n        bool sold;\r\n    }\r\n\r\n    //Mappings\r\n    mapping (uint => bool) private isNFTRegistered; //Map to know if an ID is registered\r\n    mapping (address => mapping (uint => bool)) private _isOwner; //Map to know if one address posees an NFT\r\n    mapping (address => uint[]) private _owners; // Mapping the owner to NFT id\r\n    mapping (address => uint) private _numberOfItems; //Mapping to know the number of nfts of each acount \r\n    mapping (uint => Item) private tokenIdToItem; //Link the tokenID to the item\r\n\r\n    //Visibility modifier\r\n    modifier unique(address _address){\r\n        require(_address == contractOwner, \"You don't have permisions\");\r\n        _;\r\n    }\r\n\r\n    constructor() ERC19(\"https://ipfs.infura.io/ipfs/${id}\"){\r\n        contractOwner = msg.sender;\r\n    }\r\n\r\n    function mint(string memory tokenURI, uint256 tokenId, uint256 amount, string memory property, uint price) public unique(msg.sender) returns(uint){\r\n        require(isNFTRegistered[tokenId] == false, \"This NFT was already minted\" );\r\n        require(tokenId != 0, \"Zero is not allowed as ID, pleas try with another one\" );\r\n\r\n        _mint(msg.sender, tokenId, amount, \"\");\r\n        _setTokenURI(tokenId, tokenURI);\r\n\r\n        //Set the information in the arrays or mappings\r\n        Item memory item = Item(tokenId, address(this), payable(msg.sender), payable(msg.sender), amount, property, price, false);\r\n        tokenIdToItem[tokenId] = item;  //Insert an item in the mapping current position\r\n        tokenKeys.push(tokenId); //Push the tokenID in the tokenKeys array\r\n        isNFTRegistered[tokenId] = true; //Register the token id on the mapping\r\n        _isOwner[msg.sender][tokenId] = true; //The sender now posees this tokenId\r\n        _owners[msg.sender].push(tokenId); //Register the NFT owner in the mapping\r\n        _numberOfItems[msg.sender]++; //Increment the number of items for the sender\r\n        itemsOnSale++;\r\n\r\n        return tokenId;\r\n    }\r\n\r\n    function getItemsOnSale() public view returns(Item[] memory){\r\n        Item[] memory itemsToSale = new Item[](itemsOnSale); //Create an array to save the items to sale\r\n        \r\n        //Create the necessary variables\r\n        uint totalItems = tokenKeys.length; \r\n        uint currentId = 0;\r\n        uint pos = 0;\r\n\r\n        for(uint i = 0; i < totalItems; i++){ //Go through all the items\r\n            currentId = tokenKeys[i]; //Get the current id\r\n            bool isItemSold = tokenIdToItem[currentId].sold; //Check if the item is sold\r\n            \r\n            if(!isItemSold && currentId != 0){ //If the item is not sold or burned\r\n                Item memory currentItem = tokenIdToItem[currentId]; //Get this not sold item\r\n                itemsToSale[pos] = currentItem; //Save it into the array\r\n                pos++; //Increment the value of pos variable\r\n            } \r\n        }\r\n\r\n        return itemsToSale;\r\n    }\r\n\r\n    function getMyItems() public view returns(Item[] memory){\r\n        \r\n        uint quantityOfItems = _numberOfItems[msg.sender];\r\n        Item[] memory myItems = new Item[](quantityOfItems);\r\n        uint totalItems = tokenKeys.length;\r\n        uint currentId = 0;\r\n        address ownerOfCurrentItem;\r\n        Item memory currentItem;\r\n        uint pos = 0;\r\n\r\n        for(uint i = 0; i < totalItems; i++){\r\n            currentId = tokenKeys[i];\r\n            ownerOfCurrentItem = tokenIdToItem[currentId].owner;\r\n\r\n            if(ownerOfCurrentItem == msg.sender){\r\n                currentItem = tokenIdToItem[currentId];\r\n                myItems[pos] = currentItem;\r\n                pos++;\r\n            }\r\n        }\r\n        return myItems;\r\n    }\r\n\r\n    function isOwner(uint tokenId) public view returns(bool){\r\n        return _isOwner[msg.sender][tokenId];\r\n    }\r\n\r\n    function buyNft(uint tokenId) public payable{\r\n        require(isNFTRegistered[tokenId] == true, \"This NFT not exists\" );\r\n        uint price = tokenIdToItem[tokenId].price;\r\n        address currentOwner = tokenIdToItem[tokenId].owner;\r\n        require(msg.value == price, \"Please, introduce a correct price\");\r\n\r\n        //if the creator != current owner pay a % of total\r\n        address creator = tokenIdToItem[tokenId].creator;\r\n        \r\n        if(creator == currentOwner){\r\n            tokenIdToItem[tokenId].owner.transfer(msg.value);\r\n        } else {\r\n            uint royalty = 0.03 ether;\r\n            price -= royalty;\r\n\r\n            tokenIdToItem[tokenId].creator.transfer(royalty); //Pay to the creator the 3% of current price\r\n            tokenIdToItem[tokenId].owner.transfer(price);\r\n        }\r\n\r\n        safeTransferFrom(currentOwner, msg.sender, tokenId, 1, \"\");\r\n\r\n        //Modify owner\r\n        tokenIdToItem[tokenId].owner = payable(msg.sender); // review payable: Why if owner is payable intrinsically on the struct, I have to do it payable again)\r\n\r\n        //Modify required mappings\r\n        _isOwner[currentOwner][tokenId] = false;\r\n        _isOwner[msg.sender][tokenId] = true;\r\n\r\n        //Modify the number of items of each account\r\n        _numberOfItems[currentOwner]--;\r\n        _numberOfItems[msg.sender]++;\r\n\r\n        deleteItem(currentOwner, tokenId);\r\n        _owners[msg.sender].push(tokenId);\r\n        \r\n        //Mark this item as sold\r\n        tokenIdToItem[tokenId].sold = true;\r\n        itemsOnSale--;\r\n    } \r\n    \r\n\r\n    function deleteItem(address lastOwner, uint tokenId) private{\r\n        uint size = _owners[lastOwner].length;\r\n\r\n        for(uint i = 0; i < size; i++){\r\n            if(_owners[lastOwner][i] == tokenId)\r\n                delete _owners[lastOwner][i];\r\n        }\r\n    }\r\n\r\n    function addToMarket(uint tokenId, uint price) public {\r\n        require( tokenIdToItem[tokenId].sold == true, \"This item is currently in market\" );\r\n        require( _isOwner[msg.sender][tokenId] == true, \"You are not this NFT owner\" );\r\n        tokenIdToItem[tokenId].price = price;\r\n        tokenIdToItem[tokenId].sold = false;\r\n        itemsOnSale++;\r\n    }\r\n\r\n    function removeFromMarket(uint tokenId) public {\r\n        require( tokenIdToItem[tokenId].sold == false, \"This item is not currently on sale\" );\r\n        require( _isOwner[msg.sender][tokenId] == true, \"You are not this NFT owner\" );\r\n        tokenIdToItem[tokenId].sold = true;\r\n        itemsOnSale--;\r\n    }\r\n\r\n    function burn(uint tokenId) public {\r\n        require(isNFTRegistered[tokenId] == true, \"This NFT is not registered\");\r\n        require(tokenIdToItem[tokenId].sold == true, \"This NFT is currently on market\");\r\n        require(_isOwner[msg.sender][tokenId] == true, \"You are not the owner of this NFT\");\r\n\r\n        _burn(msg.sender, tokenId, 1);\r\n\r\n        //Update mappings\r\n        isNFTRegistered[tokenId] = false;\r\n        _isOwner[msg.sender][tokenId] = false;\r\n        deleteItem(msg.sender, tokenId);\r\n        _numberOfItems[msg.sender]-=1;\r\n        delete tokenIdToItem[tokenId];\r\n\r\n        //Update variables\r\n        deleteTokenKey(tokenId);\r\n    }\r\n\r\n    function deleteTokenKey(uint tokenId) private {\r\n        for(uint i = 0; i < tokenKeys.length; i++){\r\n            if(tokenKeys[i] == tokenId)\r\n                tokenKeys[i] = 0;\r\n        }\r\n    }\r\n}",
  "sourcePath": "D:\\blockchain\\marketplace\\tfg_market\\src\\contracts\\My_NFT.sol",
  "compiler": {
    "name": "solc",
    "version": "0.8.10+commit.fc410830.Emscripten.clang"
  },
  "schemaVersion": "3.4.3",
  "updatedAt": "2022-02-13T14:32:50.975Z",
  "networkType": "ethereum",
  "devdoc": {
    "kind": "dev",
    "methods": {
      "balanceOf(address,uint256)": {
        "details": "See {IERC1155-balanceOf}. Requirements: - `account` cannot be the zero address."
      },
      "balanceOfBatch(address[],uint256[])": {
        "details": "See {IERC1155-balanceOfBatch}. Requirements: - `accounts` and `ids` must have the same length."
      },
      "isApprovedForAll(address,address)": {
        "details": "See {IERC1155-isApprovedForAll}."
      },
      "safeBatchTransferFrom(address,address,uint256[],uint256[],bytes)": {
        "details": "See {IERC1155-safeBatchTransferFrom}."
      },
      "safeTransferFrom(address,address,uint256,uint256,bytes)": {
        "details": "See {IERC1155-safeTransferFrom}."
      },
      "setApprovalForAll(address,bool)": {
        "details": "See {IERC1155-setApprovalForAll}."
      },
      "supportsInterface(bytes4)": {
        "details": "See {IERC165-supportsInterface}."
      },
      "uri(uint256)": {
        "details": "See {IERC1155MetadataURI-uri}. This implementation returns the same URI for *all* token types. It relies on the token type ID substitution mechanism https://eips.ethereum.org/EIPS/eip-1155#metadata[defined in the EIP]. Clients calling this function must replace the `\\{id\\}` substring with the actual token type ID."
      }
    },
    "version": 1
  },
  "userdoc": {
    "kind": "user",
    "methods": {},
    "version": 1
  }
}